{
	"contracts/new.sol": {
		"wallet": {
			"abi": [
				{
					"inputs": [],
					"stateMutability": "nonpayable",
					"type": "constructor"
				},
				{
					"anonymous": false,
					"inputs": [
						{
							"indexed": true,
							"internalType": "address",
							"name": "previousOwner",
							"type": "address"
						},
						{
							"indexed": true,
							"internalType": "address",
							"name": "newOwner",
							"type": "address"
						}
					],
					"name": "OwnershipTransferred",
					"type": "event"
				},
				{
					"anonymous": false,
					"inputs": [
						{
							"indexed": true,
							"internalType": "address",
							"name": "buyer",
							"type": "address"
						},
						{
							"indexed": false,
							"internalType": "uint256",
							"name": "ticketno",
							"type": "uint256"
						},
						{
							"indexed": false,
							"internalType": "uint256",
							"name": "amount",
							"type": "uint256"
						}
					],
					"name": "PurchasedTicket",
					"type": "event"
				},
				{
					"anonymous": false,
					"inputs": [
						{
							"indexed": true,
							"internalType": "address",
							"name": "user",
							"type": "address"
						},
						{
							"indexed": false,
							"internalType": "uint256",
							"name": "ticketno",
							"type": "uint256"
						},
						{
							"indexed": false,
							"internalType": "uint256",
							"name": "amount",
							"type": "uint256"
						}
					],
					"name": "Refund",
					"type": "event"
				},
				{
					"anonymous": false,
					"inputs": [
						{
							"indexed": true,
							"internalType": "address",
							"name": "withdraweth",
							"type": "address"
						},
						{
							"indexed": false,
							"internalType": "uint256",
							"name": "amount",
							"type": "uint256"
						}
					],
					"name": "Withdraw",
					"type": "event"
				},
				{
					"inputs": [
						{
							"internalType": "string",
							"name": "_name",
							"type": "string"
						},
						{
							"internalType": "string",
							"name": "_email",
							"type": "string"
						},
						{
							"internalType": "uint256",
							"name": "_phoneNo",
							"type": "uint256"
						}
					],
					"name": "Buyvipseats",
					"outputs": [],
					"stateMutability": "payable",
					"type": "function"
				},
				{
					"inputs": [
						{
							"internalType": "uint256",
							"name": "",
							"type": "uint256"
						}
					],
					"name": "details",
					"outputs": [
						{
							"internalType": "string",
							"name": "name",
							"type": "string"
						},
						{
							"internalType": "string",
							"name": "email",
							"type": "string"
						},
						{
							"internalType": "uint256",
							"name": "phoneNo",
							"type": "uint256"
						},
						{
							"internalType": "uint256",
							"name": "ticketNo",
							"type": "uint256"
						}
					],
					"stateMutability": "view",
					"type": "function"
				},
				{
					"inputs": [],
					"name": "eth",
					"outputs": [
						{
							"internalType": "uint256",
							"name": "",
							"type": "uint256"
						}
					],
					"stateMutability": "view",
					"type": "function"
				},
				{
					"inputs": [],
					"name": "ethforvip",
					"outputs": [
						{
							"internalType": "uint256",
							"name": "",
							"type": "uint256"
						}
					],
					"stateMutability": "view",
					"type": "function"
				},
				{
					"inputs": [],
					"name": "eventDate",
					"outputs": [
						{
							"internalType": "uint256",
							"name": "",
							"type": "uint256"
						}
					],
					"stateMutability": "view",
					"type": "function"
				},
				{
					"inputs": [],
					"name": "isOwner",
					"outputs": [
						{
							"internalType": "bool",
							"name": "",
							"type": "bool"
						}
					],
					"stateMutability": "view",
					"type": "function"
				},
				{
					"inputs": [],
					"name": "owner",
					"outputs": [
						{
							"internalType": "address",
							"name": "",
							"type": "address"
						}
					],
					"stateMutability": "view",
					"type": "function"
				},
				{
					"inputs": [
						{
							"internalType": "string",
							"name": "_name",
							"type": "string"
						},
						{
							"internalType": "string",
							"name": "_email",
							"type": "string"
						},
						{
							"internalType": "uint256",
							"name": "_phoneNo",
							"type": "uint256"
						}
					],
					"name": "payforticket",
					"outputs": [],
					"stateMutability": "payable",
					"type": "function"
				},
				{
					"inputs": [],
					"name": "refund",
					"outputs": [],
					"stateMutability": "nonpayable",
					"type": "function"
				},
				{
					"inputs": [],
					"name": "refundforvip",
					"outputs": [],
					"stateMutability": "nonpayable",
					"type": "function"
				},
				{
					"inputs": [],
					"name": "renounceOwnership",
					"outputs": [],
					"stateMutability": "nonpayable",
					"type": "function"
				},
				{
					"inputs": [],
					"name": "seats",
					"outputs": [
						{
							"internalType": "uint256",
							"name": "",
							"type": "uint256"
						}
					],
					"stateMutability": "view",
					"type": "function"
				},
				{
					"inputs": [
						{
							"internalType": "address",
							"name": "newOwner",
							"type": "address"
						}
					],
					"name": "transferOwnership",
					"outputs": [],
					"stateMutability": "nonpayable",
					"type": "function"
				},
				{
					"inputs": [
						{
							"internalType": "address",
							"name": "",
							"type": "address"
						}
					],
					"name": "usertoTicket",
					"outputs": [
						{
							"internalType": "uint256",
							"name": "",
							"type": "uint256"
						}
					],
					"stateMutability": "view",
					"type": "function"
				},
				{
					"inputs": [
						{
							"internalType": "address",
							"name": "",
							"type": "address"
						}
					],
					"name": "usertoVipTicket",
					"outputs": [
						{
							"internalType": "uint256",
							"name": "",
							"type": "uint256"
						}
					],
					"stateMutability": "view",
					"type": "function"
				},
				{
					"inputs": [
						{
							"internalType": "uint256",
							"name": "",
							"type": "uint256"
						}
					],
					"name": "vipdetails",
					"outputs": [
						{
							"internalType": "string",
							"name": "name",
							"type": "string"
						},
						{
							"internalType": "string",
							"name": "email",
							"type": "string"
						},
						{
							"internalType": "uint256",
							"name": "phoneNo",
							"type": "uint256"
						},
						{
							"internalType": "uint256",
							"name": "ticketNo",
							"type": "uint256"
						}
					],
					"stateMutability": "view",
					"type": "function"
				},
				{
					"inputs": [],
					"name": "vipseats",
					"outputs": [
						{
							"internalType": "uint256",
							"name": "",
							"type": "uint256"
						}
					],
					"stateMutability": "view",
					"type": "function"
				},
				{
					"inputs": [],
					"name": "withdraw",
					"outputs": [],
					"stateMutability": "nonpayable",
					"type": "function"
				}
			],
			"devdoc": {
				"kind": "dev",
				"methods": {
					"isOwner()": {
						"returns": {
							"_0": "true if `msg.sender` is the owner of the contract."
						}
					},
					"owner()": {
						"returns": {
							"_0": "the address of the owner."
						}
					},
					"renounceOwnership()": {
						"details": "Allows the current owner to relinquish control of the contract."
					},
					"transferOwnership(address)": {
						"details": "Allows the current owner to transfer control of the contract to a newOwner.",
						"params": {
							"newOwner": "The address to transfer ownership to."
						}
					}
				},
				"version": 1
			},
			"evm": {
				"assembly": "    /* \"contracts/new.sol\":90:3366  contract wallet is Ownable {... */\n  mstore(0x40, 0x80)\n    /* \"contracts/new.sol\":140:151  0.001 ether */\n  0x038d7ea4c68000\n    /* \"contracts/new.sol\":122:151  uint public eth = 0.001 ether */\n  0x01\n  sstore\n    /* \"contracts/new.sol\":178:189  0.004 ether */\n  0x0e35fa931a0000\n    /* \"contracts/new.sol\":154:189  uint public ethforvip = 0.004 ether */\n  0x02\n  sstore\n    /* \"contracts/new.sol\":212:215  100 */\n  0x64\n    /* \"contracts/new.sol\":192:215  uint public seats = 100 */\n  0x03\n  sstore\n    /* \"contracts/new.sol\":242:244  50 */\n  0x32\n    /* \"contracts/new.sol\":218:244  uint  public vipseats = 50 */\n  0x04\n  sstore\n    /* \"contracts/new.sol\":1419:1483  constructor(){... */\n  callvalue\n  dup1\n  iszero\n  tag_1\n  jumpi\n  revert(0x00, 0x00)\ntag_1:\n  pop\n    /* \"contracts/ownable.sol\":542:552  msg.sender */\n  caller\n    /* \"contracts/ownable.sol\":533:539  _owner */\n  0x00\n  0x00\n    /* \"contracts/ownable.sol\":533:552  _owner = msg.sender */\n  0x0100\n  exp\n  dup2\n  sload\n  dup2\n  0xffffffffffffffffffffffffffffffffffffffff\n  mul\n  not\n  and\n  swap1\n  dup4\n  0xffffffffffffffffffffffffffffffffffffffff\n  and\n  mul\n  or\n  swap1\n  sstore\n  pop\n    /* \"contracts/ownable.sol\":596:602  _owner */\n  0x00\n  0x00\n  swap1\n  sload\n  swap1\n  0x0100\n  exp\n  swap1\n  div\n  0xffffffffffffffffffffffffffffffffffffffff\n  and\n    /* \"contracts/ownable.sol\":563:603  OwnershipTransferred(address(0), _owner) */\n  0xffffffffffffffffffffffffffffffffffffffff\n  and\n    /* \"contracts/ownable.sol\":592:593  0 */\n  0x00\n    /* \"contracts/ownable.sol\":563:603  OwnershipTransferred(address(0), _owner) */\n  0xffffffffffffffffffffffffffffffffffffffff\n  and\n  0x8be0079c531659141344cd1fd0a4f28419497f9722a3daafe3b4186f6b6457e0\n  mload(0x40)\n  mload(0x40)\n  dup1\n  swap2\n  sub\n  swap1\n  log3\n    /* \"contracts/new.sol\":1470:1476  7 days */\n  0x093a80\n    /* \"contracts/new.sol\":1452:1467  block.timestamp */\n  timestamp\n    /* \"contracts/new.sol\":1452:1476  block.timestamp + 7 days */\n  tag_6\n  swap2\n  swap1\n  tag_7\n  jump\t// in\ntag_6:\n    /* \"contracts/new.sol\":1440:1449  eventDate */\n  0x05\n    /* \"contracts/new.sol\":1440:1476  eventDate = block.timestamp + 7 days */\n  dup2\n  swap1\n  sstore\n  pop\n    /* \"contracts/new.sol\":90:3366  contract wallet is Ownable {... */\n  jump(tag_8)\n    /* \"#utility.yul\":7:84   */\ntag_9:\n    /* \"#utility.yul\":44:51   */\n  0x00\n    /* \"#utility.yul\":73:78   */\n  dup2\n    /* \"#utility.yul\":62:78   */\n  swap1\n  pop\n    /* \"#utility.yul\":7:84   */\n  swap2\n  swap1\n  pop\n  jump\t// out\n    /* \"#utility.yul\":90:270   */\ntag_10:\n    /* \"#utility.yul\":138:215   */\n  0x4e487b7100000000000000000000000000000000000000000000000000000000\n    /* \"#utility.yul\":135:136   */\n  0x00\n    /* \"#utility.yul\":128:216   */\n  mstore\n    /* \"#utility.yul\":235:239   */\n  0x11\n    /* \"#utility.yul\":232:233   */\n  0x04\n    /* \"#utility.yul\":225:240   */\n  mstore\n    /* \"#utility.yul\":259:263   */\n  0x24\n    /* \"#utility.yul\":256:257   */\n  0x00\n    /* \"#utility.yul\":249:264   */\n  revert\n    /* \"#utility.yul\":276:467   */\ntag_7:\n    /* \"#utility.yul\":316:319   */\n  0x00\n    /* \"#utility.yul\":335:355   */\n  tag_15\n    /* \"#utility.yul\":353:354   */\n  dup3\n    /* \"#utility.yul\":335:355   */\n  tag_9\n  jump\t// in\ntag_15:\n    /* \"#utility.yul\":330:355   */\n  swap2\n  pop\n    /* \"#utility.yul\":369:389   */\n  tag_16\n    /* \"#utility.yul\":387:388   */\n  dup4\n    /* \"#utility.yul\":369:389   */\n  tag_9\n  jump\t// in\ntag_16:\n    /* \"#utility.yul\":364:389   */\n  swap3\n  pop\n    /* \"#utility.yul\":412:413   */\n  dup3\n    /* \"#utility.yul\":409:410   */\n  dup3\n    /* \"#utility.yul\":405:414   */\n  add\n    /* \"#utility.yul\":398:414   */\n  swap1\n  pop\n    /* \"#utility.yul\":433:436   */\n  dup1\n    /* \"#utility.yul\":430:431   */\n  dup3\n    /* \"#utility.yul\":427:437   */\n  gt\n    /* \"#utility.yul\":424:460   */\n  iszero\n  tag_17\n  jumpi\n    /* \"#utility.yul\":440:458   */\n  tag_18\n  tag_10\n  jump\t// in\ntag_18:\n    /* \"#utility.yul\":424:460   */\ntag_17:\n    /* \"#utility.yul\":276:467   */\n  swap3\n  swap2\n  pop\n  pop\n  jump\t// out\n    /* \"contracts/new.sol\":90:3366  contract wallet is Ownable {... */\ntag_8:\n  dataSize(sub_0)\n  dup1\n  dataOffset(sub_0)\n  0x00\n  codecopy\n  0x00\n  return\nstop\n\nsub_0: assembly {\n        /* \"contracts/new.sol\":90:3366  contract wallet is Ownable {... */\n      mstore(0x40, 0x80)\n      jumpi(tag_1, lt(calldatasize, 0x04))\n      shr(0xe0, calldataload(0x00))\n      dup1\n      0x8c7c9e0c\n      gt\n      tag_20\n      jumpi\n      dup1\n      0xa005ec7a\n      gt\n      tag_21\n      jumpi\n      dup1\n      0xa005ec7a\n      eq\n      tag_15\n      jumpi\n      dup1\n      0xa5567197\n      eq\n      tag_16\n      jumpi\n      dup1\n      0xacae79bb\n      eq\n      tag_17\n      jumpi\n      dup1\n      0xad90cf8d\n      eq\n      tag_18\n      jumpi\n      dup1\n      0xf2fde38b\n      eq\n      tag_19\n      jumpi\n      jump(tag_1)\n    tag_21:\n      dup1\n      0x8c7c9e0c\n      eq\n      tag_11\n      jumpi\n      dup1\n      0x8da5cb5b\n      eq\n      tag_12\n      jumpi\n      dup1\n      0x8f32d59b\n      eq\n      tag_13\n      jumpi\n      dup1\n      0x9c5655d6\n      eq\n      tag_14\n      jumpi\n      jump(tag_1)\n    tag_20:\n      dup1\n      0x53ab3648\n      gt\n      tag_22\n      jumpi\n      dup1\n      0x53ab3648\n      eq\n      tag_6\n      jumpi\n      dup1\n      0x590e1ae3\n      eq\n      tag_7\n      jumpi\n      dup1\n      0x609af3a7\n      eq\n      tag_8\n      jumpi\n      dup1\n      0x715018a6\n      eq\n      tag_9\n      jumpi\n      dup1\n      0x7ab05004\n      eq\n      tag_10\n      jumpi\n      jump(tag_1)\n    tag_22:\n      dup1\n      0x332c4fde\n      eq\n      tag_2\n      jumpi\n      dup1\n      0x352371fe\n      eq\n      tag_3\n      jumpi\n      dup1\n      0x3ccfd60b\n      eq\n      tag_4\n      jumpi\n      dup1\n      0x4bfbe5df\n      eq\n      tag_5\n      jumpi\n    tag_1:\n      revert(0x00, 0x00)\n        /* \"contracts/new.sol\":725:751  Ticket[] public vipdetails */\n    tag_2:\n      callvalue\n      dup1\n      iszero\n      tag_23\n      jumpi\n      revert(0x00, 0x00)\n    tag_23:\n      pop\n      tag_24\n      0x04\n      dup1\n      calldatasize\n      sub\n      dup2\n      add\n      swap1\n      tag_25\n      swap2\n      swap1\n      tag_26\n      jump\t// in\n    tag_25:\n      tag_27\n      jump\t// in\n    tag_24:\n      mload(0x40)\n      tag_28\n      swap5\n      swap4\n      swap3\n      swap2\n      swap1\n      tag_29\n      jump\t// in\n    tag_28:\n      mload(0x40)\n      dup1\n      swap2\n      sub\n      swap1\n      return\n        /* \"contracts/new.sol\":758:1389  function payforticket(string memory _name,... */\n    tag_3:\n      tag_30\n      0x04\n      dup1\n      calldatasize\n      sub\n      dup2\n      add\n      swap1\n      tag_31\n      swap2\n      swap1\n      tag_32\n      jump\t// in\n    tag_31:\n      tag_33\n      jump\t// in\n    tag_30:\n      stop\n        /* \"contracts/new.sol\":3123:3364  function withdraw() external onlyOwner {... */\n    tag_4:\n      callvalue\n      dup1\n      iszero\n      tag_34\n      jumpi\n      revert(0x00, 0x00)\n    tag_34:\n      pop\n      tag_35\n      tag_36\n      jump\t// in\n    tag_35:\n      stop\n        /* \"contracts/new.sol\":247:272  uint256 public  eventDate */\n    tag_5:\n      callvalue\n      dup1\n      iszero\n      tag_37\n      jumpi\n      revert(0x00, 0x00)\n    tag_37:\n      pop\n      tag_38\n      tag_39\n      jump\t// in\n    tag_38:\n      mload(0x40)\n      tag_40\n      swap2\n      swap1\n      tag_41\n      jump\t// in\n    tag_40:\n      mload(0x40)\n      dup1\n      swap2\n      sub\n      swap1\n      return\n        /* \"contracts/new.sol\":154:189  uint public ethforvip = 0.004 ether */\n    tag_6:\n      callvalue\n      dup1\n      iszero\n      tag_42\n      jumpi\n      revert(0x00, 0x00)\n    tag_42:\n      pop\n      tag_43\n      tag_44\n      jump\t// in\n    tag_43:\n      mload(0x40)\n      tag_45\n      swap2\n      swap1\n      tag_41\n      jump\t// in\n    tag_45:\n      mload(0x40)\n      dup1\n      swap2\n      sub\n      swap1\n      return\n        /* \"contracts/new.sol\":1488:1925  function refund() external  {... */\n    tag_7:\n      callvalue\n      dup1\n      iszero\n      tag_46\n      jumpi\n      revert(0x00, 0x00)\n    tag_46:\n      pop\n      tag_47\n      tag_48\n      jump\t// in\n    tag_47:\n      stop\n        /* \"contracts/new.sol\":2647:3090  function refundforvip() external {... */\n    tag_8:\n      callvalue\n      dup1\n      iszero\n      tag_49\n      jumpi\n      revert(0x00, 0x00)\n    tag_49:\n      pop\n      tag_50\n      tag_51\n      jump\t// in\n    tag_50:\n      stop\n        /* \"contracts/ownable.sol\":1286:1413  function renounceOwnership() public onlyOwner {... */\n    tag_9:\n      callvalue\n      dup1\n      iszero\n      tag_52\n      jumpi\n      revert(0x00, 0x00)\n    tag_52:\n      pop\n      tag_53\n      tag_54\n      jump\t// in\n    tag_53:\n      stop\n        /* \"contracts/new.sol\":326:374  mapping (address => uint) public usertoVipTicket */\n    tag_10:\n      callvalue\n      dup1\n      iszero\n      tag_55\n      jumpi\n      revert(0x00, 0x00)\n    tag_55:\n      pop\n      tag_56\n      0x04\n      dup1\n      calldatasize\n      sub\n      dup2\n      add\n      swap1\n      tag_57\n      swap2\n      swap1\n      tag_58\n      jump\t// in\n    tag_57:\n      tag_59\n      jump\t// in\n    tag_56:\n      mload(0x40)\n      tag_60\n      swap2\n      swap1\n      tag_41\n      jump\t// in\n    tag_60:\n      mload(0x40)\n      dup1\n      swap2\n      sub\n      swap1\n      return\n        /* \"contracts/new.sol\":122:151  uint public eth = 0.001 ether */\n    tag_11:\n      callvalue\n      dup1\n      iszero\n      tag_61\n      jumpi\n      revert(0x00, 0x00)\n    tag_61:\n      pop\n      tag_62\n      tag_63\n      jump\t// in\n    tag_62:\n      mload(0x40)\n      tag_64\n      swap2\n      swap1\n      tag_41\n      jump\t// in\n    tag_64:\n      mload(0x40)\n      dup1\n      swap2\n      sub\n      swap1\n      return\n        /* \"contracts/ownable.sol\":661:731  function owner() public view returns(address) {... */\n    tag_12:\n      callvalue\n      dup1\n      iszero\n      tag_65\n      jumpi\n      revert(0x00, 0x00)\n    tag_65:\n      pop\n      tag_66\n      tag_67\n      jump\t// in\n    tag_66:\n      mload(0x40)\n      tag_68\n      swap2\n      swap1\n      tag_69\n      jump\t// in\n    tag_68:\n      mload(0x40)\n      dup1\n      swap2\n      sub\n      swap1\n      return\n        /* \"contracts/ownable.sol\":944:1027  function isOwner() public view returns(bool) {... */\n    tag_13:\n      callvalue\n      dup1\n      iszero\n      tag_70\n      jumpi\n      revert(0x00, 0x00)\n    tag_70:\n      pop\n      tag_71\n      tag_72\n      jump\t// in\n    tag_71:\n      mload(0x40)\n      tag_73\n      swap2\n      swap1\n      tag_74\n      jump\t// in\n    tag_73:\n      mload(0x40)\n      dup1\n      swap2\n      sub\n      swap1\n      return\n        /* \"contracts/new.sol\":192:215  uint public seats = 100 */\n    tag_14:\n      callvalue\n      dup1\n      iszero\n      tag_75\n      jumpi\n      revert(0x00, 0x00)\n    tag_75:\n      pop\n      tag_76\n      tag_77\n      jump\t// in\n    tag_76:\n      mload(0x40)\n      tag_78\n      swap2\n      swap1\n      tag_41\n      jump\t// in\n    tag_78:\n      mload(0x40)\n      dup1\n      swap2\n      sub\n      swap1\n      return\n        /* \"contracts/new.sol\":696:719  Ticket[] public details */\n    tag_15:\n      callvalue\n      dup1\n      iszero\n      tag_79\n      jumpi\n      revert(0x00, 0x00)\n    tag_79:\n      pop\n      tag_80\n      0x04\n      dup1\n      calldatasize\n      sub\n      dup2\n      add\n      swap1\n      tag_81\n      swap2\n      swap1\n      tag_26\n      jump\t// in\n    tag_81:\n      tag_82\n      jump\t// in\n    tag_80:\n      mload(0x40)\n      tag_83\n      swap5\n      swap4\n      swap3\n      swap2\n      swap1\n      tag_29\n      jump\t// in\n    tag_83:\n      mload(0x40)\n      dup1\n      swap2\n      sub\n      swap1\n      return\n        /* \"contracts/new.sol\":218:244  uint  public vipseats = 50 */\n    tag_16:\n      callvalue\n      dup1\n      iszero\n      tag_84\n      jumpi\n      revert(0x00, 0x00)\n    tag_84:\n      pop\n      tag_85\n      tag_86\n      jump\t// in\n    tag_85:\n      mload(0x40)\n      tag_87\n      swap2\n      swap1\n      tag_41\n      jump\t// in\n    tag_87:\n      mload(0x40)\n      dup1\n      swap2\n      sub\n      swap1\n      return\n        /* \"contracts/new.sol\":278:323  mapping (address => uint) public usertoTicket */\n    tag_17:\n      callvalue\n      dup1\n      iszero\n      tag_88\n      jumpi\n      revert(0x00, 0x00)\n    tag_88:\n      pop\n      tag_89\n      0x04\n      dup1\n      calldatasize\n      sub\n      dup2\n      add\n      swap1\n      tag_90\n      swap2\n      swap1\n      tag_58\n      jump\t// in\n    tag_90:\n      tag_91\n      jump\t// in\n    tag_89:\n      mload(0x40)\n      tag_92\n      swap2\n      swap1\n      tag_41\n      jump\t// in\n    tag_92:\n      mload(0x40)\n      dup1\n      swap2\n      sub\n      swap1\n      return\n        /* \"contracts/new.sol\":1960:2613  function Buyvipseats(string memory _name,... */\n    tag_18:\n      tag_93\n      0x04\n      dup1\n      calldatasize\n      sub\n      dup2\n      add\n      swap1\n      tag_94\n      swap2\n      swap1\n      tag_32\n      jump\t// in\n    tag_94:\n      tag_95\n      jump\t// in\n    tag_93:\n      stop\n        /* \"contracts/ownable.sol\":1571:1672  function transferOwnership(address newOwner) public onlyOwner {... */\n    tag_19:\n      callvalue\n      dup1\n      iszero\n      tag_96\n      jumpi\n      revert(0x00, 0x00)\n    tag_96:\n      pop\n      tag_97\n      0x04\n      dup1\n      calldatasize\n      sub\n      dup2\n      add\n      swap1\n      tag_98\n      swap2\n      swap1\n      tag_58\n      jump\t// in\n    tag_98:\n      tag_99\n      jump\t// in\n    tag_97:\n      stop\n        /* \"contracts/new.sol\":725:751  Ticket[] public vipdetails */\n    tag_27:\n      0x09\n      dup2\n      dup2\n      sload\n      dup2\n      lt\n      tag_100\n      jumpi\n      0x00\n      dup1\n      revert\n    tag_100:\n      swap1\n      0x00\n      mstore\n      keccak256(0x00, 0x20)\n      swap1\n      0x04\n      mul\n      add\n      0x00\n      swap2\n      pop\n      swap1\n      pop\n      dup1\n      0x00\n      add\n      dup1\n      sload\n      tag_102\n      swap1\n      tag_103\n      jump\t// in\n    tag_102:\n      dup1\n      0x1f\n      add\n      0x20\n      dup1\n      swap2\n      div\n      mul\n      0x20\n      add\n      mload(0x40)\n      swap1\n      dup2\n      add\n      0x40\n      mstore\n      dup1\n      swap3\n      swap2\n      swap1\n      dup2\n      dup2\n      mstore\n      0x20\n      add\n      dup3\n      dup1\n      sload\n      tag_104\n      swap1\n      tag_103\n      jump\t// in\n    tag_104:\n      dup1\n      iszero\n      tag_105\n      jumpi\n      dup1\n      0x1f\n      lt\n      tag_106\n      jumpi\n      0x0100\n      dup1\n      dup4\n      sload\n      div\n      mul\n      dup4\n      mstore\n      swap2\n      0x20\n      add\n      swap2\n      jump(tag_105)\n    tag_106:\n      dup3\n      add\n      swap2\n      swap1\n      0x00\n      mstore\n      keccak256(0x00, 0x20)\n      swap1\n    tag_107:\n      dup2\n      sload\n      dup2\n      mstore\n      swap1\n      0x01\n      add\n      swap1\n      0x20\n      add\n      dup1\n      dup4\n      gt\n      tag_107\n      jumpi\n      dup3\n      swap1\n      sub\n      0x1f\n      and\n      dup3\n      add\n      swap2\n    tag_105:\n      pop\n      pop\n      pop\n      pop\n      pop\n      swap1\n      dup1\n      0x01\n      add\n      dup1\n      sload\n      tag_108\n      swap1\n      tag_103\n      jump\t// in\n    tag_108:\n      dup1\n      0x1f\n      add\n      0x20\n      dup1\n      swap2\n      div\n      mul\n      0x20\n      add\n      mload(0x40)\n      swap1\n      dup2\n      add\n      0x40\n      mstore\n      dup1\n      swap3\n      swap2\n      swap1\n      dup2\n      dup2\n      mstore\n      0x20\n      add\n      dup3\n      dup1\n      sload\n      tag_109\n      swap1\n      tag_103\n      jump\t// in\n    tag_109:\n      dup1\n      iszero\n      tag_110\n      jumpi\n      dup1\n      0x1f\n      lt\n      tag_111\n      jumpi\n      0x0100\n      dup1\n      dup4\n      sload\n      div\n      mul\n      dup4\n      mstore\n      swap2\n      0x20\n      add\n      swap2\n      jump(tag_110)\n    tag_111:\n      dup3\n      add\n      swap2\n      swap1\n      0x00\n      mstore\n      keccak256(0x00, 0x20)\n      swap1\n    tag_112:\n      dup2\n      sload\n      dup2\n      mstore\n      swap1\n      0x01\n      add\n      swap1\n      0x20\n      add\n      dup1\n      dup4\n      gt\n      tag_112\n      jumpi\n      dup3\n      swap1\n      sub\n      0x1f\n      and\n      dup3\n      add\n      swap2\n    tag_110:\n      pop\n      pop\n      pop\n      pop\n      pop\n      swap1\n      dup1\n      0x02\n      add\n      sload\n      swap1\n      dup1\n      0x03\n      add\n      sload\n      swap1\n      pop\n      dup5\n      jump\t// out\n        /* \"contracts/new.sol\":758:1389  function payforticket(string memory _name,... */\n    tag_33:\n        /* \"contracts/new.sol\":898:901  eth */\n      sload(0x01)\n        /* \"contracts/new.sol\":885:894  msg.value */\n      callvalue\n        /* \"contracts/new.sol\":885:901  msg.value == eth */\n      eq\n        /* \"contracts/new.sol\":877:941  require(msg.value == eth, \"you have to pay exact amount of eth\") */\n      tag_114\n      jumpi\n      mload(0x40)\n      0x08c379a000000000000000000000000000000000000000000000000000000000\n      dup2\n      mstore\n      0x04\n      add\n      tag_115\n      swap1\n      tag_116\n      jump\t// in\n    tag_115:\n      mload(0x40)\n      dup1\n      swap2\n      sub\n      swap1\n      revert\n    tag_114:\n        /* \"contracts/new.sol\":967:968  0 */\n      0x00\n        /* \"contracts/new.sol\":959:964  seats */\n      sload(0x03)\n        /* \"contracts/new.sol\":959:968  seats > 0 */\n      gt\n        /* \"contracts/new.sol\":951:986  require(seats > 0,\"seats are full\") */\n      tag_117\n      jumpi\n      mload(0x40)\n      0x08c379a000000000000000000000000000000000000000000000000000000000\n      dup2\n      mstore\n      0x04\n      add\n      tag_118\n      swap1\n      tag_119\n      jump\t// in\n    tag_118:\n      mload(0x40)\n      dup1\n      swap2\n      sub\n      swap1\n      revert\n    tag_117:\n        /* \"contracts/new.sol\":1032:1033  0 */\n      0x00\n        /* \"contracts/new.sol\":1004:1016  usertoTicket */\n      0x06\n        /* \"contracts/new.sol\":1004:1028  usertoTicket[msg.sender] */\n      0x00\n        /* \"contracts/new.sol\":1017:1027  msg.sender */\n      caller\n        /* \"contracts/new.sol\":1004:1028  usertoTicket[msg.sender] */\n      0xffffffffffffffffffffffffffffffffffffffff\n      and\n      0xffffffffffffffffffffffffffffffffffffffff\n      and\n      dup2\n      mstore\n      0x20\n      add\n      swap1\n      dup2\n      mstore\n      0x20\n      add\n      0x00\n      keccak256\n      sload\n        /* \"contracts/new.sol\":1004:1033  usertoTicket[msg.sender] == 0 */\n      eq\n        /* \"contracts/new.sol\":996:1061  require(usertoTicket[msg.sender] == 0,\"you already own a ticket\") */\n      tag_120\n      jumpi\n      mload(0x40)\n      0x08c379a000000000000000000000000000000000000000000000000000000000\n      dup2\n      mstore\n      0x04\n      add\n      tag_121\n      swap1\n      tag_122\n      jump\t// in\n    tag_121:\n      mload(0x40)\n      dup1\n      swap2\n      sub\n      swap1\n      revert\n    tag_120:\n        /* \"contracts/new.sol\":1079:1080  1 */\n      0x01\n        /* \"contracts/new.sol\":1071:1076  seats */\n      0x03\n      0x00\n        /* \"contracts/new.sol\":1071:1080  seats -=1 */\n      dup3\n      dup3\n      sload\n      tag_123\n      swap2\n      swap1\n      tag_124\n      jump\t// in\n    tag_123:\n      swap3\n      pop\n      pop\n      dup2\n      swap1\n      sstore\n      pop\n        /* \"contracts/new.sol\":1090:1103  uint TicketNO */\n      0x00\n        /* \"contracts/new.sol\":1112:1117  seats */\n      sload(0x03)\n        /* \"contracts/new.sol\":1106:1109  100 */\n      0x64\n        /* \"contracts/new.sol\":1106:1117  100 - seats */\n      tag_125\n      swap2\n      swap1\n      tag_124\n      jump\t// in\n    tag_125:\n        /* \"contracts/new.sol\":1090:1117  uint TicketNO = 100 - seats */\n      swap1\n      pop\n        /* \"contracts/new.sol\":1136:1143  details */\n      0x08\n        /* \"contracts/new.sol\":1149:1283  Ticket({... */\n      mload(0x40)\n      dup1\n      0x80\n      add\n      0x40\n      mstore\n      dup1\n        /* \"contracts/new.sol\":1175:1180  _name */\n      dup7\n        /* \"contracts/new.sol\":1149:1283  Ticket({... */\n      dup2\n      mstore\n      0x20\n      add\n        /* \"contracts/new.sol\":1201:1207  _email */\n      dup6\n        /* \"contracts/new.sol\":1149:1283  Ticket({... */\n      dup2\n      mstore\n      0x20\n      add\n        /* \"contracts/new.sol\":1229:1237  _phoneNo */\n      dup5\n        /* \"contracts/new.sol\":1149:1283  Ticket({... */\n      dup2\n      mstore\n      0x20\n      add\n        /* \"contracts/new.sol\":1260:1268  TicketNO */\n      dup4\n        /* \"contracts/new.sol\":1149:1283  Ticket({... */\n      dup2\n      mstore\n      pop\n        /* \"contracts/new.sol\":1136:1284  details.push(Ticket({... */\n      swap1\n      dup1\n      0x01\n      dup2\n      sload\n      add\n      dup1\n      dup3\n      sstore\n      dup1\n      swap2\n      pop\n      pop\n      0x01\n      swap1\n      sub\n      swap1\n      0x00\n      mstore\n      keccak256(0x00, 0x20)\n      swap1\n      0x04\n      mul\n      add\n      0x00\n      swap1\n      swap2\n      swap1\n      swap2\n      swap1\n      swap2\n      pop\n      0x00\n      dup3\n      add\n      mload\n      dup2\n      0x00\n      add\n      swap1\n      dup2\n      tag_127\n      swap2\n      swap1\n      tag_128\n      jump\t// in\n    tag_127:\n      pop\n      0x20\n      dup3\n      add\n      mload\n      dup2\n      0x01\n      add\n      swap1\n      dup2\n      tag_129\n      swap2\n      swap1\n      tag_128\n      jump\t// in\n    tag_129:\n      pop\n      0x40\n      dup3\n      add\n      mload\n      dup2\n      0x02\n      add\n      sstore\n      0x60\n      dup3\n      add\n      mload\n      dup2\n      0x03\n      add\n      sstore\n      pop\n      pop\n        /* \"contracts/new.sol\":1319:1327  TicketNO */\n      dup1\n        /* \"contracts/new.sol\":1292:1304  usertoTicket */\n      0x06\n        /* \"contracts/new.sol\":1292:1316  usertoTicket[msg.sender] */\n      0x00\n        /* \"contracts/new.sol\":1305:1315  msg.sender */\n      caller\n        /* \"contracts/new.sol\":1292:1316  usertoTicket[msg.sender] */\n      0xffffffffffffffffffffffffffffffffffffffff\n      and\n      0xffffffffffffffffffffffffffffffffffffffff\n      and\n      dup2\n      mstore\n      0x20\n      add\n      swap1\n      dup2\n      mstore\n      0x20\n      add\n      0x00\n      keccak256\n        /* \"contracts/new.sol\":1292:1327  usertoTicket[msg.sender] = TicketNO */\n      dup2\n      swap1\n      sstore\n      pop\n        /* \"contracts/new.sol\":1356:1366  msg.sender */\n      caller\n        /* \"contracts/new.sol\":1340:1382  PurchasedTicket(msg.sender, TicketNO, eth) */\n      0xffffffffffffffffffffffffffffffffffffffff\n      and\n      0x7d1cd329a11d8807f0374627923b6cd32942b74b38b1accf931d70a507ff739e\n        /* \"contracts/new.sol\":1368:1376  TicketNO */\n      dup3\n        /* \"contracts/new.sol\":1378:1381  eth */\n      sload(0x01)\n        /* \"contracts/new.sol\":1340:1382  PurchasedTicket(msg.sender, TicketNO, eth) */\n      mload(0x40)\n      tag_130\n      swap3\n      swap2\n      swap1\n      tag_131\n      jump\t// in\n    tag_130:\n      mload(0x40)\n      dup1\n      swap2\n      sub\n      swap1\n      log2\n        /* \"contracts/new.sol\":867:1389  {... */\n      pop\n        /* \"contracts/new.sol\":758:1389  function payforticket(string memory _name,... */\n      pop\n      pop\n      pop\n      jump\t// out\n        /* \"contracts/new.sol\":3123:3364  function withdraw() external onlyOwner {... */\n    tag_36:\n        /* \"contracts/ownable.sol\":844:853  isOwner() */\n      tag_133\n        /* \"contracts/ownable.sol\":844:851  isOwner */\n      tag_72\n        /* \"contracts/ownable.sol\":844:853  isOwner() */\n      jump\t// in\n    tag_133:\n        /* \"contracts/ownable.sol\":836:854  require(isOwner()) */\n      tag_134\n      jumpi\n      revert(0x00, 0x00)\n    tag_134:\n        /* \"contracts/new.sol\":3170:3181  uint amount */\n      0x00\n        /* \"contracts/new.sol\":3184:3205  address(this).balance */\n      selfbalance\n        /* \"contracts/new.sol\":3170:3205  uint amount = address(this).balance */\n      swap1\n      pop\n        /* \"contracts/new.sol\":3214:3223  bool sent */\n      0x00\n        /* \"contracts/new.sol\":3237:3244  owner() */\n      tag_136\n        /* \"contracts/new.sol\":3237:3242  owner */\n      tag_67\n        /* \"contracts/new.sol\":3237:3244  owner() */\n      jump\t// in\n    tag_136:\n        /* \"contracts/new.sol\":3229:3250  payable(owner()).call */\n      0xffffffffffffffffffffffffffffffffffffffff\n      and\n        /* \"contracts/new.sol\":3258:3264  amount */\n      dup3\n        /* \"contracts/new.sol\":3229:3269  payable(owner()).call{value: amount}(\"\") */\n      mload(0x40)\n      tag_137\n      swap1\n      tag_138\n      jump\t// in\n    tag_137:\n      0x00\n      mload(0x40)\n      dup1\n      dup4\n      sub\n      dup2\n      dup6\n      dup8\n      gas\n      call\n      swap3\n      pop\n      pop\n      pop\n      returndatasize\n      dup1\n      0x00\n      dup2\n      eq\n      tag_141\n      jumpi\n      mload(0x40)\n      swap2\n      pop\n      and(add(returndatasize, 0x3f), not(0x1f))\n      dup3\n      add\n      0x40\n      mstore\n      returndatasize\n      dup3\n      mstore\n      returndatasize\n      0x00\n      0x20\n      dup5\n      add\n      returndatacopy\n      jump(tag_140)\n    tag_141:\n      0x60\n      swap2\n      pop\n    tag_140:\n      pop\n        /* \"contracts/new.sol\":3213:3269  (bool sent,) =  payable(owner()).call{value: amount}(\"\") */\n      pop\n      swap1\n      pop\n        /* \"contracts/new.sol\":3285:3289  sent */\n      dup1\n        /* \"contracts/new.sol\":3277:3321  require(sent,\"error:fail to withdraw ether\") */\n      tag_142\n      jumpi\n      mload(0x40)\n      0x08c379a000000000000000000000000000000000000000000000000000000000\n      dup2\n      mstore\n      0x04\n      add\n      tag_143\n      swap1\n      tag_144\n      jump\t// in\n    tag_143:\n      mload(0x40)\n      dup1\n      swap2\n      sub\n      swap1\n      revert\n    tag_142:\n        /* \"contracts/new.sol\":3343:3350  owner() */\n      tag_145\n        /* \"contracts/new.sol\":3343:3348  owner */\n      tag_67\n        /* \"contracts/new.sol\":3343:3350  owner() */\n      jump\t// in\n    tag_145:\n        /* \"contracts/new.sol\":3334:3358  Withdraw(owner(),amount) */\n      0xffffffffffffffffffffffffffffffffffffffff\n      and\n      0x884edad9ce6fa2440d8a54cc123490eb96d2768479d49ff9c7366125a9424364\n        /* \"contracts/new.sol\":3351:3357  amount */\n      dup4\n        /* \"contracts/new.sol\":3334:3358  Withdraw(owner(),amount) */\n      mload(0x40)\n      tag_146\n      swap2\n      swap1\n      tag_41\n      jump\t// in\n    tag_146:\n      mload(0x40)\n      dup1\n      swap2\n      sub\n      swap1\n      log2\n        /* \"contracts/new.sol\":3162:3364  {... */\n      pop\n      pop\n        /* \"contracts/new.sol\":3123:3364  function withdraw() external onlyOwner {... */\n      jump\t// out\n        /* \"contracts/new.sol\":247:272  uint256 public  eventDate */\n    tag_39:\n      sload(0x05)\n      dup2\n      jump\t// out\n        /* \"contracts/new.sol\":154:189  uint public ethforvip = 0.004 ether */\n    tag_44:\n      sload(0x02)\n      dup2\n      jump\t// out\n        /* \"contracts/new.sol\":1488:1925  function refund() external  {... */\n    tag_48:\n        /* \"contracts/new.sol\":1524:1537  uint TicketNo */\n      0x00\n        /* \"contracts/new.sol\":1540:1552  usertoTicket */\n      0x06\n        /* \"contracts/new.sol\":1540:1564  usertoTicket[msg.sender] */\n      0x00\n        /* \"contracts/new.sol\":1553:1563  msg.sender */\n      caller\n        /* \"contracts/new.sol\":1540:1564  usertoTicket[msg.sender] */\n      0xffffffffffffffffffffffffffffffffffffffff\n      and\n      0xffffffffffffffffffffffffffffffffffffffff\n      and\n      dup2\n      mstore\n      0x20\n      add\n      swap1\n      dup2\n      mstore\n      0x20\n      add\n      0x00\n      keccak256\n      sload\n        /* \"contracts/new.sol\":1524:1564  uint TicketNo = usertoTicket[msg.sender] */\n      swap1\n      pop\n        /* \"contracts/new.sol\":1605:1614  eventDate */\n      sload(0x05)\n        /* \"contracts/new.sol\":1587:1602  block.timestamp */\n      timestamp\n        /* \"contracts/new.sol\":1587:1614  block.timestamp < eventDate */\n      lt\n        /* \"contracts/new.sol\":1579:1640  require(block.timestamp < eventDate, \"refund period is over\") */\n      tag_148\n      jumpi\n      mload(0x40)\n      0x08c379a000000000000000000000000000000000000000000000000000000000\n      dup2\n      mstore\n      0x04\n      add\n      tag_149\n      swap1\n      tag_150\n      jump\t// in\n    tag_149:\n      mload(0x40)\n      dup1\n      swap2\n      sub\n      swap1\n      revert\n    tag_148:\n        /* \"contracts/new.sol\":1667:1668  0 */\n      0x00\n        /* \"contracts/new.sol\":1656:1664  TicketNo */\n      dup2\n        /* \"contracts/new.sol\":1656:1668  TicketNo > 0 */\n      gt\n        /* \"contracts/new.sol\":1648:1691  require(TicketNo > 0,\"you dont own Ticket\") */\n      tag_151\n      jumpi\n      mload(0x40)\n      0x08c379a000000000000000000000000000000000000000000000000000000000\n      dup2\n      mstore\n      0x04\n      add\n      tag_152\n      swap1\n      tag_153\n      jump\t// in\n    tag_152:\n      mload(0x40)\n      dup1\n      swap2\n      sub\n      swap1\n      revert\n    tag_151:\n        /* \"contracts/new.sol\":1733:1734  0 */\n      0x00\n        /* \"contracts/new.sol\":1706:1718  usertoTicket */\n      0x06\n        /* \"contracts/new.sol\":1706:1730  usertoTicket[msg.sender] */\n      0x00\n        /* \"contracts/new.sol\":1719:1729  msg.sender */\n      caller\n        /* \"contracts/new.sol\":1706:1730  usertoTicket[msg.sender] */\n      0xffffffffffffffffffffffffffffffffffffffff\n      and\n      0xffffffffffffffffffffffffffffffffffffffff\n      and\n      dup2\n      mstore\n      0x20\n      add\n      swap1\n      dup2\n      mstore\n      0x20\n      add\n      0x00\n      keccak256\n        /* \"contracts/new.sol\":1706:1734  usertoTicket[msg.sender] = 0 */\n      dup2\n      swap1\n      sstore\n      pop\n        /* \"contracts/new.sol\":1750:1751  1 */\n      0x01\n        /* \"contracts/new.sol\":1742:1747  seats */\n      0x03\n      0x00\n        /* \"contracts/new.sol\":1742:1751  seats +=1 */\n      dup3\n      dup3\n      sload\n      tag_154\n      swap2\n      swap1\n      tag_155\n      jump\t// in\n    tag_154:\n      swap3\n      pop\n      pop\n      dup2\n      swap1\n      sstore\n      pop\n        /* \"contracts/new.sol\":1761:1770  bool sent */\n      0x00\n        /* \"contracts/new.sol\":1784:1794  msg.sender */\n      caller\n        /* \"contracts/new.sol\":1776:1800  payable(msg.sender).call */\n      0xffffffffffffffffffffffffffffffffffffffff\n      and\n        /* \"contracts/new.sol\":1808:1811  eth */\n      sload(0x01)\n        /* \"contracts/new.sol\":1776:1816  payable(msg.sender).call{value: eth}(\"\") */\n      mload(0x40)\n      tag_156\n      swap1\n      tag_138\n      jump\t// in\n    tag_156:\n      0x00\n      mload(0x40)\n      dup1\n      dup4\n      sub\n      dup2\n      dup6\n      dup8\n      gas\n      call\n      swap3\n      pop\n      pop\n      pop\n      returndatasize\n      dup1\n      0x00\n      dup2\n      eq\n      tag_159\n      jumpi\n      mload(0x40)\n      swap2\n      pop\n      and(add(returndatasize, 0x3f), not(0x1f))\n      dup3\n      add\n      0x40\n      mstore\n      returndatasize\n      dup3\n      mstore\n      returndatasize\n      0x00\n      0x20\n      dup5\n      add\n      returndatacopy\n      jump(tag_158)\n    tag_159:\n      0x60\n      swap2\n      pop\n    tag_158:\n      pop\n        /* \"contracts/new.sol\":1760:1816  (bool sent,) =  payable(msg.sender).call{value: eth}(\"\") */\n      pop\n      swap1\n      pop\n        /* \"contracts/new.sol\":1833:1837  sent */\n      dup1\n        /* \"contracts/new.sol\":1825:1864  require(sent,\"error:issue with refund\") */\n      tag_160\n      jumpi\n      mload(0x40)\n      0x08c379a000000000000000000000000000000000000000000000000000000000\n      dup2\n      mstore\n      0x04\n      add\n      tag_161\n      swap1\n      tag_162\n      jump\t// in\n    tag_161:\n      mload(0x40)\n      dup1\n      swap2\n      sub\n      swap1\n      revert\n    tag_160:\n        /* \"contracts/new.sol\":1892:1902  msg.sender */\n      caller\n        /* \"contracts/new.sol\":1885:1918  Refund(msg.sender, TicketNo, eth) */\n      0xffffffffffffffffffffffffffffffffffffffff\n      and\n      0x73f04af9dcc582a923ec15d3eea990fe34adabfff2879e28d44572e01a54abb6\n        /* \"contracts/new.sol\":1904:1912  TicketNo */\n      dup4\n        /* \"contracts/new.sol\":1914:1917  eth */\n      sload(0x01)\n        /* \"contracts/new.sol\":1885:1918  Refund(msg.sender, TicketNo, eth) */\n      mload(0x40)\n      tag_163\n      swap3\n      swap2\n      swap1\n      tag_131\n      jump\t// in\n    tag_163:\n      mload(0x40)\n      dup1\n      swap2\n      sub\n      swap1\n      log2\n        /* \"contracts/new.sol\":1516:1925  {... */\n      pop\n      pop\n        /* \"contracts/new.sol\":1488:1925  function refund() external  {... */\n      jump\t// out\n        /* \"contracts/new.sol\":2647:3090  function refundforvip() external {... */\n    tag_51:\n        /* \"contracts/new.sol\":2686:2699  uint ticketno */\n      0x00\n        /* \"contracts/new.sol\":2702:2717  usertoVipTicket */\n      0x07\n        /* \"contracts/new.sol\":2702:2729  usertoVipTicket[msg.sender] */\n      0x00\n        /* \"contracts/new.sol\":2718:2728  msg.sender */\n      caller\n        /* \"contracts/new.sol\":2702:2729  usertoVipTicket[msg.sender] */\n      0xffffffffffffffffffffffffffffffffffffffff\n      and\n      0xffffffffffffffffffffffffffffffffffffffff\n      and\n      dup2\n      mstore\n      0x20\n      add\n      swap1\n      dup2\n      mstore\n      0x20\n      add\n      0x00\n      keccak256\n      sload\n        /* \"contracts/new.sol\":2686:2729  uint ticketno = usertoVipTicket[msg.sender] */\n      swap1\n      pop\n        /* \"contracts/new.sol\":2764:2773  eventDate */\n      sload(0x05)\n        /* \"contracts/new.sol\":2746:2761  block.timestamp */\n      timestamp\n        /* \"contracts/new.sol\":2746:2773  block.timestamp < eventDate */\n      lt\n        /* \"contracts/new.sol\":2738:2799  require(block.timestamp < eventDate, \"refund period is over\") */\n      tag_165\n      jumpi\n      mload(0x40)\n      0x08c379a000000000000000000000000000000000000000000000000000000000\n      dup2\n      mstore\n      0x04\n      add\n      tag_166\n      swap1\n      tag_150\n      jump\t// in\n    tag_166:\n      mload(0x40)\n      dup1\n      swap2\n      sub\n      swap1\n      revert\n    tag_165:\n        /* \"contracts/new.sol\":2826:2827  0 */\n      0x00\n        /* \"contracts/new.sol\":2815:2823  ticketno */\n      dup2\n        /* \"contracts/new.sol\":2815:2827  ticketno > 0 */\n      gt\n        /* \"contracts/new.sol\":2807:2850  require(ticketno > 0,\"you dont own Ticket\") */\n      tag_167\n      jumpi\n      mload(0x40)\n      0x08c379a000000000000000000000000000000000000000000000000000000000\n      dup2\n      mstore\n      0x04\n      add\n      tag_168\n      swap1\n      tag_153\n      jump\t// in\n    tag_168:\n      mload(0x40)\n      dup1\n      swap2\n      sub\n      swap1\n      revert\n    tag_167:\n        /* \"contracts/new.sol\":2895:2896  0 */\n      0x00\n        /* \"contracts/new.sol\":2865:2880  usertoVipTicket */\n      0x07\n        /* \"contracts/new.sol\":2865:2892  usertoVipTicket[msg.sender] */\n      0x00\n        /* \"contracts/new.sol\":2881:2891  msg.sender */\n      caller\n        /* \"contracts/new.sol\":2865:2892  usertoVipTicket[msg.sender] */\n      0xffffffffffffffffffffffffffffffffffffffff\n      and\n      0xffffffffffffffffffffffffffffffffffffffff\n      and\n      dup2\n      mstore\n      0x20\n      add\n      swap1\n      dup2\n      mstore\n      0x20\n      add\n      0x00\n      keccak256\n        /* \"contracts/new.sol\":2865:2896  usertoVipTicket[msg.sender] = 0 */\n      dup2\n      swap1\n      sstore\n      pop\n        /* \"contracts/new.sol\":2914:2915  1 */\n      0x01\n        /* \"contracts/new.sol\":2904:2912  vipseats */\n      0x04\n      0x00\n        /* \"contracts/new.sol\":2904:2915  vipseats+=1 */\n      dup3\n      dup3\n      sload\n      tag_169\n      swap2\n      swap1\n      tag_155\n      jump\t// in\n    tag_169:\n      swap3\n      pop\n      pop\n      dup2\n      swap1\n      sstore\n      pop\n        /* \"contracts/new.sol\":2926:2935  bool sent */\n      0x00\n        /* \"contracts/new.sol\":2948:2958  msg.sender */\n      caller\n        /* \"contracts/new.sol\":2940:2964  payable(msg.sender).call */\n      0xffffffffffffffffffffffffffffffffffffffff\n      and\n        /* \"contracts/new.sol\":2971:2980  ethforvip */\n      sload(0x02)\n        /* \"contracts/new.sol\":2940:2985  payable(msg.sender).call{value:ethforvip}(\"\") */\n      mload(0x40)\n      tag_170\n      swap1\n      tag_138\n      jump\t// in\n    tag_170:\n      0x00\n      mload(0x40)\n      dup1\n      dup4\n      sub\n      dup2\n      dup6\n      dup8\n      gas\n      call\n      swap3\n      pop\n      pop\n      pop\n      returndatasize\n      dup1\n      0x00\n      dup2\n      eq\n      tag_173\n      jumpi\n      mload(0x40)\n      swap2\n      pop\n      and(add(returndatasize, 0x3f), not(0x1f))\n      dup3\n      add\n      0x40\n      mstore\n      returndatasize\n      dup3\n      mstore\n      returndatasize\n      0x00\n      0x20\n      dup5\n      add\n      returndatacopy\n      jump(tag_172)\n    tag_173:\n      0x60\n      swap2\n      pop\n    tag_172:\n      pop\n        /* \"contracts/new.sol\":2925:2985  (bool sent,) = payable(msg.sender).call{value:ethforvip}(\"\") */\n      pop\n      swap1\n      pop\n        /* \"contracts/new.sol\":3001:3005  sent */\n      dup1\n        /* \"contracts/new.sol\":2993:3032  require(sent,\"error:issue with refund\") */\n      tag_174\n      jumpi\n      mload(0x40)\n      0x08c379a000000000000000000000000000000000000000000000000000000000\n      dup2\n      mstore\n      0x04\n      add\n      tag_175\n      swap1\n      tag_162\n      jump\t// in\n    tag_175:\n      mload(0x40)\n      dup1\n      swap2\n      sub\n      swap1\n      revert\n    tag_174:\n        /* \"contracts/new.sol\":3052:3062  msg.sender */\n      caller\n        /* \"contracts/new.sol\":3045:3084  Refund(msg.sender, ticketno, ethforvip) */\n      0xffffffffffffffffffffffffffffffffffffffff\n      and\n      0x73f04af9dcc582a923ec15d3eea990fe34adabfff2879e28d44572e01a54abb6\n        /* \"contracts/new.sol\":3064:3072  ticketno */\n      dup4\n        /* \"contracts/new.sol\":3074:3083  ethforvip */\n      sload(0x02)\n        /* \"contracts/new.sol\":3045:3084  Refund(msg.sender, ticketno, ethforvip) */\n      mload(0x40)\n      tag_176\n      swap3\n      swap2\n      swap1\n      tag_131\n      jump\t// in\n    tag_176:\n      mload(0x40)\n      dup1\n      swap2\n      sub\n      swap1\n      log2\n        /* \"contracts/new.sol\":2680:3090  {... */\n      pop\n      pop\n        /* \"contracts/new.sol\":2647:3090  function refundforvip() external {... */\n      jump\t// out\n        /* \"contracts/ownable.sol\":1286:1413  function renounceOwnership() public onlyOwner {... */\n    tag_54:\n        /* \"contracts/ownable.sol\":844:853  isOwner() */\n      tag_178\n        /* \"contracts/ownable.sol\":844:851  isOwner */\n      tag_72\n        /* \"contracts/ownable.sol\":844:853  isOwner() */\n      jump\t// in\n    tag_178:\n        /* \"contracts/ownable.sol\":836:854  require(isOwner()) */\n      tag_179\n      jumpi\n      revert(0x00, 0x00)\n    tag_179:\n        /* \"contracts/ownable.sol\":1380:1381  0 */\n      0x00\n        /* \"contracts/ownable.sol\":1343:1383  OwnershipTransferred(_owner, address(0)) */\n      0xffffffffffffffffffffffffffffffffffffffff\n      and\n        /* \"contracts/ownable.sol\":1364:1370  _owner */\n      0x00\n      0x00\n      swap1\n      sload\n      swap1\n      0x0100\n      exp\n      swap1\n      div\n      0xffffffffffffffffffffffffffffffffffffffff\n      and\n        /* \"contracts/ownable.sol\":1343:1383  OwnershipTransferred(_owner, address(0)) */\n      0xffffffffffffffffffffffffffffffffffffffff\n      and\n      0x8be0079c531659141344cd1fd0a4f28419497f9722a3daafe3b4186f6b6457e0\n      mload(0x40)\n      mload(0x40)\n      dup1\n      swap2\n      sub\n      swap1\n      log3\n        /* \"contracts/ownable.sol\":1406:1407  0 */\n      0x00\n        /* \"contracts/ownable.sol\":1389:1395  _owner */\n      0x00\n      0x00\n        /* \"contracts/ownable.sol\":1389:1408  _owner = address(0) */\n      0x0100\n      exp\n      dup2\n      sload\n      dup2\n      0xffffffffffffffffffffffffffffffffffffffff\n      mul\n      not\n      and\n      swap1\n      dup4\n      0xffffffffffffffffffffffffffffffffffffffff\n      and\n      mul\n      or\n      swap1\n      sstore\n      pop\n        /* \"contracts/ownable.sol\":1286:1413  function renounceOwnership() public onlyOwner {... */\n      jump\t// out\n        /* \"contracts/new.sol\":326:374  mapping (address => uint) public usertoVipTicket */\n    tag_59:\n      mstore(0x20, 0x07)\n      dup1\n      0x00\n      mstore\n      keccak256(0x00, 0x40)\n      0x00\n      swap2\n      pop\n      swap1\n      pop\n      sload\n      dup2\n      jump\t// out\n        /* \"contracts/new.sol\":122:151  uint public eth = 0.001 ether */\n    tag_63:\n      sload(0x01)\n      dup2\n      jump\t// out\n        /* \"contracts/ownable.sol\":661:731  function owner() public view returns(address) {... */\n    tag_67:\n        /* \"contracts/ownable.sol\":698:705  address */\n      0x00\n        /* \"contracts/ownable.sol\":720:726  _owner */\n      0x00\n      0x00\n      swap1\n      sload\n      swap1\n      0x0100\n      exp\n      swap1\n      div\n      0xffffffffffffffffffffffffffffffffffffffff\n      and\n        /* \"contracts/ownable.sol\":713:726  return _owner */\n      swap1\n      pop\n        /* \"contracts/ownable.sol\":661:731  function owner() public view returns(address) {... */\n      swap1\n      jump\t// out\n        /* \"contracts/ownable.sol\":944:1027  function isOwner() public view returns(bool) {... */\n    tag_72:\n        /* \"contracts/ownable.sol\":983:987  bool */\n      0x00\n        /* \"contracts/ownable.sol\":1016:1022  _owner */\n      0x00\n      0x00\n      swap1\n      sload\n      swap1\n      0x0100\n      exp\n      swap1\n      div\n      0xffffffffffffffffffffffffffffffffffffffff\n      and\n        /* \"contracts/ownable.sol\":1002:1022  msg.sender == _owner */\n      0xffffffffffffffffffffffffffffffffffffffff\n      and\n        /* \"contracts/ownable.sol\":1002:1012  msg.sender */\n      caller\n        /* \"contracts/ownable.sol\":1002:1022  msg.sender == _owner */\n      0xffffffffffffffffffffffffffffffffffffffff\n      and\n      eq\n        /* \"contracts/ownable.sol\":995:1022  return msg.sender == _owner */\n      swap1\n      pop\n        /* \"contracts/ownable.sol\":944:1027  function isOwner() public view returns(bool) {... */\n      swap1\n      jump\t// out\n        /* \"contracts/new.sol\":192:215  uint public seats = 100 */\n    tag_77:\n      sload(0x03)\n      dup2\n      jump\t// out\n        /* \"contracts/new.sol\":696:719  Ticket[] public details */\n    tag_82:\n      0x08\n      dup2\n      dup2\n      sload\n      dup2\n      lt\n      tag_183\n      jumpi\n      0x00\n      dup1\n      revert\n    tag_183:\n      swap1\n      0x00\n      mstore\n      keccak256(0x00, 0x20)\n      swap1\n      0x04\n      mul\n      add\n      0x00\n      swap2\n      pop\n      swap1\n      pop\n      dup1\n      0x00\n      add\n      dup1\n      sload\n      tag_185\n      swap1\n      tag_103\n      jump\t// in\n    tag_185:\n      dup1\n      0x1f\n      add\n      0x20\n      dup1\n      swap2\n      div\n      mul\n      0x20\n      add\n      mload(0x40)\n      swap1\n      dup2\n      add\n      0x40\n      mstore\n      dup1\n      swap3\n      swap2\n      swap1\n      dup2\n      dup2\n      mstore\n      0x20\n      add\n      dup3\n      dup1\n      sload\n      tag_186\n      swap1\n      tag_103\n      jump\t// in\n    tag_186:\n      dup1\n      iszero\n      tag_187\n      jumpi\n      dup1\n      0x1f\n      lt\n      tag_188\n      jumpi\n      0x0100\n      dup1\n      dup4\n      sload\n      div\n      mul\n      dup4\n      mstore\n      swap2\n      0x20\n      add\n      swap2\n      jump(tag_187)\n    tag_188:\n      dup3\n      add\n      swap2\n      swap1\n      0x00\n      mstore\n      keccak256(0x00, 0x20)\n      swap1\n    tag_189:\n      dup2\n      sload\n      dup2\n      mstore\n      swap1\n      0x01\n      add\n      swap1\n      0x20\n      add\n      dup1\n      dup4\n      gt\n      tag_189\n      jumpi\n      dup3\n      swap1\n      sub\n      0x1f\n      and\n      dup3\n      add\n      swap2\n    tag_187:\n      pop\n      pop\n      pop\n      pop\n      pop\n      swap1\n      dup1\n      0x01\n      add\n      dup1\n      sload\n      tag_190\n      swap1\n      tag_103\n      jump\t// in\n    tag_190:\n      dup1\n      0x1f\n      add\n      0x20\n      dup1\n      swap2\n      div\n      mul\n      0x20\n      add\n      mload(0x40)\n      swap1\n      dup2\n      add\n      0x40\n      mstore\n      dup1\n      swap3\n      swap2\n      swap1\n      dup2\n      dup2\n      mstore\n      0x20\n      add\n      dup3\n      dup1\n      sload\n      tag_191\n      swap1\n      tag_103\n      jump\t// in\n    tag_191:\n      dup1\n      iszero\n      tag_192\n      jumpi\n      dup1\n      0x1f\n      lt\n      tag_193\n      jumpi\n      0x0100\n      dup1\n      dup4\n      sload\n      div\n      mul\n      dup4\n      mstore\n      swap2\n      0x20\n      add\n      swap2\n      jump(tag_192)\n    tag_193:\n      dup3\n      add\n      swap2\n      swap1\n      0x00\n      mstore\n      keccak256(0x00, 0x20)\n      swap1\n    tag_194:\n      dup2\n      sload\n      dup2\n      mstore\n      swap1\n      0x01\n      add\n      swap1\n      0x20\n      add\n      dup1\n      dup4\n      gt\n      tag_194\n      jumpi\n      dup3\n      swap1\n      sub\n      0x1f\n      and\n      dup3\n      add\n      swap2\n    tag_192:\n      pop\n      pop\n      pop\n      pop\n      pop\n      swap1\n      dup1\n      0x02\n      add\n      sload\n      swap1\n      dup1\n      0x03\n      add\n      sload\n      swap1\n      pop\n      dup5\n      jump\t// out\n        /* \"contracts/new.sol\":218:244  uint  public vipseats = 50 */\n    tag_86:\n      sload(0x04)\n      dup2\n      jump\t// out\n        /* \"contracts/new.sol\":278:323  mapping (address => uint) public usertoTicket */\n    tag_91:\n      mstore(0x20, 0x06)\n      dup1\n      0x00\n      mstore\n      keccak256(0x00, 0x40)\n      0x00\n      swap2\n      pop\n      swap1\n      pop\n      sload\n      dup2\n      jump\t// out\n        /* \"contracts/new.sol\":1960:2613  function Buyvipseats(string memory _name,... */\n    tag_95:\n        /* \"contracts/new.sol\":2101:2110  ethforvip */\n      sload(0x02)\n        /* \"contracts/new.sol\":2088:2097  msg.value */\n      callvalue\n        /* \"contracts/new.sol\":2088:2110  msg.value == ethforvip */\n      eq\n        /* \"contracts/new.sol\":2080:2150  require(msg.value == ethforvip, \"you have to pay exact amount of eth\") */\n      tag_196\n      jumpi\n      mload(0x40)\n      0x08c379a000000000000000000000000000000000000000000000000000000000\n      dup2\n      mstore\n      0x04\n      add\n      tag_197\n      swap1\n      tag_116\n      jump\t// in\n    tag_197:\n      mload(0x40)\n      dup1\n      swap2\n      sub\n      swap1\n      revert\n    tag_196:\n        /* \"contracts/new.sol\":2180:2181  0 */\n      0x00\n        /* \"contracts/new.sol\":2169:2177  vipseats */\n      sload(0x04)\n        /* \"contracts/new.sol\":2169:2181  vipseats > 0 */\n      gt\n        /* \"contracts/new.sol\":2160:2199  require( vipseats > 0,\"seats are full\") */\n      tag_198\n      jumpi\n      mload(0x40)\n      0x08c379a000000000000000000000000000000000000000000000000000000000\n      dup2\n      mstore\n      0x04\n      add\n      tag_199\n      swap1\n      tag_119\n      jump\t// in\n    tag_199:\n      mload(0x40)\n      dup1\n      swap2\n      sub\n      swap1\n      revert\n    tag_198:\n        /* \"contracts/new.sol\":2248:2249  0 */\n      0x00\n        /* \"contracts/new.sol\":2217:2232  usertoVipTicket */\n      0x07\n        /* \"contracts/new.sol\":2217:2244  usertoVipTicket[msg.sender] */\n      0x00\n        /* \"contracts/new.sol\":2233:2243  msg.sender */\n      caller\n        /* \"contracts/new.sol\":2217:2244  usertoVipTicket[msg.sender] */\n      0xffffffffffffffffffffffffffffffffffffffff\n      and\n      0xffffffffffffffffffffffffffffffffffffffff\n      and\n      dup2\n      mstore\n      0x20\n      add\n      swap1\n      dup2\n      mstore\n      0x20\n      add\n      0x00\n      keccak256\n      sload\n        /* \"contracts/new.sol\":2217:2249  usertoVipTicket[msg.sender] == 0 */\n      eq\n        /* \"contracts/new.sol\":2209:2274  require(usertoVipTicket[msg.sender] == 0,\"you alredy own ticket\") */\n      tag_200\n      jumpi\n      mload(0x40)\n      0x08c379a000000000000000000000000000000000000000000000000000000000\n      dup2\n      mstore\n      0x04\n      add\n      tag_201\n      swap1\n      tag_202\n      jump\t// in\n    tag_201:\n      mload(0x40)\n      dup1\n      swap2\n      sub\n      swap1\n      revert\n    tag_200:\n        /* \"contracts/new.sol\":2294:2295  1 */\n      0x01\n        /* \"contracts/new.sol\":2283:2291  vipseats */\n      0x04\n      0x00\n        /* \"contracts/new.sol\":2283:2295  vipseats -=1 */\n      dup3\n      dup3\n      sload\n      tag_203\n      swap2\n      swap1\n      tag_124\n      jump\t// in\n    tag_203:\n      swap3\n      pop\n      pop\n      dup2\n      swap1\n      sstore\n      pop\n        /* \"contracts/new.sol\":2305:2321  uint VipTicketNo */\n      0x00\n        /* \"contracts/new.sol\":2329:2337  vipseats */\n      sload(0x04)\n        /* \"contracts/new.sol\":2324:2326  50 */\n      0x32\n        /* \"contracts/new.sol\":2324:2337  50 - vipseats */\n      tag_204\n      swap2\n      swap1\n      tag_124\n      jump\t// in\n    tag_204:\n        /* \"contracts/new.sol\":2305:2337  uint VipTicketNo = 50 - vipseats */\n      swap1\n      pop\n        /* \"contracts/new.sol\":2349:2359  vipdetails */\n      0x09\n        /* \"contracts/new.sol\":2365:2489  Ticket({... */\n      mload(0x40)\n      dup1\n      0x80\n      add\n      0x40\n      mstore\n      dup1\n        /* \"contracts/new.sol\":2389:2394  _name */\n      dup7\n        /* \"contracts/new.sol\":2365:2489  Ticket({... */\n      dup2\n      mstore\n      0x20\n      add\n        /* \"contracts/new.sol\":2412:2418  _email */\n      dup6\n        /* \"contracts/new.sol\":2365:2489  Ticket({... */\n      dup2\n      mstore\n      0x20\n      add\n        /* \"contracts/new.sol\":2438:2446  _phoneNo */\n      dup5\n        /* \"contracts/new.sol\":2365:2489  Ticket({... */\n      dup2\n      mstore\n      0x20\n      add\n        /* \"contracts/new.sol\":2467:2478  VipTicketNo */\n      dup4\n        /* \"contracts/new.sol\":2365:2489  Ticket({... */\n      dup2\n      mstore\n      pop\n        /* \"contracts/new.sol\":2349:2490  vipdetails.push(Ticket({... */\n      swap1\n      dup1\n      0x01\n      dup2\n      sload\n      add\n      dup1\n      dup3\n      sstore\n      dup1\n      swap2\n      pop\n      pop\n      0x01\n      swap1\n      sub\n      swap1\n      0x00\n      mstore\n      keccak256(0x00, 0x20)\n      swap1\n      0x04\n      mul\n      add\n      0x00\n      swap1\n      swap2\n      swap1\n      swap2\n      swap1\n      swap2\n      pop\n      0x00\n      dup3\n      add\n      mload\n      dup2\n      0x00\n      add\n      swap1\n      dup2\n      tag_206\n      swap2\n      swap1\n      tag_128\n      jump\t// in\n    tag_206:\n      pop\n      0x20\n      dup3\n      add\n      mload\n      dup2\n      0x01\n      add\n      swap1\n      dup2\n      tag_207\n      swap2\n      swap1\n      tag_128\n      jump\t// in\n    tag_207:\n      pop\n      0x40\n      dup3\n      add\n      mload\n      dup2\n      0x02\n      add\n      sstore\n      0x60\n      dup3\n      add\n      mload\n      dup2\n      0x03\n      add\n      sstore\n      pop\n      pop\n        /* \"contracts/new.sol\":2530:2541  VipTicketNo */\n      dup1\n        /* \"contracts/new.sol\":2500:2515  usertoVipTicket */\n      0x07\n        /* \"contracts/new.sol\":2500:2527  usertoVipTicket[msg.sender] */\n      0x00\n        /* \"contracts/new.sol\":2516:2526  msg.sender */\n      caller\n        /* \"contracts/new.sol\":2500:2527  usertoVipTicket[msg.sender] */\n      0xffffffffffffffffffffffffffffffffffffffff\n      and\n      0xffffffffffffffffffffffffffffffffffffffff\n      and\n      dup2\n      mstore\n      0x20\n      add\n      swap1\n      dup2\n      mstore\n      0x20\n      add\n      0x00\n      keccak256\n        /* \"contracts/new.sol\":2500:2541  usertoVipTicket[msg.sender] = VipTicketNo */\n      dup2\n      swap1\n      sstore\n      pop\n        /* \"contracts/new.sol\":2572:2582  msg.sender */\n      caller\n        /* \"contracts/new.sol\":2556:2607  PurchasedTicket(msg.sender,VipTicketNo , ethforvip) */\n      0xffffffffffffffffffffffffffffffffffffffff\n      and\n      0x7d1cd329a11d8807f0374627923b6cd32942b74b38b1accf931d70a507ff739e\n        /* \"contracts/new.sol\":2583:2594  VipTicketNo */\n      dup3\n        /* \"contracts/new.sol\":2597:2606  ethforvip */\n      sload(0x02)\n        /* \"contracts/new.sol\":2556:2607  PurchasedTicket(msg.sender,VipTicketNo , ethforvip) */\n      mload(0x40)\n      tag_208\n      swap3\n      swap2\n      swap1\n      tag_131\n      jump\t// in\n    tag_208:\n      mload(0x40)\n      dup1\n      swap2\n      sub\n      swap1\n      log2\n        /* \"contracts/new.sol\":2070:2613  {... */\n      pop\n        /* \"contracts/new.sol\":1960:2613  function Buyvipseats(string memory _name,... */\n      pop\n      pop\n      pop\n      jump\t// out\n        /* \"contracts/ownable.sol\":1571:1672  function transferOwnership(address newOwner) public onlyOwner {... */\n    tag_99:\n        /* \"contracts/ownable.sol\":844:853  isOwner() */\n      tag_210\n        /* \"contracts/ownable.sol\":844:851  isOwner */\n      tag_72\n        /* \"contracts/ownable.sol\":844:853  isOwner() */\n      jump\t// in\n    tag_210:\n        /* \"contracts/ownable.sol\":836:854  require(isOwner()) */\n      tag_211\n      jumpi\n      revert(0x00, 0x00)\n    tag_211:\n        /* \"contracts/ownable.sol\":1639:1667  _transferOwnership(newOwner) */\n      tag_213\n        /* \"contracts/ownable.sol\":1658:1666  newOwner */\n      dup2\n        /* \"contracts/ownable.sol\":1639:1657  _transferOwnership */\n      tag_214\n        /* \"contracts/ownable.sol\":1639:1667  _transferOwnership(newOwner) */\n      jump\t// in\n    tag_213:\n        /* \"contracts/ownable.sol\":1571:1672  function transferOwnership(address newOwner) public onlyOwner {... */\n      pop\n      jump\t// out\n        /* \"contracts/ownable.sol\":1803:1972  function _transferOwnership(address newOwner) internal {... */\n    tag_214:\n        /* \"contracts/ownable.sol\":1892:1893  0 */\n      0x00\n        /* \"contracts/ownable.sol\":1872:1894  newOwner != address(0) */\n      0xffffffffffffffffffffffffffffffffffffffff\n      and\n        /* \"contracts/ownable.sol\":1872:1880  newOwner */\n      dup2\n        /* \"contracts/ownable.sol\":1872:1894  newOwner != address(0) */\n      0xffffffffffffffffffffffffffffffffffffffff\n      and\n      sub\n        /* \"contracts/ownable.sol\":1864:1895  require(newOwner != address(0)) */\n      tag_216\n      jumpi\n      revert(0x00, 0x00)\n    tag_216:\n        /* \"contracts/ownable.sol\":1935:1943  newOwner */\n      dup1\n        /* \"contracts/ownable.sol\":1906:1944  OwnershipTransferred(_owner, newOwner) */\n      0xffffffffffffffffffffffffffffffffffffffff\n      and\n        /* \"contracts/ownable.sol\":1927:1933  _owner */\n      0x00\n      0x00\n      swap1\n      sload\n      swap1\n      0x0100\n      exp\n      swap1\n      div\n      0xffffffffffffffffffffffffffffffffffffffff\n      and\n        /* \"contracts/ownable.sol\":1906:1944  OwnershipTransferred(_owner, newOwner) */\n      0xffffffffffffffffffffffffffffffffffffffff\n      and\n      0x8be0079c531659141344cd1fd0a4f28419497f9722a3daafe3b4186f6b6457e0\n      mload(0x40)\n      mload(0x40)\n      dup1\n      swap2\n      sub\n      swap1\n      log3\n        /* \"contracts/ownable.sol\":1959:1967  newOwner */\n      dup1\n        /* \"contracts/ownable.sol\":1950:1956  _owner */\n      0x00\n      0x00\n        /* \"contracts/ownable.sol\":1950:1967  _owner = newOwner */\n      0x0100\n      exp\n      dup2\n      sload\n      dup2\n      0xffffffffffffffffffffffffffffffffffffffff\n      mul\n      not\n      and\n      swap1\n      dup4\n      0xffffffffffffffffffffffffffffffffffffffff\n      and\n      mul\n      or\n      swap1\n      sstore\n      pop\n        /* \"contracts/ownable.sol\":1803:1972  function _transferOwnership(address newOwner) internal {... */\n      pop\n      jump\t// out\n        /* \"#utility.yul\":7:82   */\n    tag_217:\n        /* \"#utility.yul\":40:46   */\n      0x00\n        /* \"#utility.yul\":73:75   */\n      0x40\n        /* \"#utility.yul\":67:76   */\n      mload\n        /* \"#utility.yul\":57:76   */\n      swap1\n      pop\n        /* \"#utility.yul\":7:82   */\n      swap1\n      jump\t// out\n        /* \"#utility.yul\":88:205   */\n    tag_218:\n        /* \"#utility.yul\":197:198   */\n      0x00\n        /* \"#utility.yul\":194:195   */\n      0x00\n        /* \"#utility.yul\":187:199   */\n      revert\n        /* \"#utility.yul\":211:328   */\n    tag_219:\n        /* \"#utility.yul\":320:321   */\n      0x00\n        /* \"#utility.yul\":317:318   */\n      0x00\n        /* \"#utility.yul\":310:322   */\n      revert\n        /* \"#utility.yul\":334:411   */\n    tag_220:\n        /* \"#utility.yul\":371:378   */\n      0x00\n        /* \"#utility.yul\":400:405   */\n      dup2\n        /* \"#utility.yul\":389:405   */\n      swap1\n      pop\n        /* \"#utility.yul\":334:411   */\n      swap2\n      swap1\n      pop\n      jump\t// out\n        /* \"#utility.yul\":417:539   */\n    tag_221:\n        /* \"#utility.yul\":490:514   */\n      tag_287\n        /* \"#utility.yul\":508:513   */\n      dup2\n        /* \"#utility.yul\":490:514   */\n      tag_220\n      jump\t// in\n    tag_287:\n        /* \"#utility.yul\":483:488   */\n      dup2\n        /* \"#utility.yul\":480:515   */\n      eq\n        /* \"#utility.yul\":470:533   */\n      tag_288\n      jumpi\n        /* \"#utility.yul\":529:530   */\n      0x00\n        /* \"#utility.yul\":526:527   */\n      0x00\n        /* \"#utility.yul\":519:531   */\n      revert\n        /* \"#utility.yul\":470:533   */\n    tag_288:\n        /* \"#utility.yul\":417:539   */\n      pop\n      jump\t// out\n        /* \"#utility.yul\":545:684   */\n    tag_222:\n        /* \"#utility.yul\":591:596   */\n      0x00\n        /* \"#utility.yul\":629:635   */\n      dup2\n        /* \"#utility.yul\":616:636   */\n      calldataload\n        /* \"#utility.yul\":607:636   */\n      swap1\n      pop\n        /* \"#utility.yul\":645:678   */\n      tag_290\n        /* \"#utility.yul\":672:677   */\n      dup2\n        /* \"#utility.yul\":645:678   */\n      tag_221\n      jump\t// in\n    tag_290:\n        /* \"#utility.yul\":545:684   */\n      swap3\n      swap2\n      pop\n      pop\n      jump\t// out\n        /* \"#utility.yul\":690:1019   */\n    tag_26:\n        /* \"#utility.yul\":749:755   */\n      0x00\n        /* \"#utility.yul\":798:800   */\n      0x20\n        /* \"#utility.yul\":786:795   */\n      dup3\n        /* \"#utility.yul\":777:784   */\n      dup5\n        /* \"#utility.yul\":773:796   */\n      sub\n        /* \"#utility.yul\":769:801   */\n      slt\n        /* \"#utility.yul\":766:885   */\n      iszero\n      tag_292\n      jumpi\n        /* \"#utility.yul\":804:883   */\n      tag_293\n      tag_218\n      jump\t// in\n    tag_293:\n        /* \"#utility.yul\":766:885   */\n    tag_292:\n        /* \"#utility.yul\":924:925   */\n      0x00\n        /* \"#utility.yul\":949:1002   */\n      tag_294\n        /* \"#utility.yul\":994:1001   */\n      dup5\n        /* \"#utility.yul\":985:991   */\n      dup3\n        /* \"#utility.yul\":974:983   */\n      dup6\n        /* \"#utility.yul\":970:992   */\n      add\n        /* \"#utility.yul\":949:1002   */\n      tag_222\n      jump\t// in\n    tag_294:\n        /* \"#utility.yul\":939:1002   */\n      swap2\n      pop\n        /* \"#utility.yul\":895:1012   */\n      pop\n        /* \"#utility.yul\":690:1019   */\n      swap3\n      swap2\n      pop\n      pop\n      jump\t// out\n        /* \"#utility.yul\":1025:1124   */\n    tag_223:\n        /* \"#utility.yul\":1077:1083   */\n      0x00\n        /* \"#utility.yul\":1111:1116   */\n      dup2\n        /* \"#utility.yul\":1105:1117   */\n      mload\n        /* \"#utility.yul\":1095:1117   */\n      swap1\n      pop\n        /* \"#utility.yul\":1025:1124   */\n      swap2\n      swap1\n      pop\n      jump\t// out\n        /* \"#utility.yul\":1130:1299   */\n    tag_224:\n        /* \"#utility.yul\":1214:1225   */\n      0x00\n        /* \"#utility.yul\":1248:1254   */\n      dup3\n        /* \"#utility.yul\":1243:1246   */\n      dup3\n        /* \"#utility.yul\":1236:1255   */\n      mstore\n        /* \"#utility.yul\":1288:1292   */\n      0x20\n        /* \"#utility.yul\":1283:1286   */\n      dup3\n        /* \"#utility.yul\":1279:1293   */\n      add\n        /* \"#utility.yul\":1264:1293   */\n      swap1\n      pop\n        /* \"#utility.yul\":1130:1299   */\n      swap3\n      swap2\n      pop\n      pop\n      jump\t// out\n        /* \"#utility.yul\":1305:1444   */\n    tag_225:\n        /* \"#utility.yul\":1394:1400   */\n      dup3\n        /* \"#utility.yul\":1389:1392   */\n      dup2\n        /* \"#utility.yul\":1384:1387   */\n      dup4\n        /* \"#utility.yul\":1378:1401   */\n      mcopy\n        /* \"#utility.yul\":1435:1436   */\n      0x00\n        /* \"#utility.yul\":1426:1432   */\n      dup4\n        /* \"#utility.yul\":1421:1424   */\n      dup4\n        /* \"#utility.yul\":1417:1433   */\n      add\n        /* \"#utility.yul\":1410:1437   */\n      mstore\n        /* \"#utility.yul\":1305:1444   */\n      pop\n      pop\n      pop\n      jump\t// out\n        /* \"#utility.yul\":1450:1552   */\n    tag_226:\n        /* \"#utility.yul\":1491:1497   */\n      0x00\n        /* \"#utility.yul\":1542:1544   */\n      0x1f\n        /* \"#utility.yul\":1538:1545   */\n      not\n        /* \"#utility.yul\":1533:1535   */\n      0x1f\n        /* \"#utility.yul\":1526:1531   */\n      dup4\n        /* \"#utility.yul\":1522:1536   */\n      add\n        /* \"#utility.yul\":1518:1546   */\n      and\n        /* \"#utility.yul\":1508:1546   */\n      swap1\n      pop\n        /* \"#utility.yul\":1450:1552   */\n      swap2\n      swap1\n      pop\n      jump\t// out\n        /* \"#utility.yul\":1558:1935   */\n    tag_227:\n        /* \"#utility.yul\":1646:1649   */\n      0x00\n        /* \"#utility.yul\":1674:1713   */\n      tag_300\n        /* \"#utility.yul\":1707:1712   */\n      dup3\n        /* \"#utility.yul\":1674:1713   */\n      tag_223\n      jump\t// in\n    tag_300:\n        /* \"#utility.yul\":1729:1800   */\n      tag_301\n        /* \"#utility.yul\":1793:1799   */\n      dup2\n        /* \"#utility.yul\":1788:1791   */\n      dup6\n        /* \"#utility.yul\":1729:1800   */\n      tag_224\n      jump\t// in\n    tag_301:\n        /* \"#utility.yul\":1722:1800   */\n      swap4\n      pop\n        /* \"#utility.yul\":1809:1874   */\n      tag_302\n        /* \"#utility.yul\":1867:1873   */\n      dup2\n        /* \"#utility.yul\":1862:1865   */\n      dup6\n        /* \"#utility.yul\":1855:1859   */\n      0x20\n        /* \"#utility.yul\":1848:1853   */\n      dup7\n        /* \"#utility.yul\":1844:1860   */\n      add\n        /* \"#utility.yul\":1809:1874   */\n      tag_225\n      jump\t// in\n    tag_302:\n        /* \"#utility.yul\":1899:1928   */\n      tag_303\n        /* \"#utility.yul\":1921:1927   */\n      dup2\n        /* \"#utility.yul\":1899:1928   */\n      tag_226\n      jump\t// in\n    tag_303:\n        /* \"#utility.yul\":1894:1897   */\n      dup5\n        /* \"#utility.yul\":1890:1929   */\n      add\n        /* \"#utility.yul\":1883:1929   */\n      swap2\n      pop\n        /* \"#utility.yul\":1650:1935   */\n      pop\n        /* \"#utility.yul\":1558:1935   */\n      swap3\n      swap2\n      pop\n      pop\n      jump\t// out\n        /* \"#utility.yul\":1941:2059   */\n    tag_228:\n        /* \"#utility.yul\":2028:2052   */\n      tag_305\n        /* \"#utility.yul\":2046:2051   */\n      dup2\n        /* \"#utility.yul\":2028:2052   */\n      tag_220\n      jump\t// in\n    tag_305:\n        /* \"#utility.yul\":2023:2026   */\n      dup3\n        /* \"#utility.yul\":2016:2053   */\n      mstore\n        /* \"#utility.yul\":1941:2059   */\n      pop\n      pop\n      jump\t// out\n        /* \"#utility.yul\":2065:2800   */\n    tag_29:\n        /* \"#utility.yul\":2282:2286   */\n      0x00\n        /* \"#utility.yul\":2320:2323   */\n      0x80\n        /* \"#utility.yul\":2309:2318   */\n      dup3\n        /* \"#utility.yul\":2305:2324   */\n      add\n        /* \"#utility.yul\":2297:2324   */\n      swap1\n      pop\n        /* \"#utility.yul\":2370:2379   */\n      dup2\n        /* \"#utility.yul\":2364:2368   */\n      dup2\n        /* \"#utility.yul\":2360:2380   */\n      sub\n        /* \"#utility.yul\":2356:2357   */\n      0x00\n        /* \"#utility.yul\":2345:2354   */\n      dup4\n        /* \"#utility.yul\":2341:2358   */\n      add\n        /* \"#utility.yul\":2334:2381   */\n      mstore\n        /* \"#utility.yul\":2398:2476   */\n      tag_307\n        /* \"#utility.yul\":2471:2475   */\n      dup2\n        /* \"#utility.yul\":2462:2468   */\n      dup8\n        /* \"#utility.yul\":2398:2476   */\n      tag_227\n      jump\t// in\n    tag_307:\n        /* \"#utility.yul\":2390:2476   */\n      swap1\n      pop\n        /* \"#utility.yul\":2523:2532   */\n      dup2\n        /* \"#utility.yul\":2517:2521   */\n      dup2\n        /* \"#utility.yul\":2513:2533   */\n      sub\n        /* \"#utility.yul\":2508:2510   */\n      0x20\n        /* \"#utility.yul\":2497:2506   */\n      dup4\n        /* \"#utility.yul\":2493:2511   */\n      add\n        /* \"#utility.yul\":2486:2534   */\n      mstore\n        /* \"#utility.yul\":2551:2629   */\n      tag_308\n        /* \"#utility.yul\":2624:2628   */\n      dup2\n        /* \"#utility.yul\":2615:2621   */\n      dup7\n        /* \"#utility.yul\":2551:2629   */\n      tag_227\n      jump\t// in\n    tag_308:\n        /* \"#utility.yul\":2543:2629   */\n      swap1\n      pop\n        /* \"#utility.yul\":2639:2711   */\n      tag_309\n        /* \"#utility.yul\":2707:2709   */\n      0x40\n        /* \"#utility.yul\":2696:2705   */\n      dup4\n        /* \"#utility.yul\":2692:2710   */\n      add\n        /* \"#utility.yul\":2683:2689   */\n      dup6\n        /* \"#utility.yul\":2639:2711   */\n      tag_228\n      jump\t// in\n    tag_309:\n        /* \"#utility.yul\":2721:2793   */\n      tag_310\n        /* \"#utility.yul\":2789:2791   */\n      0x60\n        /* \"#utility.yul\":2778:2787   */\n      dup4\n        /* \"#utility.yul\":2774:2792   */\n      add\n        /* \"#utility.yul\":2765:2771   */\n      dup5\n        /* \"#utility.yul\":2721:2793   */\n      tag_228\n      jump\t// in\n    tag_310:\n        /* \"#utility.yul\":2065:2800   */\n      swap6\n      swap5\n      pop\n      pop\n      pop\n      pop\n      pop\n      jump\t// out\n        /* \"#utility.yul\":2806:2923   */\n    tag_229:\n        /* \"#utility.yul\":2915:2916   */\n      0x00\n        /* \"#utility.yul\":2912:2913   */\n      0x00\n        /* \"#utility.yul\":2905:2917   */\n      revert\n        /* \"#utility.yul\":2929:3046   */\n    tag_230:\n        /* \"#utility.yul\":3038:3039   */\n      0x00\n        /* \"#utility.yul\":3035:3036   */\n      0x00\n        /* \"#utility.yul\":3028:3040   */\n      revert\n        /* \"#utility.yul\":3052:3232   */\n    tag_231:\n        /* \"#utility.yul\":3100:3177   */\n      0x4e487b7100000000000000000000000000000000000000000000000000000000\n        /* \"#utility.yul\":3097:3098   */\n      0x00\n        /* \"#utility.yul\":3090:3178   */\n      mstore\n        /* \"#utility.yul\":3197:3201   */\n      0x41\n        /* \"#utility.yul\":3194:3195   */\n      0x04\n        /* \"#utility.yul\":3187:3202   */\n      mstore\n        /* \"#utility.yul\":3221:3225   */\n      0x24\n        /* \"#utility.yul\":3218:3219   */\n      0x00\n        /* \"#utility.yul\":3211:3226   */\n      revert\n        /* \"#utility.yul\":3238:3519   */\n    tag_232:\n        /* \"#utility.yul\":3321:3348   */\n      tag_315\n        /* \"#utility.yul\":3343:3347   */\n      dup3\n        /* \"#utility.yul\":3321:3348   */\n      tag_226\n      jump\t// in\n    tag_315:\n        /* \"#utility.yul\":3313:3319   */\n      dup2\n        /* \"#utility.yul\":3309:3349   */\n      add\n        /* \"#utility.yul\":3451:3457   */\n      dup2\n        /* \"#utility.yul\":3439:3449   */\n      dup2\n        /* \"#utility.yul\":3436:3458   */\n      lt\n        /* \"#utility.yul\":3415:3433   */\n      0xffffffffffffffff\n        /* \"#utility.yul\":3403:3413   */\n      dup3\n        /* \"#utility.yul\":3400:3434   */\n      gt\n        /* \"#utility.yul\":3397:3459   */\n      or\n        /* \"#utility.yul\":3394:3482   */\n      iszero\n      tag_316\n      jumpi\n        /* \"#utility.yul\":3462:3480   */\n      tag_317\n      tag_231\n      jump\t// in\n    tag_317:\n        /* \"#utility.yul\":3394:3482   */\n    tag_316:\n        /* \"#utility.yul\":3502:3512   */\n      dup1\n        /* \"#utility.yul\":3498:3500   */\n      0x40\n        /* \"#utility.yul\":3491:3513   */\n      mstore\n        /* \"#utility.yul\":3281:3519   */\n      pop\n        /* \"#utility.yul\":3238:3519   */\n      pop\n      pop\n      jump\t// out\n        /* \"#utility.yul\":3525:3654   */\n    tag_233:\n        /* \"#utility.yul\":3559:3565   */\n      0x00\n        /* \"#utility.yul\":3586:3606   */\n      tag_319\n      tag_217\n      jump\t// in\n    tag_319:\n        /* \"#utility.yul\":3576:3606   */\n      swap1\n      pop\n        /* \"#utility.yul\":3615:3648   */\n      tag_320\n        /* \"#utility.yul\":3643:3647   */\n      dup3\n        /* \"#utility.yul\":3635:3641   */\n      dup3\n        /* \"#utility.yul\":3615:3648   */\n      tag_232\n      jump\t// in\n    tag_320:\n        /* \"#utility.yul\":3525:3654   */\n      swap2\n      swap1\n      pop\n      jump\t// out\n        /* \"#utility.yul\":3660:3968   */\n    tag_234:\n        /* \"#utility.yul\":3722:3726   */\n      0x00\n        /* \"#utility.yul\":3812:3830   */\n      0xffffffffffffffff\n        /* \"#utility.yul\":3804:3810   */\n      dup3\n        /* \"#utility.yul\":3801:3831   */\n      gt\n        /* \"#utility.yul\":3798:3854   */\n      iszero\n      tag_322\n      jumpi\n        /* \"#utility.yul\":3834:3852   */\n      tag_323\n      tag_231\n      jump\t// in\n    tag_323:\n        /* \"#utility.yul\":3798:3854   */\n    tag_322:\n        /* \"#utility.yul\":3872:3901   */\n      tag_324\n        /* \"#utility.yul\":3894:3900   */\n      dup3\n        /* \"#utility.yul\":3872:3901   */\n      tag_226\n      jump\t// in\n    tag_324:\n        /* \"#utility.yul\":3864:3901   */\n      swap1\n      pop\n        /* \"#utility.yul\":3956:3960   */\n      0x20\n        /* \"#utility.yul\":3950:3954   */\n      dup2\n        /* \"#utility.yul\":3946:3961   */\n      add\n        /* \"#utility.yul\":3938:3961   */\n      swap1\n      pop\n        /* \"#utility.yul\":3660:3968   */\n      swap2\n      swap1\n      pop\n      jump\t// out\n        /* \"#utility.yul\":3974:4122   */\n    tag_235:\n        /* \"#utility.yul\":4072:4078   */\n      dup3\n        /* \"#utility.yul\":4067:4070   */\n      dup2\n        /* \"#utility.yul\":4062:4065   */\n      dup4\n        /* \"#utility.yul\":4049:4079   */\n      calldatacopy\n        /* \"#utility.yul\":4113:4114   */\n      0x00\n        /* \"#utility.yul\":4104:4110   */\n      dup4\n        /* \"#utility.yul\":4099:4102   */\n      dup4\n        /* \"#utility.yul\":4095:4111   */\n      add\n        /* \"#utility.yul\":4088:4115   */\n      mstore\n        /* \"#utility.yul\":3974:4122   */\n      pop\n      pop\n      pop\n      jump\t// out\n        /* \"#utility.yul\":4128:4553   */\n    tag_236:\n        /* \"#utility.yul\":4206:4211   */\n      0x00\n        /* \"#utility.yul\":4231:4297   */\n      tag_327\n        /* \"#utility.yul\":4247:4296   */\n      tag_328\n        /* \"#utility.yul\":4289:4295   */\n      dup5\n        /* \"#utility.yul\":4247:4296   */\n      tag_234\n      jump\t// in\n    tag_328:\n        /* \"#utility.yul\":4231:4297   */\n      tag_233\n      jump\t// in\n    tag_327:\n        /* \"#utility.yul\":4222:4297   */\n      swap1\n      pop\n        /* \"#utility.yul\":4320:4326   */\n      dup3\n        /* \"#utility.yul\":4313:4318   */\n      dup2\n        /* \"#utility.yul\":4306:4327   */\n      mstore\n        /* \"#utility.yul\":4358:4362   */\n      0x20\n        /* \"#utility.yul\":4351:4356   */\n      dup2\n        /* \"#utility.yul\":4347:4363   */\n      add\n        /* \"#utility.yul\":4396:4399   */\n      dup5\n        /* \"#utility.yul\":4387:4393   */\n      dup5\n        /* \"#utility.yul\":4382:4385   */\n      dup5\n        /* \"#utility.yul\":4378:4394   */\n      add\n        /* \"#utility.yul\":4375:4400   */\n      gt\n        /* \"#utility.yul\":4372:4484   */\n      iszero\n      tag_329\n      jumpi\n        /* \"#utility.yul\":4403:4482   */\n      tag_330\n      tag_230\n      jump\t// in\n    tag_330:\n        /* \"#utility.yul\":4372:4484   */\n    tag_329:\n        /* \"#utility.yul\":4493:4547   */\n      tag_331\n        /* \"#utility.yul\":4540:4546   */\n      dup5\n        /* \"#utility.yul\":4535:4538   */\n      dup3\n        /* \"#utility.yul\":4530:4533   */\n      dup6\n        /* \"#utility.yul\":4493:4547   */\n      tag_235\n      jump\t// in\n    tag_331:\n        /* \"#utility.yul\":4212:4553   */\n      pop\n        /* \"#utility.yul\":4128:4553   */\n      swap4\n      swap3\n      pop\n      pop\n      pop\n      jump\t// out\n        /* \"#utility.yul\":4573:4913   */\n    tag_237:\n        /* \"#utility.yul\":4629:4634   */\n      0x00\n        /* \"#utility.yul\":4678:4681   */\n      dup3\n        /* \"#utility.yul\":4671:4675   */\n      0x1f\n        /* \"#utility.yul\":4663:4669   */\n      dup4\n        /* \"#utility.yul\":4659:4676   */\n      add\n        /* \"#utility.yul\":4655:4682   */\n      slt\n        /* \"#utility.yul\":4645:4767   */\n      tag_333\n      jumpi\n        /* \"#utility.yul\":4686:4765   */\n      tag_334\n      tag_229\n      jump\t// in\n    tag_334:\n        /* \"#utility.yul\":4645:4767   */\n    tag_333:\n        /* \"#utility.yul\":4803:4809   */\n      dup2\n        /* \"#utility.yul\":4790:4810   */\n      calldataload\n        /* \"#utility.yul\":4828:4907   */\n      tag_335\n        /* \"#utility.yul\":4903:4906   */\n      dup5\n        /* \"#utility.yul\":4895:4901   */\n      dup3\n        /* \"#utility.yul\":4888:4892   */\n      0x20\n        /* \"#utility.yul\":4880:4886   */\n      dup7\n        /* \"#utility.yul\":4876:4893   */\n      add\n        /* \"#utility.yul\":4828:4907   */\n      tag_236\n      jump\t// in\n    tag_335:\n        /* \"#utility.yul\":4819:4907   */\n      swap2\n      pop\n        /* \"#utility.yul\":4635:4913   */\n      pop\n        /* \"#utility.yul\":4573:4913   */\n      swap3\n      swap2\n      pop\n      pop\n      jump\t// out\n        /* \"#utility.yul\":4919:5898   */\n    tag_32:\n        /* \"#utility.yul\":5016:5022   */\n      0x00\n        /* \"#utility.yul\":5024:5030   */\n      0x00\n        /* \"#utility.yul\":5032:5038   */\n      0x00\n        /* \"#utility.yul\":5081:5083   */\n      0x60\n        /* \"#utility.yul\":5069:5078   */\n      dup5\n        /* \"#utility.yul\":5060:5067   */\n      dup7\n        /* \"#utility.yul\":5056:5079   */\n      sub\n        /* \"#utility.yul\":5052:5084   */\n      slt\n        /* \"#utility.yul\":5049:5168   */\n      iszero\n      tag_337\n      jumpi\n        /* \"#utility.yul\":5087:5166   */\n      tag_338\n      tag_218\n      jump\t// in\n    tag_338:\n        /* \"#utility.yul\":5049:5168   */\n    tag_337:\n        /* \"#utility.yul\":5235:5236   */\n      0x00\n        /* \"#utility.yul\":5224:5233   */\n      dup5\n        /* \"#utility.yul\":5220:5237   */\n      add\n        /* \"#utility.yul\":5207:5238   */\n      calldataload\n        /* \"#utility.yul\":5265:5283   */\n      0xffffffffffffffff\n        /* \"#utility.yul\":5257:5263   */\n      dup2\n        /* \"#utility.yul\":5254:5284   */\n      gt\n        /* \"#utility.yul\":5251:5368   */\n      iszero\n      tag_339\n      jumpi\n        /* \"#utility.yul\":5287:5366   */\n      tag_340\n      tag_219\n      jump\t// in\n    tag_340:\n        /* \"#utility.yul\":5251:5368   */\n    tag_339:\n        /* \"#utility.yul\":5392:5455   */\n      tag_341\n        /* \"#utility.yul\":5447:5454   */\n      dup7\n        /* \"#utility.yul\":5438:5444   */\n      dup3\n        /* \"#utility.yul\":5427:5436   */\n      dup8\n        /* \"#utility.yul\":5423:5445   */\n      add\n        /* \"#utility.yul\":5392:5455   */\n      tag_237\n      jump\t// in\n    tag_341:\n        /* \"#utility.yul\":5382:5455   */\n      swap4\n      pop\n        /* \"#utility.yul\":5178:5465   */\n      pop\n        /* \"#utility.yul\":5532:5534   */\n      0x20\n        /* \"#utility.yul\":5521:5530   */\n      dup5\n        /* \"#utility.yul\":5517:5535   */\n      add\n        /* \"#utility.yul\":5504:5536   */\n      calldataload\n        /* \"#utility.yul\":5563:5581   */\n      0xffffffffffffffff\n        /* \"#utility.yul\":5555:5561   */\n      dup2\n        /* \"#utility.yul\":5552:5582   */\n      gt\n        /* \"#utility.yul\":5549:5666   */\n      iszero\n      tag_342\n      jumpi\n        /* \"#utility.yul\":5585:5664   */\n      tag_343\n      tag_219\n      jump\t// in\n    tag_343:\n        /* \"#utility.yul\":5549:5666   */\n    tag_342:\n        /* \"#utility.yul\":5690:5753   */\n      tag_344\n        /* \"#utility.yul\":5745:5752   */\n      dup7\n        /* \"#utility.yul\":5736:5742   */\n      dup3\n        /* \"#utility.yul\":5725:5734   */\n      dup8\n        /* \"#utility.yul\":5721:5743   */\n      add\n        /* \"#utility.yul\":5690:5753   */\n      tag_237\n      jump\t// in\n    tag_344:\n        /* \"#utility.yul\":5680:5753   */\n      swap3\n      pop\n        /* \"#utility.yul\":5475:5763   */\n      pop\n        /* \"#utility.yul\":5802:5804   */\n      0x40\n        /* \"#utility.yul\":5828:5881   */\n      tag_345\n        /* \"#utility.yul\":5873:5880   */\n      dup7\n        /* \"#utility.yul\":5864:5870   */\n      dup3\n        /* \"#utility.yul\":5853:5862   */\n      dup8\n        /* \"#utility.yul\":5849:5871   */\n      add\n        /* \"#utility.yul\":5828:5881   */\n      tag_222\n      jump\t// in\n    tag_345:\n        /* \"#utility.yul\":5818:5881   */\n      swap2\n      pop\n        /* \"#utility.yul\":5773:5891   */\n      pop\n        /* \"#utility.yul\":4919:5898   */\n      swap3\n      pop\n      swap3\n      pop\n      swap3\n      jump\t// out\n        /* \"#utility.yul\":5904:6126   */\n    tag_41:\n        /* \"#utility.yul\":5997:6001   */\n      0x00\n        /* \"#utility.yul\":6035:6037   */\n      0x20\n        /* \"#utility.yul\":6024:6033   */\n      dup3\n        /* \"#utility.yul\":6020:6038   */\n      add\n        /* \"#utility.yul\":6012:6038   */\n      swap1\n      pop\n        /* \"#utility.yul\":6048:6119   */\n      tag_347\n        /* \"#utility.yul\":6116:6117   */\n      0x00\n        /* \"#utility.yul\":6105:6114   */\n      dup4\n        /* \"#utility.yul\":6101:6118   */\n      add\n        /* \"#utility.yul\":6092:6098   */\n      dup5\n        /* \"#utility.yul\":6048:6119   */\n      tag_228\n      jump\t// in\n    tag_347:\n        /* \"#utility.yul\":5904:6126   */\n      swap3\n      swap2\n      pop\n      pop\n      jump\t// out\n        /* \"#utility.yul\":6132:6258   */\n    tag_238:\n        /* \"#utility.yul\":6169:6176   */\n      0x00\n        /* \"#utility.yul\":6209:6251   */\n      0xffffffffffffffffffffffffffffffffffffffff\n        /* \"#utility.yul\":6202:6207   */\n      dup3\n        /* \"#utility.yul\":6198:6252   */\n      and\n        /* \"#utility.yul\":6187:6252   */\n      swap1\n      pop\n        /* \"#utility.yul\":6132:6258   */\n      swap2\n      swap1\n      pop\n      jump\t// out\n        /* \"#utility.yul\":6264:6360   */\n    tag_239:\n        /* \"#utility.yul\":6301:6308   */\n      0x00\n        /* \"#utility.yul\":6330:6354   */\n      tag_350\n        /* \"#utility.yul\":6348:6353   */\n      dup3\n        /* \"#utility.yul\":6330:6354   */\n      tag_238\n      jump\t// in\n    tag_350:\n        /* \"#utility.yul\":6319:6354   */\n      swap1\n      pop\n        /* \"#utility.yul\":6264:6360   */\n      swap2\n      swap1\n      pop\n      jump\t// out\n        /* \"#utility.yul\":6366:6488   */\n    tag_240:\n        /* \"#utility.yul\":6439:6463   */\n      tag_352\n        /* \"#utility.yul\":6457:6462   */\n      dup2\n        /* \"#utility.yul\":6439:6463   */\n      tag_239\n      jump\t// in\n    tag_352:\n        /* \"#utility.yul\":6432:6437   */\n      dup2\n        /* \"#utility.yul\":6429:6464   */\n      eq\n        /* \"#utility.yul\":6419:6482   */\n      tag_353\n      jumpi\n        /* \"#utility.yul\":6478:6479   */\n      0x00\n        /* \"#utility.yul\":6475:6476   */\n      0x00\n        /* \"#utility.yul\":6468:6480   */\n      revert\n        /* \"#utility.yul\":6419:6482   */\n    tag_353:\n        /* \"#utility.yul\":6366:6488   */\n      pop\n      jump\t// out\n        /* \"#utility.yul\":6494:6633   */\n    tag_241:\n        /* \"#utility.yul\":6540:6545   */\n      0x00\n        /* \"#utility.yul\":6578:6584   */\n      dup2\n        /* \"#utility.yul\":6565:6585   */\n      calldataload\n        /* \"#utility.yul\":6556:6585   */\n      swap1\n      pop\n        /* \"#utility.yul\":6594:6627   */\n      tag_355\n        /* \"#utility.yul\":6621:6626   */\n      dup2\n        /* \"#utility.yul\":6594:6627   */\n      tag_240\n      jump\t// in\n    tag_355:\n        /* \"#utility.yul\":6494:6633   */\n      swap3\n      swap2\n      pop\n      pop\n      jump\t// out\n        /* \"#utility.yul\":6639:6968   */\n    tag_58:\n        /* \"#utility.yul\":6698:6704   */\n      0x00\n        /* \"#utility.yul\":6747:6749   */\n      0x20\n        /* \"#utility.yul\":6735:6744   */\n      dup3\n        /* \"#utility.yul\":6726:6733   */\n      dup5\n        /* \"#utility.yul\":6722:6745   */\n      sub\n        /* \"#utility.yul\":6718:6750   */\n      slt\n        /* \"#utility.yul\":6715:6834   */\n      iszero\n      tag_357\n      jumpi\n        /* \"#utility.yul\":6753:6832   */\n      tag_358\n      tag_218\n      jump\t// in\n    tag_358:\n        /* \"#utility.yul\":6715:6834   */\n    tag_357:\n        /* \"#utility.yul\":6873:6874   */\n      0x00\n        /* \"#utility.yul\":6898:6951   */\n      tag_359\n        /* \"#utility.yul\":6943:6950   */\n      dup5\n        /* \"#utility.yul\":6934:6940   */\n      dup3\n        /* \"#utility.yul\":6923:6932   */\n      dup6\n        /* \"#utility.yul\":6919:6941   */\n      add\n        /* \"#utility.yul\":6898:6951   */\n      tag_241\n      jump\t// in\n    tag_359:\n        /* \"#utility.yul\":6888:6951   */\n      swap2\n      pop\n        /* \"#utility.yul\":6844:6961   */\n      pop\n        /* \"#utility.yul\":6639:6968   */\n      swap3\n      swap2\n      pop\n      pop\n      jump\t// out\n        /* \"#utility.yul\":6974:7092   */\n    tag_242:\n        /* \"#utility.yul\":7061:7085   */\n      tag_361\n        /* \"#utility.yul\":7079:7084   */\n      dup2\n        /* \"#utility.yul\":7061:7085   */\n      tag_239\n      jump\t// in\n    tag_361:\n        /* \"#utility.yul\":7056:7059   */\n      dup3\n        /* \"#utility.yul\":7049:7086   */\n      mstore\n        /* \"#utility.yul\":6974:7092   */\n      pop\n      pop\n      jump\t// out\n        /* \"#utility.yul\":7098:7320   */\n    tag_69:\n        /* \"#utility.yul\":7191:7195   */\n      0x00\n        /* \"#utility.yul\":7229:7231   */\n      0x20\n        /* \"#utility.yul\":7218:7227   */\n      dup3\n        /* \"#utility.yul\":7214:7232   */\n      add\n        /* \"#utility.yul\":7206:7232   */\n      swap1\n      pop\n        /* \"#utility.yul\":7242:7313   */\n      tag_363\n        /* \"#utility.yul\":7310:7311   */\n      0x00\n        /* \"#utility.yul\":7299:7308   */\n      dup4\n        /* \"#utility.yul\":7295:7312   */\n      add\n        /* \"#utility.yul\":7286:7292   */\n      dup5\n        /* \"#utility.yul\":7242:7313   */\n      tag_242\n      jump\t// in\n    tag_363:\n        /* \"#utility.yul\":7098:7320   */\n      swap3\n      swap2\n      pop\n      pop\n      jump\t// out\n        /* \"#utility.yul\":7326:7416   */\n    tag_243:\n        /* \"#utility.yul\":7360:7367   */\n      0x00\n        /* \"#utility.yul\":7403:7408   */\n      dup2\n        /* \"#utility.yul\":7396:7409   */\n      iszero\n        /* \"#utility.yul\":7389:7410   */\n      iszero\n        /* \"#utility.yul\":7378:7410   */\n      swap1\n      pop\n        /* \"#utility.yul\":7326:7416   */\n      swap2\n      swap1\n      pop\n      jump\t// out\n        /* \"#utility.yul\":7422:7531   */\n    tag_244:\n        /* \"#utility.yul\":7503:7524   */\n      tag_366\n        /* \"#utility.yul\":7518:7523   */\n      dup2\n        /* \"#utility.yul\":7503:7524   */\n      tag_243\n      jump\t// in\n    tag_366:\n        /* \"#utility.yul\":7498:7501   */\n      dup3\n        /* \"#utility.yul\":7491:7525   */\n      mstore\n        /* \"#utility.yul\":7422:7531   */\n      pop\n      pop\n      jump\t// out\n        /* \"#utility.yul\":7537:7747   */\n    tag_74:\n        /* \"#utility.yul\":7624:7628   */\n      0x00\n        /* \"#utility.yul\":7662:7664   */\n      0x20\n        /* \"#utility.yul\":7651:7660   */\n      dup3\n        /* \"#utility.yul\":7647:7665   */\n      add\n        /* \"#utility.yul\":7639:7665   */\n      swap1\n      pop\n        /* \"#utility.yul\":7675:7740   */\n      tag_368\n        /* \"#utility.yul\":7737:7738   */\n      0x00\n        /* \"#utility.yul\":7726:7735   */\n      dup4\n        /* \"#utility.yul\":7722:7739   */\n      add\n        /* \"#utility.yul\":7713:7719   */\n      dup5\n        /* \"#utility.yul\":7675:7740   */\n      tag_244\n      jump\t// in\n    tag_368:\n        /* \"#utility.yul\":7537:7747   */\n      swap3\n      swap2\n      pop\n      pop\n      jump\t// out\n        /* \"#utility.yul\":7753:7933   */\n    tag_245:\n        /* \"#utility.yul\":7801:7878   */\n      0x4e487b7100000000000000000000000000000000000000000000000000000000\n        /* \"#utility.yul\":7798:7799   */\n      0x00\n        /* \"#utility.yul\":7791:7879   */\n      mstore\n        /* \"#utility.yul\":7898:7902   */\n      0x22\n        /* \"#utility.yul\":7895:7896   */\n      0x04\n        /* \"#utility.yul\":7888:7903   */\n      mstore\n        /* \"#utility.yul\":7922:7926   */\n      0x24\n        /* \"#utility.yul\":7919:7920   */\n      0x00\n        /* \"#utility.yul\":7912:7927   */\n      revert\n        /* \"#utility.yul\":7939:8259   */\n    tag_103:\n        /* \"#utility.yul\":7983:7989   */\n      0x00\n        /* \"#utility.yul\":8020:8021   */\n      0x02\n        /* \"#utility.yul\":8014:8018   */\n      dup3\n        /* \"#utility.yul\":8010:8022   */\n      div\n        /* \"#utility.yul\":8000:8022   */\n      swap1\n      pop\n        /* \"#utility.yul\":8067:8068   */\n      0x01\n        /* \"#utility.yul\":8061:8065   */\n      dup3\n        /* \"#utility.yul\":8057:8069   */\n      and\n        /* \"#utility.yul\":8088:8106   */\n      dup1\n        /* \"#utility.yul\":8078:8159   */\n      tag_371\n      jumpi\n        /* \"#utility.yul\":8144:8148   */\n      0x7f\n        /* \"#utility.yul\":8136:8142   */\n      dup3\n        /* \"#utility.yul\":8132:8149   */\n      and\n        /* \"#utility.yul\":8122:8149   */\n      swap2\n      pop\n        /* \"#utility.yul\":8078:8159   */\n    tag_371:\n        /* \"#utility.yul\":8206:8208   */\n      0x20\n        /* \"#utility.yul\":8198:8204   */\n      dup3\n        /* \"#utility.yul\":8195:8209   */\n      lt\n        /* \"#utility.yul\":8175:8193   */\n      dup2\n        /* \"#utility.yul\":8172:8210   */\n      sub\n        /* \"#utility.yul\":8169:8253   */\n      tag_372\n      jumpi\n        /* \"#utility.yul\":8225:8243   */\n      tag_373\n      tag_245\n      jump\t// in\n    tag_373:\n        /* \"#utility.yul\":8169:8253   */\n    tag_372:\n        /* \"#utility.yul\":7990:8259   */\n      pop\n        /* \"#utility.yul\":7939:8259   */\n      swap2\n      swap1\n      pop\n      jump\t// out\n        /* \"#utility.yul\":8265:8487   */\n    tag_246:\n        /* \"#utility.yul\":8405:8439   */\n      0x796f75206861766520746f2070617920657861637420616d6f756e74206f6620\n        /* \"#utility.yul\":8401:8402   */\n      0x00\n        /* \"#utility.yul\":8393:8399   */\n      dup3\n        /* \"#utility.yul\":8389:8403   */\n      add\n        /* \"#utility.yul\":8382:8440   */\n      mstore\n        /* \"#utility.yul\":8474:8479   */\n      0x6574680000000000000000000000000000000000000000000000000000000000\n        /* \"#utility.yul\":8469:8471   */\n      0x20\n        /* \"#utility.yul\":8461:8467   */\n      dup3\n        /* \"#utility.yul\":8457:8472   */\n      add\n        /* \"#utility.yul\":8450:8480   */\n      mstore\n        /* \"#utility.yul\":8265:8487   */\n      pop\n      jump\t// out\n        /* \"#utility.yul\":8493:8859   */\n    tag_247:\n        /* \"#utility.yul\":8635:8638   */\n      0x00\n        /* \"#utility.yul\":8656:8723   */\n      tag_376\n        /* \"#utility.yul\":8720:8722   */\n      0x23\n        /* \"#utility.yul\":8715:8718   */\n      dup4\n        /* \"#utility.yul\":8656:8723   */\n      tag_224\n      jump\t// in\n    tag_376:\n        /* \"#utility.yul\":8649:8723   */\n      swap2\n      pop\n        /* \"#utility.yul\":8732:8825   */\n      tag_377\n        /* \"#utility.yul\":8821:8824   */\n      dup3\n        /* \"#utility.yul\":8732:8825   */\n      tag_246\n      jump\t// in\n    tag_377:\n        /* \"#utility.yul\":8850:8852   */\n      0x40\n        /* \"#utility.yul\":8845:8848   */\n      dup3\n        /* \"#utility.yul\":8841:8853   */\n      add\n        /* \"#utility.yul\":8834:8853   */\n      swap1\n      pop\n        /* \"#utility.yul\":8493:8859   */\n      swap2\n      swap1\n      pop\n      jump\t// out\n        /* \"#utility.yul\":8865:9284   */\n    tag_116:\n        /* \"#utility.yul\":9031:9035   */\n      0x00\n        /* \"#utility.yul\":9069:9071   */\n      0x20\n        /* \"#utility.yul\":9058:9067   */\n      dup3\n        /* \"#utility.yul\":9054:9072   */\n      add\n        /* \"#utility.yul\":9046:9072   */\n      swap1\n      pop\n        /* \"#utility.yul\":9118:9127   */\n      dup2\n        /* \"#utility.yul\":9112:9116   */\n      dup2\n        /* \"#utility.yul\":9108:9128   */\n      sub\n        /* \"#utility.yul\":9104:9105   */\n      0x00\n        /* \"#utility.yul\":9093:9102   */\n      dup4\n        /* \"#utility.yul\":9089:9106   */\n      add\n        /* \"#utility.yul\":9082:9129   */\n      mstore\n        /* \"#utility.yul\":9146:9277   */\n      tag_379\n        /* \"#utility.yul\":9272:9276   */\n      dup2\n        /* \"#utility.yul\":9146:9277   */\n      tag_247\n      jump\t// in\n    tag_379:\n        /* \"#utility.yul\":9138:9277   */\n      swap1\n      pop\n        /* \"#utility.yul\":8865:9284   */\n      swap2\n      swap1\n      pop\n      jump\t// out\n        /* \"#utility.yul\":9290:9454   */\n    tag_248:\n        /* \"#utility.yul\":9430:9446   */\n      0x7365617473206172652066756c6c000000000000000000000000000000000000\n        /* \"#utility.yul\":9426:9427   */\n      0x00\n        /* \"#utility.yul\":9418:9424   */\n      dup3\n        /* \"#utility.yul\":9414:9428   */\n      add\n        /* \"#utility.yul\":9407:9447   */\n      mstore\n        /* \"#utility.yul\":9290:9454   */\n      pop\n      jump\t// out\n        /* \"#utility.yul\":9460:9826   */\n    tag_249:\n        /* \"#utility.yul\":9602:9605   */\n      0x00\n        /* \"#utility.yul\":9623:9690   */\n      tag_382\n        /* \"#utility.yul\":9687:9689   */\n      0x0e\n        /* \"#utility.yul\":9682:9685   */\n      dup4\n        /* \"#utility.yul\":9623:9690   */\n      tag_224\n      jump\t// in\n    tag_382:\n        /* \"#utility.yul\":9616:9690   */\n      swap2\n      pop\n        /* \"#utility.yul\":9699:9792   */\n      tag_383\n        /* \"#utility.yul\":9788:9791   */\n      dup3\n        /* \"#utility.yul\":9699:9792   */\n      tag_248\n      jump\t// in\n    tag_383:\n        /* \"#utility.yul\":9817:9819   */\n      0x20\n        /* \"#utility.yul\":9812:9815   */\n      dup3\n        /* \"#utility.yul\":9808:9820   */\n      add\n        /* \"#utility.yul\":9801:9820   */\n      swap1\n      pop\n        /* \"#utility.yul\":9460:9826   */\n      swap2\n      swap1\n      pop\n      jump\t// out\n        /* \"#utility.yul\":9832:10251   */\n    tag_119:\n        /* \"#utility.yul\":9998:10002   */\n      0x00\n        /* \"#utility.yul\":10036:10038   */\n      0x20\n        /* \"#utility.yul\":10025:10034   */\n      dup3\n        /* \"#utility.yul\":10021:10039   */\n      add\n        /* \"#utility.yul\":10013:10039   */\n      swap1\n      pop\n        /* \"#utility.yul\":10085:10094   */\n      dup2\n        /* \"#utility.yul\":10079:10083   */\n      dup2\n        /* \"#utility.yul\":10075:10095   */\n      sub\n        /* \"#utility.yul\":10071:10072   */\n      0x00\n        /* \"#utility.yul\":10060:10069   */\n      dup4\n        /* \"#utility.yul\":10056:10073   */\n      add\n        /* \"#utility.yul\":10049:10096   */\n      mstore\n        /* \"#utility.yul\":10113:10244   */\n      tag_385\n        /* \"#utility.yul\":10239:10243   */\n      dup2\n        /* \"#utility.yul\":10113:10244   */\n      tag_249\n      jump\t// in\n    tag_385:\n        /* \"#utility.yul\":10105:10244   */\n      swap1\n      pop\n        /* \"#utility.yul\":9832:10251   */\n      swap2\n      swap1\n      pop\n      jump\t// out\n        /* \"#utility.yul\":10257:10431   */\n    tag_250:\n        /* \"#utility.yul\":10397:10423   */\n      0x796f7520616c7265616479206f776e2061207469636b65740000000000000000\n        /* \"#utility.yul\":10393:10394   */\n      0x00\n        /* \"#utility.yul\":10385:10391   */\n      dup3\n        /* \"#utility.yul\":10381:10395   */\n      add\n        /* \"#utility.yul\":10374:10424   */\n      mstore\n        /* \"#utility.yul\":10257:10431   */\n      pop\n      jump\t// out\n        /* \"#utility.yul\":10437:10803   */\n    tag_251:\n        /* \"#utility.yul\":10579:10582   */\n      0x00\n        /* \"#utility.yul\":10600:10667   */\n      tag_388\n        /* \"#utility.yul\":10664:10666   */\n      0x18\n        /* \"#utility.yul\":10659:10662   */\n      dup4\n        /* \"#utility.yul\":10600:10667   */\n      tag_224\n      jump\t// in\n    tag_388:\n        /* \"#utility.yul\":10593:10667   */\n      swap2\n      pop\n        /* \"#utility.yul\":10676:10769   */\n      tag_389\n        /* \"#utility.yul\":10765:10768   */\n      dup3\n        /* \"#utility.yul\":10676:10769   */\n      tag_250\n      jump\t// in\n    tag_389:\n        /* \"#utility.yul\":10794:10796   */\n      0x20\n        /* \"#utility.yul\":10789:10792   */\n      dup3\n        /* \"#utility.yul\":10785:10797   */\n      add\n        /* \"#utility.yul\":10778:10797   */\n      swap1\n      pop\n        /* \"#utility.yul\":10437:10803   */\n      swap2\n      swap1\n      pop\n      jump\t// out\n        /* \"#utility.yul\":10809:11228   */\n    tag_122:\n        /* \"#utility.yul\":10975:10979   */\n      0x00\n        /* \"#utility.yul\":11013:11015   */\n      0x20\n        /* \"#utility.yul\":11002:11011   */\n      dup3\n        /* \"#utility.yul\":10998:11016   */\n      add\n        /* \"#utility.yul\":10990:11016   */\n      swap1\n      pop\n        /* \"#utility.yul\":11062:11071   */\n      dup2\n        /* \"#utility.yul\":11056:11060   */\n      dup2\n        /* \"#utility.yul\":11052:11072   */\n      sub\n        /* \"#utility.yul\":11048:11049   */\n      0x00\n        /* \"#utility.yul\":11037:11046   */\n      dup4\n        /* \"#utility.yul\":11033:11050   */\n      add\n        /* \"#utility.yul\":11026:11073   */\n      mstore\n        /* \"#utility.yul\":11090:11221   */\n      tag_391\n        /* \"#utility.yul\":11216:11220   */\n      dup2\n        /* \"#utility.yul\":11090:11221   */\n      tag_251\n      jump\t// in\n    tag_391:\n        /* \"#utility.yul\":11082:11221   */\n      swap1\n      pop\n        /* \"#utility.yul\":10809:11228   */\n      swap2\n      swap1\n      pop\n      jump\t// out\n        /* \"#utility.yul\":11234:11414   */\n    tag_252:\n        /* \"#utility.yul\":11282:11359   */\n      0x4e487b7100000000000000000000000000000000000000000000000000000000\n        /* \"#utility.yul\":11279:11280   */\n      0x00\n        /* \"#utility.yul\":11272:11360   */\n      mstore\n        /* \"#utility.yul\":11379:11383   */\n      0x11\n        /* \"#utility.yul\":11376:11377   */\n      0x04\n        /* \"#utility.yul\":11369:11384   */\n      mstore\n        /* \"#utility.yul\":11403:11407   */\n      0x24\n        /* \"#utility.yul\":11400:11401   */\n      0x00\n        /* \"#utility.yul\":11393:11408   */\n      revert\n        /* \"#utility.yul\":11420:11614   */\n    tag_124:\n        /* \"#utility.yul\":11460:11464   */\n      0x00\n        /* \"#utility.yul\":11480:11500   */\n      tag_394\n        /* \"#utility.yul\":11498:11499   */\n      dup3\n        /* \"#utility.yul\":11480:11500   */\n      tag_220\n      jump\t// in\n    tag_394:\n        /* \"#utility.yul\":11475:11500   */\n      swap2\n      pop\n        /* \"#utility.yul\":11514:11534   */\n      tag_395\n        /* \"#utility.yul\":11532:11533   */\n      dup4\n        /* \"#utility.yul\":11514:11534   */\n      tag_220\n      jump\t// in\n    tag_395:\n        /* \"#utility.yul\":11509:11534   */\n      swap3\n      pop\n        /* \"#utility.yul\":11558:11559   */\n      dup3\n        /* \"#utility.yul\":11555:11556   */\n      dup3\n        /* \"#utility.yul\":11551:11560   */\n      sub\n        /* \"#utility.yul\":11543:11560   */\n      swap1\n      pop\n        /* \"#utility.yul\":11582:11583   */\n      dup2\n        /* \"#utility.yul\":11576:11580   */\n      dup2\n        /* \"#utility.yul\":11573:11584   */\n      gt\n        /* \"#utility.yul\":11570:11607   */\n      iszero\n      tag_396\n      jumpi\n        /* \"#utility.yul\":11587:11605   */\n      tag_397\n      tag_252\n      jump\t// in\n    tag_397:\n        /* \"#utility.yul\":11570:11607   */\n    tag_396:\n        /* \"#utility.yul\":11420:11614   */\n      swap3\n      swap2\n      pop\n      pop\n      jump\t// out\n        /* \"#utility.yul\":11620:11761   */\n    tag_253:\n        /* \"#utility.yul\":11669:11673   */\n      0x00\n        /* \"#utility.yul\":11692:11695   */\n      dup2\n        /* \"#utility.yul\":11684:11695   */\n      swap1\n      pop\n        /* \"#utility.yul\":11715:11718   */\n      dup2\n        /* \"#utility.yul\":11712:11713   */\n      0x00\n        /* \"#utility.yul\":11705:11719   */\n      mstore\n        /* \"#utility.yul\":11749:11753   */\n      0x20\n        /* \"#utility.yul\":11746:11747   */\n      0x00\n        /* \"#utility.yul\":11736:11754   */\n      keccak256\n        /* \"#utility.yul\":11728:11754   */\n      swap1\n      pop\n        /* \"#utility.yul\":11620:11761   */\n      swap2\n      swap1\n      pop\n      jump\t// out\n        /* \"#utility.yul\":11767:11860   */\n    tag_254:\n        /* \"#utility.yul\":11804:11810   */\n      0x00\n        /* \"#utility.yul\":11851:11853   */\n      0x20\n        /* \"#utility.yul\":11846:11848   */\n      0x1f\n        /* \"#utility.yul\":11839:11844   */\n      dup4\n        /* \"#utility.yul\":11835:11849   */\n      add\n        /* \"#utility.yul\":11831:11854   */\n      div\n        /* \"#utility.yul\":11821:11854   */\n      swap1\n      pop\n        /* \"#utility.yul\":11767:11860   */\n      swap2\n      swap1\n      pop\n      jump\t// out\n        /* \"#utility.yul\":11866:11973   */\n    tag_255:\n        /* \"#utility.yul\":11910:11918   */\n      0x00\n        /* \"#utility.yul\":11960:11965   */\n      dup3\n        /* \"#utility.yul\":11954:11958   */\n      dup3\n        /* \"#utility.yul\":11950:11966   */\n      shl\n        /* \"#utility.yul\":11929:11966   */\n      swap1\n      pop\n        /* \"#utility.yul\":11866:11973   */\n      swap3\n      swap2\n      pop\n      pop\n      jump\t// out\n        /* \"#utility.yul\":11979:12372   */\n    tag_256:\n        /* \"#utility.yul\":12048:12054   */\n      0x00\n        /* \"#utility.yul\":12098:12099   */\n      0x08\n        /* \"#utility.yul\":12086:12096   */\n      dup4\n        /* \"#utility.yul\":12082:12100   */\n      mul\n        /* \"#utility.yul\":12121:12218   */\n      tag_402\n        /* \"#utility.yul\":12151:12217   */\n      0xffffffffffffffffffffffffffffffffffffffffffffffffffffffffffffffff\n        /* \"#utility.yul\":12140:12149   */\n      dup3\n        /* \"#utility.yul\":12121:12218   */\n      tag_255\n      jump\t// in\n    tag_402:\n        /* \"#utility.yul\":12239:12278   */\n      tag_403\n        /* \"#utility.yul\":12269:12277   */\n      dup7\n        /* \"#utility.yul\":12258:12267   */\n      dup4\n        /* \"#utility.yul\":12239:12278   */\n      tag_255\n      jump\t// in\n    tag_403:\n        /* \"#utility.yul\":12227:12278   */\n      swap6\n      pop\n        /* \"#utility.yul\":12311:12315   */\n      dup1\n        /* \"#utility.yul\":12307:12316   */\n      not\n        /* \"#utility.yul\":12300:12305   */\n      dup5\n        /* \"#utility.yul\":12296:12317   */\n      and\n        /* \"#utility.yul\":12287:12317   */\n      swap4\n      pop\n        /* \"#utility.yul\":12360:12364   */\n      dup1\n        /* \"#utility.yul\":12350:12358   */\n      dup7\n        /* \"#utility.yul\":12346:12365   */\n      and\n        /* \"#utility.yul\":12339:12344   */\n      dup5\n        /* \"#utility.yul\":12336:12366   */\n      or\n        /* \"#utility.yul\":12326:12366   */\n      swap3\n      pop\n        /* \"#utility.yul\":12055:12372   */\n      pop\n      pop\n        /* \"#utility.yul\":11979:12372   */\n      swap4\n      swap3\n      pop\n      pop\n      pop\n      jump\t// out\n        /* \"#utility.yul\":12378:12438   */\n    tag_257:\n        /* \"#utility.yul\":12406:12409   */\n      0x00\n        /* \"#utility.yul\":12427:12432   */\n      dup2\n        /* \"#utility.yul\":12420:12432   */\n      swap1\n      pop\n        /* \"#utility.yul\":12378:12438   */\n      swap2\n      swap1\n      pop\n      jump\t// out\n        /* \"#utility.yul\":12444:12586   */\n    tag_258:\n        /* \"#utility.yul\":12494:12503   */\n      0x00\n        /* \"#utility.yul\":12527:12580   */\n      tag_406\n        /* \"#utility.yul\":12545:12579   */\n      tag_407\n        /* \"#utility.yul\":12554:12578   */\n      tag_408\n        /* \"#utility.yul\":12572:12577   */\n      dup5\n        /* \"#utility.yul\":12554:12578   */\n      tag_220\n      jump\t// in\n    tag_408:\n        /* \"#utility.yul\":12545:12579   */\n      tag_257\n      jump\t// in\n    tag_407:\n        /* \"#utility.yul\":12527:12580   */\n      tag_220\n      jump\t// in\n    tag_406:\n        /* \"#utility.yul\":12514:12580   */\n      swap1\n      pop\n        /* \"#utility.yul\":12444:12586   */\n      swap2\n      swap1\n      pop\n      jump\t// out\n        /* \"#utility.yul\":12592:12667   */\n    tag_259:\n        /* \"#utility.yul\":12635:12638   */\n      0x00\n        /* \"#utility.yul\":12656:12661   */\n      dup2\n        /* \"#utility.yul\":12649:12661   */\n      swap1\n      pop\n        /* \"#utility.yul\":12592:12667   */\n      swap2\n      swap1\n      pop\n      jump\t// out\n        /* \"#utility.yul\":12673:12942   */\n    tag_260:\n        /* \"#utility.yul\":12783:12822   */\n      tag_411\n        /* \"#utility.yul\":12814:12821   */\n      dup4\n        /* \"#utility.yul\":12783:12822   */\n      tag_258\n      jump\t// in\n    tag_411:\n        /* \"#utility.yul\":12844:12935   */\n      tag_412\n        /* \"#utility.yul\":12893:12934   */\n      tag_413\n        /* \"#utility.yul\":12917:12933   */\n      dup3\n        /* \"#utility.yul\":12893:12934   */\n      tag_259\n      jump\t// in\n    tag_413:\n        /* \"#utility.yul\":12885:12891   */\n      dup5\n        /* \"#utility.yul\":12878:12882   */\n      dup5\n        /* \"#utility.yul\":12872:12883   */\n      sload\n        /* \"#utility.yul\":12844:12935   */\n      tag_256\n      jump\t// in\n    tag_412:\n        /* \"#utility.yul\":12838:12842   */\n      dup3\n        /* \"#utility.yul\":12831:12936   */\n      sstore\n        /* \"#utility.yul\":12749:12942   */\n      pop\n        /* \"#utility.yul\":12673:12942   */\n      pop\n      pop\n      pop\n      jump\t// out\n        /* \"#utility.yul\":12948:13021   */\n    tag_261:\n        /* \"#utility.yul\":12993:12996   */\n      0x00\n        /* \"#utility.yul\":13014:13015   */\n      0x00\n        /* \"#utility.yul\":13007:13015   */\n      swap1\n      pop\n        /* \"#utility.yul\":12948:13021   */\n      swap1\n      jump\t// out\n        /* \"#utility.yul\":13027:13216   */\n    tag_262:\n        /* \"#utility.yul\":13104:13136   */\n      tag_416\n      tag_261\n      jump\t// in\n    tag_416:\n        /* \"#utility.yul\":13145:13210   */\n      tag_417\n        /* \"#utility.yul\":13203:13209   */\n      dup2\n        /* \"#utility.yul\":13195:13201   */\n      dup5\n        /* \"#utility.yul\":13189:13193   */\n      dup5\n        /* \"#utility.yul\":13145:13210   */\n      tag_260\n      jump\t// in\n    tag_417:\n        /* \"#utility.yul\":13080:13216   */\n      pop\n        /* \"#utility.yul\":13027:13216   */\n      pop\n      pop\n      jump\t// out\n        /* \"#utility.yul\":13222:13408   */\n    tag_263:\n        /* \"#utility.yul\":13282:13402   */\n    tag_419:\n        /* \"#utility.yul\":13299:13302   */\n      dup2\n        /* \"#utility.yul\":13292:13297   */\n      dup2\n        /* \"#utility.yul\":13289:13303   */\n      lt\n        /* \"#utility.yul\":13282:13402   */\n      iszero\n      tag_421\n      jumpi\n        /* \"#utility.yul\":13353:13392   */\n      tag_422\n        /* \"#utility.yul\":13390:13391   */\n      0x00\n        /* \"#utility.yul\":13383:13388   */\n      dup3\n        /* \"#utility.yul\":13353:13392   */\n      tag_262\n      jump\t// in\n    tag_422:\n        /* \"#utility.yul\":13326:13327   */\n      0x01\n        /* \"#utility.yul\":13319:13324   */\n      dup2\n        /* \"#utility.yul\":13315:13328   */\n      add\n        /* \"#utility.yul\":13306:13328   */\n      swap1\n      pop\n        /* \"#utility.yul\":13282:13402   */\n      jump(tag_419)\n    tag_421:\n        /* \"#utility.yul\":13222:13408   */\n      pop\n      pop\n      jump\t// out\n        /* \"#utility.yul\":13414:13957   */\n    tag_264:\n        /* \"#utility.yul\":13515:13517   */\n      0x1f\n        /* \"#utility.yul\":13510:13513   */\n      dup3\n        /* \"#utility.yul\":13507:13518   */\n      gt\n        /* \"#utility.yul\":13504:13950   */\n      iszero\n      tag_424\n      jumpi\n        /* \"#utility.yul\":13549:13587   */\n      tag_425\n        /* \"#utility.yul\":13581:13586   */\n      dup2\n        /* \"#utility.yul\":13549:13587   */\n      tag_253\n      jump\t// in\n    tag_425:\n        /* \"#utility.yul\":13633:13662   */\n      tag_426\n        /* \"#utility.yul\":13651:13661   */\n      dup5\n        /* \"#utility.yul\":13633:13662   */\n      tag_254\n      jump\t// in\n    tag_426:\n        /* \"#utility.yul\":13623:13631   */\n      dup2\n        /* \"#utility.yul\":13619:13663   */\n      add\n        /* \"#utility.yul\":13816:13818   */\n      0x20\n        /* \"#utility.yul\":13804:13814   */\n      dup6\n        /* \"#utility.yul\":13801:13819   */\n      lt\n        /* \"#utility.yul\":13798:13847   */\n      iszero\n      tag_427\n      jumpi\n        /* \"#utility.yul\":13837:13845   */\n      dup2\n        /* \"#utility.yul\":13822:13845   */\n      swap1\n      pop\n        /* \"#utility.yul\":13798:13847   */\n    tag_427:\n        /* \"#utility.yul\":13860:13940   */\n      tag_428\n        /* \"#utility.yul\":13916:13938   */\n      tag_429\n        /* \"#utility.yul\":13934:13937   */\n      dup6\n        /* \"#utility.yul\":13916:13938   */\n      tag_254\n      jump\t// in\n    tag_429:\n        /* \"#utility.yul\":13906:13914   */\n      dup4\n        /* \"#utility.yul\":13902:13939   */\n      add\n        /* \"#utility.yul\":13889:13900   */\n      dup3\n        /* \"#utility.yul\":13860:13940   */\n      tag_263\n      jump\t// in\n    tag_428:\n        /* \"#utility.yul\":13519:13950   */\n      pop\n      pop\n        /* \"#utility.yul\":13504:13950   */\n    tag_424:\n        /* \"#utility.yul\":13414:13957   */\n      pop\n      pop\n      pop\n      jump\t// out\n        /* \"#utility.yul\":13963:14080   */\n    tag_265:\n        /* \"#utility.yul\":14017:14025   */\n      0x00\n        /* \"#utility.yul\":14067:14072   */\n      dup3\n        /* \"#utility.yul\":14061:14065   */\n      dup3\n        /* \"#utility.yul\":14057:14073   */\n      shr\n        /* \"#utility.yul\":14036:14073   */\n      swap1\n      pop\n        /* \"#utility.yul\":13963:14080   */\n      swap3\n      swap2\n      pop\n      pop\n      jump\t// out\n        /* \"#utility.yul\":14086:14255   */\n    tag_266:\n        /* \"#utility.yul\":14130:14136   */\n      0x00\n        /* \"#utility.yul\":14163:14214   */\n      tag_432\n        /* \"#utility.yul\":14211:14212   */\n      0x00\n        /* \"#utility.yul\":14207:14213   */\n      not\n        /* \"#utility.yul\":14199:14204   */\n      dup5\n        /* \"#utility.yul\":14196:14197   */\n      0x08\n        /* \"#utility.yul\":14192:14205   */\n      mul\n        /* \"#utility.yul\":14163:14214   */\n      tag_265\n      jump\t// in\n    tag_432:\n        /* \"#utility.yul\":14159:14215   */\n      not\n        /* \"#utility.yul\":14244:14248   */\n      dup1\n        /* \"#utility.yul\":14238:14242   */\n      dup4\n        /* \"#utility.yul\":14234:14249   */\n      and\n        /* \"#utility.yul\":14224:14249   */\n      swap2\n      pop\n        /* \"#utility.yul\":14137:14255   */\n      pop\n        /* \"#utility.yul\":14086:14255   */\n      swap3\n      swap2\n      pop\n      pop\n      jump\t// out\n        /* \"#utility.yul\":14260:14555   */\n    tag_267:\n        /* \"#utility.yul\":14336:14340   */\n      0x00\n        /* \"#utility.yul\":14482:14511   */\n      tag_434\n        /* \"#utility.yul\":14507:14510   */\n      dup4\n        /* \"#utility.yul\":14501:14505   */\n      dup4\n        /* \"#utility.yul\":14482:14511   */\n      tag_266\n      jump\t// in\n    tag_434:\n        /* \"#utility.yul\":14474:14511   */\n      swap2\n      pop\n        /* \"#utility.yul\":14544:14547   */\n      dup3\n        /* \"#utility.yul\":14541:14542   */\n      0x02\n        /* \"#utility.yul\":14537:14548   */\n      mul\n        /* \"#utility.yul\":14531:14535   */\n      dup3\n        /* \"#utility.yul\":14528:14549   */\n      or\n        /* \"#utility.yul\":14520:14549   */\n      swap1\n      pop\n        /* \"#utility.yul\":14260:14555   */\n      swap3\n      swap2\n      pop\n      pop\n      jump\t// out\n        /* \"#utility.yul\":14560:15955   */\n    tag_128:\n        /* \"#utility.yul\":14677:14714   */\n      tag_436\n        /* \"#utility.yul\":14710:14713   */\n      dup3\n        /* \"#utility.yul\":14677:14714   */\n      tag_223\n      jump\t// in\n    tag_436:\n        /* \"#utility.yul\":14779:14797   */\n      0xffffffffffffffff\n        /* \"#utility.yul\":14771:14777   */\n      dup2\n        /* \"#utility.yul\":14768:14798   */\n      gt\n        /* \"#utility.yul\":14765:14821   */\n      iszero\n      tag_437\n      jumpi\n        /* \"#utility.yul\":14801:14819   */\n      tag_438\n      tag_231\n      jump\t// in\n    tag_438:\n        /* \"#utility.yul\":14765:14821   */\n    tag_437:\n        /* \"#utility.yul\":14845:14883   */\n      tag_439\n        /* \"#utility.yul\":14877:14881   */\n      dup3\n        /* \"#utility.yul\":14871:14882   */\n      sload\n        /* \"#utility.yul\":14845:14883   */\n      tag_103\n      jump\t// in\n    tag_439:\n        /* \"#utility.yul\":14930:14997   */\n      tag_440\n        /* \"#utility.yul\":14990:14996   */\n      dup3\n        /* \"#utility.yul\":14982:14988   */\n      dup3\n        /* \"#utility.yul\":14976:14980   */\n      dup6\n        /* \"#utility.yul\":14930:14997   */\n      tag_264\n      jump\t// in\n    tag_440:\n        /* \"#utility.yul\":15024:15025   */\n      0x00\n        /* \"#utility.yul\":15048:15052   */\n      0x20\n        /* \"#utility.yul\":15035:15052   */\n      swap1\n      pop\n        /* \"#utility.yul\":15080:15082   */\n      0x1f\n        /* \"#utility.yul\":15072:15078   */\n      dup4\n        /* \"#utility.yul\":15069:15083   */\n      gt\n        /* \"#utility.yul\":15097:15098   */\n      0x01\n        /* \"#utility.yul\":15092:15710   */\n      dup2\n      eq\n      tag_442\n      jumpi\n        /* \"#utility.yul\":15754:15755   */\n      0x00\n        /* \"#utility.yul\":15771:15777   */\n      dup5\n        /* \"#utility.yul\":15768:15845   */\n      iszero\n      tag_443\n      jumpi\n        /* \"#utility.yul\":15820:15829   */\n      dup3\n        /* \"#utility.yul\":15815:15818   */\n      dup8\n        /* \"#utility.yul\":15811:15830   */\n      add\n        /* \"#utility.yul\":15805:15831   */\n      mload\n        /* \"#utility.yul\":15796:15831   */\n      swap1\n      pop\n        /* \"#utility.yul\":15768:15845   */\n    tag_443:\n        /* \"#utility.yul\":15871:15938   */\n      tag_444\n        /* \"#utility.yul\":15931:15937   */\n      dup6\n        /* \"#utility.yul\":15924:15929   */\n      dup3\n        /* \"#utility.yul\":15871:15938   */\n      tag_267\n      jump\t// in\n    tag_444:\n        /* \"#utility.yul\":15865:15869   */\n      dup7\n        /* \"#utility.yul\":15858:15939   */\n      sstore\n        /* \"#utility.yul\":15727:15949   */\n      pop\n        /* \"#utility.yul\":15062:15949   */\n      jump(tag_441)\n        /* \"#utility.yul\":15092:15710   */\n    tag_442:\n        /* \"#utility.yul\":15144:15148   */\n      0x1f\n        /* \"#utility.yul\":15140:15149   */\n      not\n        /* \"#utility.yul\":15132:15138   */\n      dup5\n        /* \"#utility.yul\":15128:15150   */\n      and\n        /* \"#utility.yul\":15178:15215   */\n      tag_445\n        /* \"#utility.yul\":15210:15214   */\n      dup7\n        /* \"#utility.yul\":15178:15215   */\n      tag_253\n      jump\t// in\n    tag_445:\n        /* \"#utility.yul\":15237:15238   */\n      0x00\n        /* \"#utility.yul\":15251:15459   */\n    tag_446:\n        /* \"#utility.yul\":15265:15272   */\n      dup3\n        /* \"#utility.yul\":15262:15263   */\n      dup2\n        /* \"#utility.yul\":15259:15273   */\n      lt\n        /* \"#utility.yul\":15251:15459   */\n      iszero\n      tag_448\n      jumpi\n        /* \"#utility.yul\":15344:15353   */\n      dup5\n        /* \"#utility.yul\":15339:15342   */\n      dup10\n        /* \"#utility.yul\":15335:15354   */\n      add\n        /* \"#utility.yul\":15329:15355   */\n      mload\n        /* \"#utility.yul\":15321:15327   */\n      dup3\n        /* \"#utility.yul\":15314:15356   */\n      sstore\n        /* \"#utility.yul\":15395:15396   */\n      0x01\n        /* \"#utility.yul\":15387:15393   */\n      dup3\n        /* \"#utility.yul\":15383:15397   */\n      add\n        /* \"#utility.yul\":15373:15397   */\n      swap2\n      pop\n        /* \"#utility.yul\":15442:15444   */\n      0x20\n        /* \"#utility.yul\":15431:15440   */\n      dup6\n        /* \"#utility.yul\":15427:15445   */\n      add\n        /* \"#utility.yul\":15414:15445   */\n      swap5\n      pop\n        /* \"#utility.yul\":15288:15292   */\n      0x20\n        /* \"#utility.yul\":15285:15286   */\n      dup2\n        /* \"#utility.yul\":15281:15293   */\n      add\n        /* \"#utility.yul\":15276:15293   */\n      swap1\n      pop\n        /* \"#utility.yul\":15251:15459   */\n      jump(tag_446)\n    tag_448:\n        /* \"#utility.yul\":15487:15493   */\n      dup7\n        /* \"#utility.yul\":15478:15485   */\n      dup4\n        /* \"#utility.yul\":15475:15494   */\n      lt\n        /* \"#utility.yul\":15472:15651   */\n      iszero\n      tag_449\n      jumpi\n        /* \"#utility.yul\":15545:15554   */\n      dup5\n        /* \"#utility.yul\":15540:15543   */\n      dup10\n        /* \"#utility.yul\":15536:15555   */\n      add\n        /* \"#utility.yul\":15530:15556   */\n      mload\n        /* \"#utility.yul\":15588:15636   */\n      tag_450\n        /* \"#utility.yul\":15630:15634   */\n      0x1f\n        /* \"#utility.yul\":15622:15628   */\n      dup10\n        /* \"#utility.yul\":15618:15635   */\n      and\n        /* \"#utility.yul\":15607:15616   */\n      dup3\n        /* \"#utility.yul\":15588:15636   */\n      tag_266\n      jump\t// in\n    tag_450:\n        /* \"#utility.yul\":15580:15586   */\n      dup4\n        /* \"#utility.yul\":15573:15637   */\n      sstore\n        /* \"#utility.yul\":15495:15651   */\n      pop\n        /* \"#utility.yul\":15472:15651   */\n    tag_449:\n        /* \"#utility.yul\":15697:15698   */\n      0x01\n        /* \"#utility.yul\":15693:15694   */\n      0x02\n        /* \"#utility.yul\":15685:15691   */\n      dup9\n        /* \"#utility.yul\":15681:15695   */\n      mul\n        /* \"#utility.yul\":15677:15699   */\n      add\n        /* \"#utility.yul\":15671:15675   */\n      dup9\n        /* \"#utility.yul\":15664:15700   */\n      sstore\n        /* \"#utility.yul\":15099:15710   */\n      pop\n      pop\n      pop\n        /* \"#utility.yul\":15062:15949   */\n    tag_441:\n      pop\n        /* \"#utility.yul\":14652:15955   */\n      pop\n      pop\n      pop\n        /* \"#utility.yul\":14560:15955   */\n      pop\n      pop\n      jump\t// out\n        /* \"#utility.yul\":15961:16293   */\n    tag_131:\n        /* \"#utility.yul\":16082:16086   */\n      0x00\n        /* \"#utility.yul\":16120:16122   */\n      0x40\n        /* \"#utility.yul\":16109:16118   */\n      dup3\n        /* \"#utility.yul\":16105:16123   */\n      add\n        /* \"#utility.yul\":16097:16123   */\n      swap1\n      pop\n        /* \"#utility.yul\":16133:16204   */\n      tag_452\n        /* \"#utility.yul\":16201:16202   */\n      0x00\n        /* \"#utility.yul\":16190:16199   */\n      dup4\n        /* \"#utility.yul\":16186:16203   */\n      add\n        /* \"#utility.yul\":16177:16183   */\n      dup6\n        /* \"#utility.yul\":16133:16204   */\n      tag_228\n      jump\t// in\n    tag_452:\n        /* \"#utility.yul\":16214:16286   */\n      tag_453\n        /* \"#utility.yul\":16282:16284   */\n      0x20\n        /* \"#utility.yul\":16271:16280   */\n      dup4\n        /* \"#utility.yul\":16267:16285   */\n      add\n        /* \"#utility.yul\":16258:16264   */\n      dup5\n        /* \"#utility.yul\":16214:16286   */\n      tag_228\n      jump\t// in\n    tag_453:\n        /* \"#utility.yul\":15961:16293   */\n      swap4\n      swap3\n      pop\n      pop\n      pop\n      jump\t// out\n        /* \"#utility.yul\":16299:16446   */\n    tag_268:\n        /* \"#utility.yul\":16400:16411   */\n      0x00\n        /* \"#utility.yul\":16437:16440   */\n      dup2\n        /* \"#utility.yul\":16422:16440   */\n      swap1\n      pop\n        /* \"#utility.yul\":16299:16446   */\n      swap3\n      swap2\n      pop\n      pop\n      jump\t// out\n        /* \"#utility.yul\":16452:16566   */\n    tag_269:\n      pop\n      jump\t// out\n        /* \"#utility.yul\":16572:16970   */\n    tag_270:\n        /* \"#utility.yul\":16731:16734   */\n      0x00\n        /* \"#utility.yul\":16752:16835   */\n      tag_457\n        /* \"#utility.yul\":16833:16834   */\n      0x00\n        /* \"#utility.yul\":16828:16831   */\n      dup4\n        /* \"#utility.yul\":16752:16835   */\n      tag_268\n      jump\t// in\n    tag_457:\n        /* \"#utility.yul\":16745:16835   */\n      swap2\n      pop\n        /* \"#utility.yul\":16844:16937   */\n      tag_458\n        /* \"#utility.yul\":16933:16936   */\n      dup3\n        /* \"#utility.yul\":16844:16937   */\n      tag_269\n      jump\t// in\n    tag_458:\n        /* \"#utility.yul\":16962:16963   */\n      0x00\n        /* \"#utility.yul\":16957:16960   */\n      dup3\n        /* \"#utility.yul\":16953:16964   */\n      add\n        /* \"#utility.yul\":16946:16964   */\n      swap1\n      pop\n        /* \"#utility.yul\":16572:16970   */\n      swap2\n      swap1\n      pop\n      jump\t// out\n        /* \"#utility.yul\":16976:17355   */\n    tag_138:\n        /* \"#utility.yul\":17160:17163   */\n      0x00\n        /* \"#utility.yul\":17182:17329   */\n      tag_460\n        /* \"#utility.yul\":17325:17328   */\n      dup3\n        /* \"#utility.yul\":17182:17329   */\n      tag_270\n      jump\t// in\n    tag_460:\n        /* \"#utility.yul\":17175:17329   */\n      swap2\n      pop\n        /* \"#utility.yul\":17346:17349   */\n      dup2\n        /* \"#utility.yul\":17339:17349   */\n      swap1\n      pop\n        /* \"#utility.yul\":16976:17355   */\n      swap2\n      swap1\n      pop\n      jump\t// out\n        /* \"#utility.yul\":17361:17539   */\n    tag_271:\n        /* \"#utility.yul\":17501:17531   */\n      0x6572726f723a6661696c20746f20776974686472617720657468657200000000\n        /* \"#utility.yul\":17497:17498   */\n      0x00\n        /* \"#utility.yul\":17489:17495   */\n      dup3\n        /* \"#utility.yul\":17485:17499   */\n      add\n        /* \"#utility.yul\":17478:17532   */\n      mstore\n        /* \"#utility.yul\":17361:17539   */\n      pop\n      jump\t// out\n        /* \"#utility.yul\":17545:17911   */\n    tag_272:\n        /* \"#utility.yul\":17687:17690   */\n      0x00\n        /* \"#utility.yul\":17708:17775   */\n      tag_463\n        /* \"#utility.yul\":17772:17774   */\n      0x1c\n        /* \"#utility.yul\":17767:17770   */\n      dup4\n        /* \"#utility.yul\":17708:17775   */\n      tag_224\n      jump\t// in\n    tag_463:\n        /* \"#utility.yul\":17701:17775   */\n      swap2\n      pop\n        /* \"#utility.yul\":17784:17877   */\n      tag_464\n        /* \"#utility.yul\":17873:17876   */\n      dup3\n        /* \"#utility.yul\":17784:17877   */\n      tag_271\n      jump\t// in\n    tag_464:\n        /* \"#utility.yul\":17902:17904   */\n      0x20\n        /* \"#utility.yul\":17897:17900   */\n      dup3\n        /* \"#utility.yul\":17893:17905   */\n      add\n        /* \"#utility.yul\":17886:17905   */\n      swap1\n      pop\n        /* \"#utility.yul\":17545:17911   */\n      swap2\n      swap1\n      pop\n      jump\t// out\n        /* \"#utility.yul\":17917:18336   */\n    tag_144:\n        /* \"#utility.yul\":18083:18087   */\n      0x00\n        /* \"#utility.yul\":18121:18123   */\n      0x20\n        /* \"#utility.yul\":18110:18119   */\n      dup3\n        /* \"#utility.yul\":18106:18124   */\n      add\n        /* \"#utility.yul\":18098:18124   */\n      swap1\n      pop\n        /* \"#utility.yul\":18170:18179   */\n      dup2\n        /* \"#utility.yul\":18164:18168   */\n      dup2\n        /* \"#utility.yul\":18160:18180   */\n      sub\n        /* \"#utility.yul\":18156:18157   */\n      0x00\n        /* \"#utility.yul\":18145:18154   */\n      dup4\n        /* \"#utility.yul\":18141:18158   */\n      add\n        /* \"#utility.yul\":18134:18181   */\n      mstore\n        /* \"#utility.yul\":18198:18329   */\n      tag_466\n        /* \"#utility.yul\":18324:18328   */\n      dup2\n        /* \"#utility.yul\":18198:18329   */\n      tag_272\n      jump\t// in\n    tag_466:\n        /* \"#utility.yul\":18190:18329   */\n      swap1\n      pop\n        /* \"#utility.yul\":17917:18336   */\n      swap2\n      swap1\n      pop\n      jump\t// out\n        /* \"#utility.yul\":18342:18513   */\n    tag_273:\n        /* \"#utility.yul\":18482:18505   */\n      0x726566756e6420706572696f64206973206f7665720000000000000000000000\n        /* \"#utility.yul\":18478:18479   */\n      0x00\n        /* \"#utility.yul\":18470:18476   */\n      dup3\n        /* \"#utility.yul\":18466:18480   */\n      add\n        /* \"#utility.yul\":18459:18506   */\n      mstore\n        /* \"#utility.yul\":18342:18513   */\n      pop\n      jump\t// out\n        /* \"#utility.yul\":18519:18885   */\n    tag_274:\n        /* \"#utility.yul\":18661:18664   */\n      0x00\n        /* \"#utility.yul\":18682:18749   */\n      tag_469\n        /* \"#utility.yul\":18746:18748   */\n      0x15\n        /* \"#utility.yul\":18741:18744   */\n      dup4\n        /* \"#utility.yul\":18682:18749   */\n      tag_224\n      jump\t// in\n    tag_469:\n        /* \"#utility.yul\":18675:18749   */\n      swap2\n      pop\n        /* \"#utility.yul\":18758:18851   */\n      tag_470\n        /* \"#utility.yul\":18847:18850   */\n      dup3\n        /* \"#utility.yul\":18758:18851   */\n      tag_273\n      jump\t// in\n    tag_470:\n        /* \"#utility.yul\":18876:18878   */\n      0x20\n        /* \"#utility.yul\":18871:18874   */\n      dup3\n        /* \"#utility.yul\":18867:18879   */\n      add\n        /* \"#utility.yul\":18860:18879   */\n      swap1\n      pop\n        /* \"#utility.yul\":18519:18885   */\n      swap2\n      swap1\n      pop\n      jump\t// out\n        /* \"#utility.yul\":18891:19310   */\n    tag_150:\n        /* \"#utility.yul\":19057:19061   */\n      0x00\n        /* \"#utility.yul\":19095:19097   */\n      0x20\n        /* \"#utility.yul\":19084:19093   */\n      dup3\n        /* \"#utility.yul\":19080:19098   */\n      add\n        /* \"#utility.yul\":19072:19098   */\n      swap1\n      pop\n        /* \"#utility.yul\":19144:19153   */\n      dup2\n        /* \"#utility.yul\":19138:19142   */\n      dup2\n        /* \"#utility.yul\":19134:19154   */\n      sub\n        /* \"#utility.yul\":19130:19131   */\n      0x00\n        /* \"#utility.yul\":19119:19128   */\n      dup4\n        /* \"#utility.yul\":19115:19132   */\n      add\n        /* \"#utility.yul\":19108:19155   */\n      mstore\n        /* \"#utility.yul\":19172:19303   */\n      tag_472\n        /* \"#utility.yul\":19298:19302   */\n      dup2\n        /* \"#utility.yul\":19172:19303   */\n      tag_274\n      jump\t// in\n    tag_472:\n        /* \"#utility.yul\":19164:19303   */\n      swap1\n      pop\n        /* \"#utility.yul\":18891:19310   */\n      swap2\n      swap1\n      pop\n      jump\t// out\n        /* \"#utility.yul\":19316:19485   */\n    tag_275:\n        /* \"#utility.yul\":19456:19477   */\n      0x796f7520646f6e74206f776e205469636b657400000000000000000000000000\n        /* \"#utility.yul\":19452:19453   */\n      0x00\n        /* \"#utility.yul\":19444:19450   */\n      dup3\n        /* \"#utility.yul\":19440:19454   */\n      add\n        /* \"#utility.yul\":19433:19478   */\n      mstore\n        /* \"#utility.yul\":19316:19485   */\n      pop\n      jump\t// out\n        /* \"#utility.yul\":19491:19857   */\n    tag_276:\n        /* \"#utility.yul\":19633:19636   */\n      0x00\n        /* \"#utility.yul\":19654:19721   */\n      tag_475\n        /* \"#utility.yul\":19718:19720   */\n      0x13\n        /* \"#utility.yul\":19713:19716   */\n      dup4\n        /* \"#utility.yul\":19654:19721   */\n      tag_224\n      jump\t// in\n    tag_475:\n        /* \"#utility.yul\":19647:19721   */\n      swap2\n      pop\n        /* \"#utility.yul\":19730:19823   */\n      tag_476\n        /* \"#utility.yul\":19819:19822   */\n      dup3\n        /* \"#utility.yul\":19730:19823   */\n      tag_275\n      jump\t// in\n    tag_476:\n        /* \"#utility.yul\":19848:19850   */\n      0x20\n        /* \"#utility.yul\":19843:19846   */\n      dup3\n        /* \"#utility.yul\":19839:19851   */\n      add\n        /* \"#utility.yul\":19832:19851   */\n      swap1\n      pop\n        /* \"#utility.yul\":19491:19857   */\n      swap2\n      swap1\n      pop\n      jump\t// out\n        /* \"#utility.yul\":19863:20282   */\n    tag_153:\n        /* \"#utility.yul\":20029:20033   */\n      0x00\n        /* \"#utility.yul\":20067:20069   */\n      0x20\n        /* \"#utility.yul\":20056:20065   */\n      dup3\n        /* \"#utility.yul\":20052:20070   */\n      add\n        /* \"#utility.yul\":20044:20070   */\n      swap1\n      pop\n        /* \"#utility.yul\":20116:20125   */\n      dup2\n        /* \"#utility.yul\":20110:20114   */\n      dup2\n        /* \"#utility.yul\":20106:20126   */\n      sub\n        /* \"#utility.yul\":20102:20103   */\n      0x00\n        /* \"#utility.yul\":20091:20100   */\n      dup4\n        /* \"#utility.yul\":20087:20104   */\n      add\n        /* \"#utility.yul\":20080:20127   */\n      mstore\n        /* \"#utility.yul\":20144:20275   */\n      tag_478\n        /* \"#utility.yul\":20270:20274   */\n      dup2\n        /* \"#utility.yul\":20144:20275   */\n      tag_276\n      jump\t// in\n    tag_478:\n        /* \"#utility.yul\":20136:20275   */\n      swap1\n      pop\n        /* \"#utility.yul\":19863:20282   */\n      swap2\n      swap1\n      pop\n      jump\t// out\n        /* \"#utility.yul\":20288:20479   */\n    tag_155:\n        /* \"#utility.yul\":20328:20331   */\n      0x00\n        /* \"#utility.yul\":20347:20367   */\n      tag_480\n        /* \"#utility.yul\":20365:20366   */\n      dup3\n        /* \"#utility.yul\":20347:20367   */\n      tag_220\n      jump\t// in\n    tag_480:\n        /* \"#utility.yul\":20342:20367   */\n      swap2\n      pop\n        /* \"#utility.yul\":20381:20401   */\n      tag_481\n        /* \"#utility.yul\":20399:20400   */\n      dup4\n        /* \"#utility.yul\":20381:20401   */\n      tag_220\n      jump\t// in\n    tag_481:\n        /* \"#utility.yul\":20376:20401   */\n      swap3\n      pop\n        /* \"#utility.yul\":20424:20425   */\n      dup3\n        /* \"#utility.yul\":20421:20422   */\n      dup3\n        /* \"#utility.yul\":20417:20426   */\n      add\n        /* \"#utility.yul\":20410:20426   */\n      swap1\n      pop\n        /* \"#utility.yul\":20445:20448   */\n      dup1\n        /* \"#utility.yul\":20442:20443   */\n      dup3\n        /* \"#utility.yul\":20439:20449   */\n      gt\n        /* \"#utility.yul\":20436:20472   */\n      iszero\n      tag_482\n      jumpi\n        /* \"#utility.yul\":20452:20470   */\n      tag_483\n      tag_252\n      jump\t// in\n    tag_483:\n        /* \"#utility.yul\":20436:20472   */\n    tag_482:\n        /* \"#utility.yul\":20288:20479   */\n      swap3\n      swap2\n      pop\n      pop\n      jump\t// out\n        /* \"#utility.yul\":20485:20658   */\n    tag_277:\n        /* \"#utility.yul\":20625:20650   */\n      0x6572726f723a6973737565207769746820726566756e64000000000000000000\n        /* \"#utility.yul\":20621:20622   */\n      0x00\n        /* \"#utility.yul\":20613:20619   */\n      dup3\n        /* \"#utility.yul\":20609:20623   */\n      add\n        /* \"#utility.yul\":20602:20651   */\n      mstore\n        /* \"#utility.yul\":20485:20658   */\n      pop\n      jump\t// out\n        /* \"#utility.yul\":20664:21030   */\n    tag_278:\n        /* \"#utility.yul\":20806:20809   */\n      0x00\n        /* \"#utility.yul\":20827:20894   */\n      tag_486\n        /* \"#utility.yul\":20891:20893   */\n      0x17\n        /* \"#utility.yul\":20886:20889   */\n      dup4\n        /* \"#utility.yul\":20827:20894   */\n      tag_224\n      jump\t// in\n    tag_486:\n        /* \"#utility.yul\":20820:20894   */\n      swap2\n      pop\n        /* \"#utility.yul\":20903:20996   */\n      tag_487\n        /* \"#utility.yul\":20992:20995   */\n      dup3\n        /* \"#utility.yul\":20903:20996   */\n      tag_277\n      jump\t// in\n    tag_487:\n        /* \"#utility.yul\":21021:21023   */\n      0x20\n        /* \"#utility.yul\":21016:21019   */\n      dup3\n        /* \"#utility.yul\":21012:21024   */\n      add\n        /* \"#utility.yul\":21005:21024   */\n      swap1\n      pop\n        /* \"#utility.yul\":20664:21030   */\n      swap2\n      swap1\n      pop\n      jump\t// out\n        /* \"#utility.yul\":21036:21455   */\n    tag_162:\n        /* \"#utility.yul\":21202:21206   */\n      0x00\n        /* \"#utility.yul\":21240:21242   */\n      0x20\n        /* \"#utility.yul\":21229:21238   */\n      dup3\n        /* \"#utility.yul\":21225:21243   */\n      add\n        /* \"#utility.yul\":21217:21243   */\n      swap1\n      pop\n        /* \"#utility.yul\":21289:21298   */\n      dup2\n        /* \"#utility.yul\":21283:21287   */\n      dup2\n        /* \"#utility.yul\":21279:21299   */\n      sub\n        /* \"#utility.yul\":21275:21276   */\n      0x00\n        /* \"#utility.yul\":21264:21273   */\n      dup4\n        /* \"#utility.yul\":21260:21277   */\n      add\n        /* \"#utility.yul\":21253:21300   */\n      mstore\n        /* \"#utility.yul\":21317:21448   */\n      tag_489\n        /* \"#utility.yul\":21443:21447   */\n      dup2\n        /* \"#utility.yul\":21317:21448   */\n      tag_278\n      jump\t// in\n    tag_489:\n        /* \"#utility.yul\":21309:21448   */\n      swap1\n      pop\n        /* \"#utility.yul\":21036:21455   */\n      swap2\n      swap1\n      pop\n      jump\t// out\n        /* \"#utility.yul\":21461:21632   */\n    tag_279:\n        /* \"#utility.yul\":21601:21624   */\n      0x796f7520616c72656479206f776e207469636b65740000000000000000000000\n        /* \"#utility.yul\":21597:21598   */\n      0x00\n        /* \"#utility.yul\":21589:21595   */\n      dup3\n        /* \"#utility.yul\":21585:21599   */\n      add\n        /* \"#utility.yul\":21578:21625   */\n      mstore\n        /* \"#utility.yul\":21461:21632   */\n      pop\n      jump\t// out\n        /* \"#utility.yul\":21638:22004   */\n    tag_280:\n        /* \"#utility.yul\":21780:21783   */\n      0x00\n        /* \"#utility.yul\":21801:21868   */\n      tag_492\n        /* \"#utility.yul\":21865:21867   */\n      0x15\n        /* \"#utility.yul\":21860:21863   */\n      dup4\n        /* \"#utility.yul\":21801:21868   */\n      tag_224\n      jump\t// in\n    tag_492:\n        /* \"#utility.yul\":21794:21868   */\n      swap2\n      pop\n        /* \"#utility.yul\":21877:21970   */\n      tag_493\n        /* \"#utility.yul\":21966:21969   */\n      dup3\n        /* \"#utility.yul\":21877:21970   */\n      tag_279\n      jump\t// in\n    tag_493:\n        /* \"#utility.yul\":21995:21997   */\n      0x20\n        /* \"#utility.yul\":21990:21993   */\n      dup3\n        /* \"#utility.yul\":21986:21998   */\n      add\n        /* \"#utility.yul\":21979:21998   */\n      swap1\n      pop\n        /* \"#utility.yul\":21638:22004   */\n      swap2\n      swap1\n      pop\n      jump\t// out\n        /* \"#utility.yul\":22010:22429   */\n    tag_202:\n        /* \"#utility.yul\":22176:22180   */\n      0x00\n        /* \"#utility.yul\":22214:22216   */\n      0x20\n        /* \"#utility.yul\":22203:22212   */\n      dup3\n        /* \"#utility.yul\":22199:22217   */\n      add\n        /* \"#utility.yul\":22191:22217   */\n      swap1\n      pop\n        /* \"#utility.yul\":22263:22272   */\n      dup2\n        /* \"#utility.yul\":22257:22261   */\n      dup2\n        /* \"#utility.yul\":22253:22273   */\n      sub\n        /* \"#utility.yul\":22249:22250   */\n      0x00\n        /* \"#utility.yul\":22238:22247   */\n      dup4\n        /* \"#utility.yul\":22234:22251   */\n      add\n        /* \"#utility.yul\":22227:22274   */\n      mstore\n        /* \"#utility.yul\":22291:22422   */\n      tag_495\n        /* \"#utility.yul\":22417:22421   */\n      dup2\n        /* \"#utility.yul\":22291:22422   */\n      tag_280\n      jump\t// in\n    tag_495:\n        /* \"#utility.yul\":22283:22422   */\n      swap1\n      pop\n        /* \"#utility.yul\":22010:22429   */\n      swap2\n      swap1\n      pop\n      jump\t// out\n\n    auxdata: 0xa2646970667358221220cfb214bffbf8332ce3b26f66076285534f4e5877c224447f5d2d5da54e11fe7864736f6c634300081e0033\n}\n",
				"bytecode": {
					"linkReferences": {},
					"object": "608060405266038d7ea4c68000600155660e35fa931a00006002556064600355603260045534801561002f575f5ffd5b50335f5f6101000a81548173ffffffffffffffffffffffffffffffffffffffff021916908373ffffffffffffffffffffffffffffffffffffffff1602179055505f5f9054906101000a900473ffffffffffffffffffffffffffffffffffffffff1673ffffffffffffffffffffffffffffffffffffffff165f73ffffffffffffffffffffffffffffffffffffffff167f8be0079c531659141344cd1fd0a4f28419497f9722a3daafe3b4186f6b6457e060405160405180910390a362093a80426100f89190610139565b60058190555061016c565b5f819050919050565b7f4e487b71000000000000000000000000000000000000000000000000000000005f52601160045260245ffd5b5f61014382610103565b915061014e83610103565b92508282019050808211156101665761016561010c565b5b92915050565b611e65806101795f395ff3fe608060405260043610610108575f3560e01c80638c7c9e0c11610094578063a005ec7a11610063578063a005ec7a146102f7578063a556719714610336578063acae79bb14610360578063ad90cf8d1461039c578063f2fde38b146103b857610108565b80638c7c9e0c1461024f5780638da5cb5b146102795780638f32d59b146102a35780639c5655d6146102cd57610108565b806353ab3648116100db57806353ab3648146101a7578063590e1ae3146101d1578063609af3a7146101e7578063715018a6146101fd5780637ab050041461021357610108565b8063332c4fde1461010c578063352371fe1461014b5780633ccfd60b146101675780634bfbe5df1461017d575b5f5ffd5b348015610117575f5ffd5b50610132600480360381019061012d919061135a565b6103e0565b6040516101429493929190611404565b60405180910390f35b61016560048036038101906101609190611581565b610527565b005b348015610172575f5ffd5b5061017b61077c565b005b348015610188575f5ffd5b50610191610898565b60405161019e9190611609565b60405180910390f35b3480156101b2575f5ffd5b506101bb61089e565b6040516101c89190611609565b60405180910390f35b3480156101dc575f5ffd5b506101e56108a4565b005b3480156101f2575f5ffd5b506101fb610ac6565b005b348015610208575f5ffd5b50610211610ce8565b005b34801561021e575f5ffd5b506102396004803603810190610234919061167c565b610db3565b6040516102469190611609565b60405180910390f35b34801561025a575f5ffd5b50610263610dc8565b6040516102709190611609565b60405180910390f35b348015610284575f5ffd5b5061028d610dce565b60405161029a91906116b6565b60405180910390f35b3480156102ae575f5ffd5b506102b7610df5565b6040516102c491906116e9565b60405180910390f35b3480156102d8575f5ffd5b506102e1610e4a565b6040516102ee9190611609565b60405180910390f35b348015610302575f5ffd5b5061031d6004803603810190610318919061135a565b610e50565b60405161032d9493929190611404565b60405180910390f35b348015610341575f5ffd5b5061034a610f97565b6040516103579190611609565b60405180910390f35b34801561036b575f5ffd5b506103866004803603810190610381919061167c565b610f9d565b6040516103939190611609565b60405180910390f35b6103b660048036038101906103b19190611581565b610fb2565b005b3480156103c3575f5ffd5b506103de60048036038101906103d9919061167c565b611207565b005b600981815481106103ef575f80fd5b905f5260205f2090600402015f91509050805f01805461040e9061172f565b80601f016020809104026020016040519081016040528092919081815260200182805461043a9061172f565b80156104855780601f1061045c57610100808354040283529160200191610485565b820191905f5260205f20905b81548152906001019060200180831161046857829003601f168201915b50505050509080600101805461049a9061172f565b80601f01602080910402602001604051908101604052809291908181526020018280546104c69061172f565b80156105115780601f106104e857610100808354040283529160200191610511565b820191905f5260205f20905b8154815290600101906020018083116104f457829003601f168201915b5050505050908060020154908060030154905084565b600154341461056b576040517f08c379a0000000000000000000000000000000000000000000000000000000008152600401610562906117cf565b60405180910390fd5b5f600354116105af576040517f08c379a00000000000000000000000000000000000000000000000000000000081526004016105a690611837565b60405180910390fd5b5f60065f3373ffffffffffffffffffffffffffffffffffffffff1673ffffffffffffffffffffffffffffffffffffffff1681526020019081526020015f20541461062e576040517f08c379a00000000000000000000000000000000000000000000000000000000081526004016106259061189f565b60405180910390fd5b600160035f82825461064091906118ea565b925050819055505f600354606461065791906118ea565b90506008604051806080016040528086815260200185815260200184815260200183815250908060018154018082558091505060019003905f5260205f2090600402015f909190919091505f820151815f0190816106b59190611abd565b5060208201518160010190816106cb9190611abd565b50604082015181600201556060820151816003015550508060065f3373ffffffffffffffffffffffffffffffffffffffff1673ffffffffffffffffffffffffffffffffffffffff1681526020019081526020015f20819055503373ffffffffffffffffffffffffffffffffffffffff167f7d1cd329a11d8807f0374627923b6cd32942b74b38b1accf931d70a507ff739e8260015460405161076e929190611b8c565b60405180910390a250505050565b610784610df5565b61078c575f5ffd5b5f4790505f610799610dce565b73ffffffffffffffffffffffffffffffffffffffff16826040516107bc90611be0565b5f6040518083038185875af1925050503d805f81146107f6576040519150601f19603f3d011682016040523d82523d5f602084013e6107fb565b606091505b505090508061083f576040517f08c379a000000000000000000000000000000000000000000000000000000000815260040161083690611c3e565b60405180910390fd5b610847610dce565b73ffffffffffffffffffffffffffffffffffffffff167f884edad9ce6fa2440d8a54cc123490eb96d2768479d49ff9c7366125a94243648360405161088c9190611609565b60405180910390a25050565b60055481565b60025481565b5f60065f3373ffffffffffffffffffffffffffffffffffffffff1673ffffffffffffffffffffffffffffffffffffffff1681526020019081526020015f205490506005544210610929576040517f08c379a000000000000000000000000000000000000000000000000000000000815260040161092090611ca6565b60405180910390fd5b5f811161096b576040517f08c379a000000000000000000000000000000000000000000000000000000000815260040161096290611d0e565b60405180910390fd5b5f60065f3373ffffffffffffffffffffffffffffffffffffffff1673ffffffffffffffffffffffffffffffffffffffff1681526020019081526020015f2081905550600160035f8282546109bf9190611d2c565b925050819055505f3373ffffffffffffffffffffffffffffffffffffffff166001546040516109ed90611be0565b5f6040518083038185875af1925050503d805f8114610a27576040519150601f19603f3d011682016040523d82523d5f602084013e610a2c565b606091505b5050905080610a70576040517f08c379a0000000000000000000000000000000000000000000000000000000008152600401610a6790611da9565b60405180910390fd5b3373ffffffffffffffffffffffffffffffffffffffff167f73f04af9dcc582a923ec15d3eea990fe34adabfff2879e28d44572e01a54abb683600154604051610aba929190611b8c565b60405180910390a25050565b5f60075f3373ffffffffffffffffffffffffffffffffffffffff1673ffffffffffffffffffffffffffffffffffffffff1681526020019081526020015f205490506005544210610b4b576040517f08c379a0000000000000000000000000000000000000000000000000000000008152600401610b4290611ca6565b60405180910390fd5b5f8111610b8d576040517f08c379a0000000000000000000000000000000000000000000000000000000008152600401610b8490611d0e565b60405180910390fd5b5f60075f3373ffffffffffffffffffffffffffffffffffffffff1673ffffffffffffffffffffffffffffffffffffffff1681526020019081526020015f2081905550600160045f828254610be19190611d2c565b925050819055505f3373ffffffffffffffffffffffffffffffffffffffff16600254604051610c0f90611be0565b5f6040518083038185875af1925050503d805f8114610c49576040519150601f19603f3d011682016040523d82523d5f602084013e610c4e565b606091505b5050905080610c92576040517f08c379a0000000000000000000000000000000000000000000000000000000008152600401610c8990611da9565b60405180910390fd5b3373ffffffffffffffffffffffffffffffffffffffff167f73f04af9dcc582a923ec15d3eea990fe34adabfff2879e28d44572e01a54abb683600254604051610cdc929190611b8c565b60405180910390a25050565b610cf0610df5565b610cf8575f5ffd5b5f73ffffffffffffffffffffffffffffffffffffffff165f5f9054906101000a900473ffffffffffffffffffffffffffffffffffffffff1673ffffffffffffffffffffffffffffffffffffffff167f8be0079c531659141344cd1fd0a4f28419497f9722a3daafe3b4186f6b6457e060405160405180910390a35f5f5f6101000a81548173ffffffffffffffffffffffffffffffffffffffff021916908373ffffffffffffffffffffffffffffffffffffffff160217905550565b6007602052805f5260405f205f915090505481565b60015481565b5f5f5f9054906101000a900473ffffffffffffffffffffffffffffffffffffffff16905090565b5f5f5f9054906101000a900473ffffffffffffffffffffffffffffffffffffffff1673ffffffffffffffffffffffffffffffffffffffff163373ffffffffffffffffffffffffffffffffffffffff1614905090565b60035481565b60088181548110610e5f575f80fd5b905f5260205f2090600402015f91509050805f018054610e7e9061172f565b80601f0160208091040260200160405190810160405280929190818152602001828054610eaa9061172f565b8015610ef55780601f10610ecc57610100808354040283529160200191610ef5565b820191905f5260205f20905b815481529060010190602001808311610ed857829003601f168201915b505050505090806001018054610f0a9061172f565b80601f0160208091040260200160405190810160405280929190818152602001828054610f369061172f565b8015610f815780601f10610f5857610100808354040283529160200191610f81565b820191905f5260205f20905b815481529060010190602001808311610f6457829003601f168201915b5050505050908060020154908060030154905084565b60045481565b6006602052805f5260405f205f915090505481565b6002543414610ff6576040517f08c379a0000000000000000000000000000000000000000000000000000000008152600401610fed906117cf565b60405180910390fd5b5f6004541161103a576040517f08c379a000000000000000000000000000000000000000000000000000000000815260040161103190611837565b60405180910390fd5b5f60075f3373ffffffffffffffffffffffffffffffffffffffff1673ffffffffffffffffffffffffffffffffffffffff1681526020019081526020015f2054146110b9576040517f08c379a00000000000000000000000000000000000000000000000000000000081526004016110b090611e11565b60405180910390fd5b600160045f8282546110cb91906118ea565b925050819055505f60045460326110e291906118ea565b90506009604051806080016040528086815260200185815260200184815260200183815250908060018154018082558091505060019003905f5260205f2090600402015f909190919091505f820151815f0190816111409190611abd565b5060208201518160010190816111569190611abd565b50604082015181600201556060820151816003015550508060075f3373ffffffffffffffffffffffffffffffffffffffff1673ffffffffffffffffffffffffffffffffffffffff1681526020019081526020015f20819055503373ffffffffffffffffffffffffffffffffffffffff167f7d1cd329a11d8807f0374627923b6cd32942b74b38b1accf931d70a507ff739e826002546040516111f9929190611b8c565b60405180910390a250505050565b61120f610df5565b611217575f5ffd5b61122081611223565b50565b5f73ffffffffffffffffffffffffffffffffffffffff168173ffffffffffffffffffffffffffffffffffffffff160361125a575f5ffd5b8073ffffffffffffffffffffffffffffffffffffffff165f5f9054906101000a900473ffffffffffffffffffffffffffffffffffffffff1673ffffffffffffffffffffffffffffffffffffffff167f8be0079c531659141344cd1fd0a4f28419497f9722a3daafe3b4186f6b6457e060405160405180910390a3805f5f6101000a81548173ffffffffffffffffffffffffffffffffffffffff021916908373ffffffffffffffffffffffffffffffffffffffff16021790555050565b5f604051905090565b5f5ffd5b5f5ffd5b5f819050919050565b61133981611327565b8114611343575f5ffd5b50565b5f8135905061135481611330565b92915050565b5f6020828403121561136f5761136e61131f565b5b5f61137c84828501611346565b91505092915050565b5f81519050919050565b5f82825260208201905092915050565b8281835e5f83830152505050565b5f601f19601f8301169050919050565b5f6113c782611385565b6113d1818561138f565b93506113e181856020860161139f565b6113ea816113ad565b840191505092915050565b6113fe81611327565b82525050565b5f6080820190508181035f83015261141c81876113bd565b9050818103602083015261143081866113bd565b905061143f60408301856113f5565b61144c60608301846113f5565b95945050505050565b5f5ffd5b5f5ffd5b7f4e487b71000000000000000000000000000000000000000000000000000000005f52604160045260245ffd5b611493826113ad565b810181811067ffffffffffffffff821117156114b2576114b161145d565b5b80604052505050565b5f6114c4611316565b90506114d0828261148a565b919050565b5f67ffffffffffffffff8211156114ef576114ee61145d565b5b6114f8826113ad565b9050602081019050919050565b828183375f83830152505050565b5f611525611520846114d5565b6114bb565b90508281526020810184848401111561154157611540611459565b5b61154c848285611505565b509392505050565b5f82601f83011261156857611567611455565b5b8135611578848260208601611513565b91505092915050565b5f5f5f606084860312156115985761159761131f565b5b5f84013567ffffffffffffffff8111156115b5576115b4611323565b5b6115c186828701611554565b935050602084013567ffffffffffffffff8111156115e2576115e1611323565b5b6115ee86828701611554565b92505060406115ff86828701611346565b9150509250925092565b5f60208201905061161c5f8301846113f5565b92915050565b5f73ffffffffffffffffffffffffffffffffffffffff82169050919050565b5f61164b82611622565b9050919050565b61165b81611641565b8114611665575f5ffd5b50565b5f8135905061167681611652565b92915050565b5f602082840312156116915761169061131f565b5b5f61169e84828501611668565b91505092915050565b6116b081611641565b82525050565b5f6020820190506116c95f8301846116a7565b92915050565b5f8115159050919050565b6116e3816116cf565b82525050565b5f6020820190506116fc5f8301846116da565b92915050565b7f4e487b71000000000000000000000000000000000000000000000000000000005f52602260045260245ffd5b5f600282049050600182168061174657607f821691505b60208210810361175957611758611702565b5b50919050565b7f796f75206861766520746f2070617920657861637420616d6f756e74206f66205f8201527f6574680000000000000000000000000000000000000000000000000000000000602082015250565b5f6117b960238361138f565b91506117c48261175f565b604082019050919050565b5f6020820190508181035f8301526117e6816117ad565b9050919050565b7f7365617473206172652066756c6c0000000000000000000000000000000000005f82015250565b5f611821600e8361138f565b915061182c826117ed565b602082019050919050565b5f6020820190508181035f83015261184e81611815565b9050919050565b7f796f7520616c7265616479206f776e2061207469636b657400000000000000005f82015250565b5f61188960188361138f565b915061189482611855565b602082019050919050565b5f6020820190508181035f8301526118b68161187d565b9050919050565b7f4e487b71000000000000000000000000000000000000000000000000000000005f52601160045260245ffd5b5f6118f482611327565b91506118ff83611327565b9250828203905081811115611917576119166118bd565b5b92915050565b5f819050815f5260205f209050919050565b5f6020601f8301049050919050565b5f82821b905092915050565b5f600883026119797fffffffffffffffffffffffffffffffffffffffffffffffffffffffffffffffff8261193e565b611983868361193e565b95508019841693508086168417925050509392505050565b5f819050919050565b5f6119be6119b96119b484611327565b61199b565b611327565b9050919050565b5f819050919050565b6119d7836119a4565b6119eb6119e3826119c5565b84845461194a565b825550505050565b5f5f905090565b611a026119f3565b611a0d8184846119ce565b505050565b5b81811015611a3057611a255f826119fa565b600181019050611a13565b5050565b601f821115611a7557611a468161191d565b611a4f8461192f565b81016020851015611a5e578190505b611a72611a6a8561192f565b830182611a12565b50505b505050565b5f82821c905092915050565b5f611a955f1984600802611a7a565b1980831691505092915050565b5f611aad8383611a86565b9150826002028217905092915050565b611ac682611385565b67ffffffffffffffff811115611adf57611ade61145d565b5b611ae9825461172f565b611af4828285611a34565b5f60209050601f831160018114611b25575f8415611b13578287015190505b611b1d8582611aa2565b865550611b84565b601f198416611b338661191d565b5f5b82811015611b5a57848901518255600182019150602085019450602081019050611b35565b86831015611b775784890151611b73601f891682611a86565b8355505b6001600288020188555050505b505050505050565b5f604082019050611b9f5f8301856113f5565b611bac60208301846113f5565b9392505050565b5f81905092915050565b50565b5f611bcb5f83611bb3565b9150611bd682611bbd565b5f82019050919050565b5f611bea82611bc0565b9150819050919050565b7f6572726f723a6661696c20746f207769746864726177206574686572000000005f82015250565b5f611c28601c8361138f565b9150611c3382611bf4565b602082019050919050565b5f6020820190508181035f830152611c5581611c1c565b9050919050565b7f726566756e6420706572696f64206973206f76657200000000000000000000005f82015250565b5f611c9060158361138f565b9150611c9b82611c5c565b602082019050919050565b5f6020820190508181035f830152611cbd81611c84565b9050919050565b7f796f7520646f6e74206f776e205469636b6574000000000000000000000000005f82015250565b5f611cf860138361138f565b9150611d0382611cc4565b602082019050919050565b5f6020820190508181035f830152611d2581611cec565b9050919050565b5f611d3682611327565b9150611d4183611327565b9250828201905080821115611d5957611d586118bd565b5b92915050565b7f6572726f723a6973737565207769746820726566756e640000000000000000005f82015250565b5f611d9360178361138f565b9150611d9e82611d5f565b602082019050919050565b5f6020820190508181035f830152611dc081611d87565b9050919050565b7f796f7520616c72656479206f776e207469636b657400000000000000000000005f82015250565b5f611dfb60158361138f565b9150611e0682611dc7565b602082019050919050565b5f6020820190508181035f830152611e2881611def565b905091905056fea2646970667358221220cfb214bffbf8332ce3b26f66076285534f4e5877c224447f5d2d5da54e11fe7864736f6c634300081e0033",
					"opcodes": "PUSH1 0x80 PUSH1 0x40 MSTORE PUSH7 0x38D7EA4C68000 PUSH1 0x1 SSTORE PUSH7 0xE35FA931A0000 PUSH1 0x2 SSTORE PUSH1 0x64 PUSH1 0x3 SSTORE PUSH1 0x32 PUSH1 0x4 SSTORE CALLVALUE DUP1 ISZERO PUSH2 0x2F JUMPI PUSH0 PUSH0 REVERT JUMPDEST POP CALLER PUSH0 PUSH0 PUSH2 0x100 EXP DUP2 SLOAD DUP2 PUSH20 0xFFFFFFFFFFFFFFFFFFFFFFFFFFFFFFFFFFFFFFFF MUL NOT AND SWAP1 DUP4 PUSH20 0xFFFFFFFFFFFFFFFFFFFFFFFFFFFFFFFFFFFFFFFF AND MUL OR SWAP1 SSTORE POP PUSH0 PUSH0 SWAP1 SLOAD SWAP1 PUSH2 0x100 EXP SWAP1 DIV PUSH20 0xFFFFFFFFFFFFFFFFFFFFFFFFFFFFFFFFFFFFFFFF AND PUSH20 0xFFFFFFFFFFFFFFFFFFFFFFFFFFFFFFFFFFFFFFFF AND PUSH0 PUSH20 0xFFFFFFFFFFFFFFFFFFFFFFFFFFFFFFFFFFFFFFFF AND PUSH32 0x8BE0079C531659141344CD1FD0A4F28419497F9722A3DAAFE3B4186F6B6457E0 PUSH1 0x40 MLOAD PUSH1 0x40 MLOAD DUP1 SWAP2 SUB SWAP1 LOG3 PUSH3 0x93A80 TIMESTAMP PUSH2 0xF8 SWAP2 SWAP1 PUSH2 0x139 JUMP JUMPDEST PUSH1 0x5 DUP2 SWAP1 SSTORE POP PUSH2 0x16C JUMP JUMPDEST PUSH0 DUP2 SWAP1 POP SWAP2 SWAP1 POP JUMP JUMPDEST PUSH32 0x4E487B7100000000000000000000000000000000000000000000000000000000 PUSH0 MSTORE PUSH1 0x11 PUSH1 0x4 MSTORE PUSH1 0x24 PUSH0 REVERT JUMPDEST PUSH0 PUSH2 0x143 DUP3 PUSH2 0x103 JUMP JUMPDEST SWAP2 POP PUSH2 0x14E DUP4 PUSH2 0x103 JUMP JUMPDEST SWAP3 POP DUP3 DUP3 ADD SWAP1 POP DUP1 DUP3 GT ISZERO PUSH2 0x166 JUMPI PUSH2 0x165 PUSH2 0x10C JUMP JUMPDEST JUMPDEST SWAP3 SWAP2 POP POP JUMP JUMPDEST PUSH2 0x1E65 DUP1 PUSH2 0x179 PUSH0 CODECOPY PUSH0 RETURN INVALID PUSH1 0x80 PUSH1 0x40 MSTORE PUSH1 0x4 CALLDATASIZE LT PUSH2 0x108 JUMPI PUSH0 CALLDATALOAD PUSH1 0xE0 SHR DUP1 PUSH4 0x8C7C9E0C GT PUSH2 0x94 JUMPI DUP1 PUSH4 0xA005EC7A GT PUSH2 0x63 JUMPI DUP1 PUSH4 0xA005EC7A EQ PUSH2 0x2F7 JUMPI DUP1 PUSH4 0xA5567197 EQ PUSH2 0x336 JUMPI DUP1 PUSH4 0xACAE79BB EQ PUSH2 0x360 JUMPI DUP1 PUSH4 0xAD90CF8D EQ PUSH2 0x39C JUMPI DUP1 PUSH4 0xF2FDE38B EQ PUSH2 0x3B8 JUMPI PUSH2 0x108 JUMP JUMPDEST DUP1 PUSH4 0x8C7C9E0C EQ PUSH2 0x24F JUMPI DUP1 PUSH4 0x8DA5CB5B EQ PUSH2 0x279 JUMPI DUP1 PUSH4 0x8F32D59B EQ PUSH2 0x2A3 JUMPI DUP1 PUSH4 0x9C5655D6 EQ PUSH2 0x2CD JUMPI PUSH2 0x108 JUMP JUMPDEST DUP1 PUSH4 0x53AB3648 GT PUSH2 0xDB JUMPI DUP1 PUSH4 0x53AB3648 EQ PUSH2 0x1A7 JUMPI DUP1 PUSH4 0x590E1AE3 EQ PUSH2 0x1D1 JUMPI DUP1 PUSH4 0x609AF3A7 EQ PUSH2 0x1E7 JUMPI DUP1 PUSH4 0x715018A6 EQ PUSH2 0x1FD JUMPI DUP1 PUSH4 0x7AB05004 EQ PUSH2 0x213 JUMPI PUSH2 0x108 JUMP JUMPDEST DUP1 PUSH4 0x332C4FDE EQ PUSH2 0x10C JUMPI DUP1 PUSH4 0x352371FE EQ PUSH2 0x14B JUMPI DUP1 PUSH4 0x3CCFD60B EQ PUSH2 0x167 JUMPI DUP1 PUSH4 0x4BFBE5DF EQ PUSH2 0x17D JUMPI JUMPDEST PUSH0 PUSH0 REVERT JUMPDEST CALLVALUE DUP1 ISZERO PUSH2 0x117 JUMPI PUSH0 PUSH0 REVERT JUMPDEST POP PUSH2 0x132 PUSH1 0x4 DUP1 CALLDATASIZE SUB DUP2 ADD SWAP1 PUSH2 0x12D SWAP2 SWAP1 PUSH2 0x135A JUMP JUMPDEST PUSH2 0x3E0 JUMP JUMPDEST PUSH1 0x40 MLOAD PUSH2 0x142 SWAP5 SWAP4 SWAP3 SWAP2 SWAP1 PUSH2 0x1404 JUMP JUMPDEST PUSH1 0x40 MLOAD DUP1 SWAP2 SUB SWAP1 RETURN JUMPDEST PUSH2 0x165 PUSH1 0x4 DUP1 CALLDATASIZE SUB DUP2 ADD SWAP1 PUSH2 0x160 SWAP2 SWAP1 PUSH2 0x1581 JUMP JUMPDEST PUSH2 0x527 JUMP JUMPDEST STOP JUMPDEST CALLVALUE DUP1 ISZERO PUSH2 0x172 JUMPI PUSH0 PUSH0 REVERT JUMPDEST POP PUSH2 0x17B PUSH2 0x77C JUMP JUMPDEST STOP JUMPDEST CALLVALUE DUP1 ISZERO PUSH2 0x188 JUMPI PUSH0 PUSH0 REVERT JUMPDEST POP PUSH2 0x191 PUSH2 0x898 JUMP JUMPDEST PUSH1 0x40 MLOAD PUSH2 0x19E SWAP2 SWAP1 PUSH2 0x1609 JUMP JUMPDEST PUSH1 0x40 MLOAD DUP1 SWAP2 SUB SWAP1 RETURN JUMPDEST CALLVALUE DUP1 ISZERO PUSH2 0x1B2 JUMPI PUSH0 PUSH0 REVERT JUMPDEST POP PUSH2 0x1BB PUSH2 0x89E JUMP JUMPDEST PUSH1 0x40 MLOAD PUSH2 0x1C8 SWAP2 SWAP1 PUSH2 0x1609 JUMP JUMPDEST PUSH1 0x40 MLOAD DUP1 SWAP2 SUB SWAP1 RETURN JUMPDEST CALLVALUE DUP1 ISZERO PUSH2 0x1DC JUMPI PUSH0 PUSH0 REVERT JUMPDEST POP PUSH2 0x1E5 PUSH2 0x8A4 JUMP JUMPDEST STOP JUMPDEST CALLVALUE DUP1 ISZERO PUSH2 0x1F2 JUMPI PUSH0 PUSH0 REVERT JUMPDEST POP PUSH2 0x1FB PUSH2 0xAC6 JUMP JUMPDEST STOP JUMPDEST CALLVALUE DUP1 ISZERO PUSH2 0x208 JUMPI PUSH0 PUSH0 REVERT JUMPDEST POP PUSH2 0x211 PUSH2 0xCE8 JUMP JUMPDEST STOP JUMPDEST CALLVALUE DUP1 ISZERO PUSH2 0x21E JUMPI PUSH0 PUSH0 REVERT JUMPDEST POP PUSH2 0x239 PUSH1 0x4 DUP1 CALLDATASIZE SUB DUP2 ADD SWAP1 PUSH2 0x234 SWAP2 SWAP1 PUSH2 0x167C JUMP JUMPDEST PUSH2 0xDB3 JUMP JUMPDEST PUSH1 0x40 MLOAD PUSH2 0x246 SWAP2 SWAP1 PUSH2 0x1609 JUMP JUMPDEST PUSH1 0x40 MLOAD DUP1 SWAP2 SUB SWAP1 RETURN JUMPDEST CALLVALUE DUP1 ISZERO PUSH2 0x25A JUMPI PUSH0 PUSH0 REVERT JUMPDEST POP PUSH2 0x263 PUSH2 0xDC8 JUMP JUMPDEST PUSH1 0x40 MLOAD PUSH2 0x270 SWAP2 SWAP1 PUSH2 0x1609 JUMP JUMPDEST PUSH1 0x40 MLOAD DUP1 SWAP2 SUB SWAP1 RETURN JUMPDEST CALLVALUE DUP1 ISZERO PUSH2 0x284 JUMPI PUSH0 PUSH0 REVERT JUMPDEST POP PUSH2 0x28D PUSH2 0xDCE JUMP JUMPDEST PUSH1 0x40 MLOAD PUSH2 0x29A SWAP2 SWAP1 PUSH2 0x16B6 JUMP JUMPDEST PUSH1 0x40 MLOAD DUP1 SWAP2 SUB SWAP1 RETURN JUMPDEST CALLVALUE DUP1 ISZERO PUSH2 0x2AE JUMPI PUSH0 PUSH0 REVERT JUMPDEST POP PUSH2 0x2B7 PUSH2 0xDF5 JUMP JUMPDEST PUSH1 0x40 MLOAD PUSH2 0x2C4 SWAP2 SWAP1 PUSH2 0x16E9 JUMP JUMPDEST PUSH1 0x40 MLOAD DUP1 SWAP2 SUB SWAP1 RETURN JUMPDEST CALLVALUE DUP1 ISZERO PUSH2 0x2D8 JUMPI PUSH0 PUSH0 REVERT JUMPDEST POP PUSH2 0x2E1 PUSH2 0xE4A JUMP JUMPDEST PUSH1 0x40 MLOAD PUSH2 0x2EE SWAP2 SWAP1 PUSH2 0x1609 JUMP JUMPDEST PUSH1 0x40 MLOAD DUP1 SWAP2 SUB SWAP1 RETURN JUMPDEST CALLVALUE DUP1 ISZERO PUSH2 0x302 JUMPI PUSH0 PUSH0 REVERT JUMPDEST POP PUSH2 0x31D PUSH1 0x4 DUP1 CALLDATASIZE SUB DUP2 ADD SWAP1 PUSH2 0x318 SWAP2 SWAP1 PUSH2 0x135A JUMP JUMPDEST PUSH2 0xE50 JUMP JUMPDEST PUSH1 0x40 MLOAD PUSH2 0x32D SWAP5 SWAP4 SWAP3 SWAP2 SWAP1 PUSH2 0x1404 JUMP JUMPDEST PUSH1 0x40 MLOAD DUP1 SWAP2 SUB SWAP1 RETURN JUMPDEST CALLVALUE DUP1 ISZERO PUSH2 0x341 JUMPI PUSH0 PUSH0 REVERT JUMPDEST POP PUSH2 0x34A PUSH2 0xF97 JUMP JUMPDEST PUSH1 0x40 MLOAD PUSH2 0x357 SWAP2 SWAP1 PUSH2 0x1609 JUMP JUMPDEST PUSH1 0x40 MLOAD DUP1 SWAP2 SUB SWAP1 RETURN JUMPDEST CALLVALUE DUP1 ISZERO PUSH2 0x36B JUMPI PUSH0 PUSH0 REVERT JUMPDEST POP PUSH2 0x386 PUSH1 0x4 DUP1 CALLDATASIZE SUB DUP2 ADD SWAP1 PUSH2 0x381 SWAP2 SWAP1 PUSH2 0x167C JUMP JUMPDEST PUSH2 0xF9D JUMP JUMPDEST PUSH1 0x40 MLOAD PUSH2 0x393 SWAP2 SWAP1 PUSH2 0x1609 JUMP JUMPDEST PUSH1 0x40 MLOAD DUP1 SWAP2 SUB SWAP1 RETURN JUMPDEST PUSH2 0x3B6 PUSH1 0x4 DUP1 CALLDATASIZE SUB DUP2 ADD SWAP1 PUSH2 0x3B1 SWAP2 SWAP1 PUSH2 0x1581 JUMP JUMPDEST PUSH2 0xFB2 JUMP JUMPDEST STOP JUMPDEST CALLVALUE DUP1 ISZERO PUSH2 0x3C3 JUMPI PUSH0 PUSH0 REVERT JUMPDEST POP PUSH2 0x3DE PUSH1 0x4 DUP1 CALLDATASIZE SUB DUP2 ADD SWAP1 PUSH2 0x3D9 SWAP2 SWAP1 PUSH2 0x167C JUMP JUMPDEST PUSH2 0x1207 JUMP JUMPDEST STOP JUMPDEST PUSH1 0x9 DUP2 DUP2 SLOAD DUP2 LT PUSH2 0x3EF JUMPI PUSH0 DUP1 REVERT JUMPDEST SWAP1 PUSH0 MSTORE PUSH1 0x20 PUSH0 KECCAK256 SWAP1 PUSH1 0x4 MUL ADD PUSH0 SWAP2 POP SWAP1 POP DUP1 PUSH0 ADD DUP1 SLOAD PUSH2 0x40E SWAP1 PUSH2 0x172F JUMP JUMPDEST DUP1 PUSH1 0x1F ADD PUSH1 0x20 DUP1 SWAP2 DIV MUL PUSH1 0x20 ADD PUSH1 0x40 MLOAD SWAP1 DUP2 ADD PUSH1 0x40 MSTORE DUP1 SWAP3 SWAP2 SWAP1 DUP2 DUP2 MSTORE PUSH1 0x20 ADD DUP3 DUP1 SLOAD PUSH2 0x43A SWAP1 PUSH2 0x172F JUMP JUMPDEST DUP1 ISZERO PUSH2 0x485 JUMPI DUP1 PUSH1 0x1F LT PUSH2 0x45C JUMPI PUSH2 0x100 DUP1 DUP4 SLOAD DIV MUL DUP4 MSTORE SWAP2 PUSH1 0x20 ADD SWAP2 PUSH2 0x485 JUMP JUMPDEST DUP3 ADD SWAP2 SWAP1 PUSH0 MSTORE PUSH1 0x20 PUSH0 KECCAK256 SWAP1 JUMPDEST DUP2 SLOAD DUP2 MSTORE SWAP1 PUSH1 0x1 ADD SWAP1 PUSH1 0x20 ADD DUP1 DUP4 GT PUSH2 0x468 JUMPI DUP3 SWAP1 SUB PUSH1 0x1F AND DUP3 ADD SWAP2 JUMPDEST POP POP POP POP POP SWAP1 DUP1 PUSH1 0x1 ADD DUP1 SLOAD PUSH2 0x49A SWAP1 PUSH2 0x172F JUMP JUMPDEST DUP1 PUSH1 0x1F ADD PUSH1 0x20 DUP1 SWAP2 DIV MUL PUSH1 0x20 ADD PUSH1 0x40 MLOAD SWAP1 DUP2 ADD PUSH1 0x40 MSTORE DUP1 SWAP3 SWAP2 SWAP1 DUP2 DUP2 MSTORE PUSH1 0x20 ADD DUP3 DUP1 SLOAD PUSH2 0x4C6 SWAP1 PUSH2 0x172F JUMP JUMPDEST DUP1 ISZERO PUSH2 0x511 JUMPI DUP1 PUSH1 0x1F LT PUSH2 0x4E8 JUMPI PUSH2 0x100 DUP1 DUP4 SLOAD DIV MUL DUP4 MSTORE SWAP2 PUSH1 0x20 ADD SWAP2 PUSH2 0x511 JUMP JUMPDEST DUP3 ADD SWAP2 SWAP1 PUSH0 MSTORE PUSH1 0x20 PUSH0 KECCAK256 SWAP1 JUMPDEST DUP2 SLOAD DUP2 MSTORE SWAP1 PUSH1 0x1 ADD SWAP1 PUSH1 0x20 ADD DUP1 DUP4 GT PUSH2 0x4F4 JUMPI DUP3 SWAP1 SUB PUSH1 0x1F AND DUP3 ADD SWAP2 JUMPDEST POP POP POP POP POP SWAP1 DUP1 PUSH1 0x2 ADD SLOAD SWAP1 DUP1 PUSH1 0x3 ADD SLOAD SWAP1 POP DUP5 JUMP JUMPDEST PUSH1 0x1 SLOAD CALLVALUE EQ PUSH2 0x56B JUMPI PUSH1 0x40 MLOAD PUSH32 0x8C379A000000000000000000000000000000000000000000000000000000000 DUP2 MSTORE PUSH1 0x4 ADD PUSH2 0x562 SWAP1 PUSH2 0x17CF JUMP JUMPDEST PUSH1 0x40 MLOAD DUP1 SWAP2 SUB SWAP1 REVERT JUMPDEST PUSH0 PUSH1 0x3 SLOAD GT PUSH2 0x5AF JUMPI PUSH1 0x40 MLOAD PUSH32 0x8C379A000000000000000000000000000000000000000000000000000000000 DUP2 MSTORE PUSH1 0x4 ADD PUSH2 0x5A6 SWAP1 PUSH2 0x1837 JUMP JUMPDEST PUSH1 0x40 MLOAD DUP1 SWAP2 SUB SWAP1 REVERT JUMPDEST PUSH0 PUSH1 0x6 PUSH0 CALLER PUSH20 0xFFFFFFFFFFFFFFFFFFFFFFFFFFFFFFFFFFFFFFFF AND PUSH20 0xFFFFFFFFFFFFFFFFFFFFFFFFFFFFFFFFFFFFFFFF AND DUP2 MSTORE PUSH1 0x20 ADD SWAP1 DUP2 MSTORE PUSH1 0x20 ADD PUSH0 KECCAK256 SLOAD EQ PUSH2 0x62E JUMPI PUSH1 0x40 MLOAD PUSH32 0x8C379A000000000000000000000000000000000000000000000000000000000 DUP2 MSTORE PUSH1 0x4 ADD PUSH2 0x625 SWAP1 PUSH2 0x189F JUMP JUMPDEST PUSH1 0x40 MLOAD DUP1 SWAP2 SUB SWAP1 REVERT JUMPDEST PUSH1 0x1 PUSH1 0x3 PUSH0 DUP3 DUP3 SLOAD PUSH2 0x640 SWAP2 SWAP1 PUSH2 0x18EA JUMP JUMPDEST SWAP3 POP POP DUP2 SWAP1 SSTORE POP PUSH0 PUSH1 0x3 SLOAD PUSH1 0x64 PUSH2 0x657 SWAP2 SWAP1 PUSH2 0x18EA JUMP JUMPDEST SWAP1 POP PUSH1 0x8 PUSH1 0x40 MLOAD DUP1 PUSH1 0x80 ADD PUSH1 0x40 MSTORE DUP1 DUP7 DUP2 MSTORE PUSH1 0x20 ADD DUP6 DUP2 MSTORE PUSH1 0x20 ADD DUP5 DUP2 MSTORE PUSH1 0x20 ADD DUP4 DUP2 MSTORE POP SWAP1 DUP1 PUSH1 0x1 DUP2 SLOAD ADD DUP1 DUP3 SSTORE DUP1 SWAP2 POP POP PUSH1 0x1 SWAP1 SUB SWAP1 PUSH0 MSTORE PUSH1 0x20 PUSH0 KECCAK256 SWAP1 PUSH1 0x4 MUL ADD PUSH0 SWAP1 SWAP2 SWAP1 SWAP2 SWAP1 SWAP2 POP PUSH0 DUP3 ADD MLOAD DUP2 PUSH0 ADD SWAP1 DUP2 PUSH2 0x6B5 SWAP2 SWAP1 PUSH2 0x1ABD JUMP JUMPDEST POP PUSH1 0x20 DUP3 ADD MLOAD DUP2 PUSH1 0x1 ADD SWAP1 DUP2 PUSH2 0x6CB SWAP2 SWAP1 PUSH2 0x1ABD JUMP JUMPDEST POP PUSH1 0x40 DUP3 ADD MLOAD DUP2 PUSH1 0x2 ADD SSTORE PUSH1 0x60 DUP3 ADD MLOAD DUP2 PUSH1 0x3 ADD SSTORE POP POP DUP1 PUSH1 0x6 PUSH0 CALLER PUSH20 0xFFFFFFFFFFFFFFFFFFFFFFFFFFFFFFFFFFFFFFFF AND PUSH20 0xFFFFFFFFFFFFFFFFFFFFFFFFFFFFFFFFFFFFFFFF AND DUP2 MSTORE PUSH1 0x20 ADD SWAP1 DUP2 MSTORE PUSH1 0x20 ADD PUSH0 KECCAK256 DUP2 SWAP1 SSTORE POP CALLER PUSH20 0xFFFFFFFFFFFFFFFFFFFFFFFFFFFFFFFFFFFFFFFF AND PUSH32 0x7D1CD329A11D8807F0374627923B6CD32942B74B38B1ACCF931D70A507FF739E DUP3 PUSH1 0x1 SLOAD PUSH1 0x40 MLOAD PUSH2 0x76E SWAP3 SWAP2 SWAP1 PUSH2 0x1B8C JUMP JUMPDEST PUSH1 0x40 MLOAD DUP1 SWAP2 SUB SWAP1 LOG2 POP POP POP POP JUMP JUMPDEST PUSH2 0x784 PUSH2 0xDF5 JUMP JUMPDEST PUSH2 0x78C JUMPI PUSH0 PUSH0 REVERT JUMPDEST PUSH0 SELFBALANCE SWAP1 POP PUSH0 PUSH2 0x799 PUSH2 0xDCE JUMP JUMPDEST PUSH20 0xFFFFFFFFFFFFFFFFFFFFFFFFFFFFFFFFFFFFFFFF AND DUP3 PUSH1 0x40 MLOAD PUSH2 0x7BC SWAP1 PUSH2 0x1BE0 JUMP JUMPDEST PUSH0 PUSH1 0x40 MLOAD DUP1 DUP4 SUB DUP2 DUP6 DUP8 GAS CALL SWAP3 POP POP POP RETURNDATASIZE DUP1 PUSH0 DUP2 EQ PUSH2 0x7F6 JUMPI PUSH1 0x40 MLOAD SWAP2 POP PUSH1 0x1F NOT PUSH1 0x3F RETURNDATASIZE ADD AND DUP3 ADD PUSH1 0x40 MSTORE RETURNDATASIZE DUP3 MSTORE RETURNDATASIZE PUSH0 PUSH1 0x20 DUP5 ADD RETURNDATACOPY PUSH2 0x7FB JUMP JUMPDEST PUSH1 0x60 SWAP2 POP JUMPDEST POP POP SWAP1 POP DUP1 PUSH2 0x83F JUMPI PUSH1 0x40 MLOAD PUSH32 0x8C379A000000000000000000000000000000000000000000000000000000000 DUP2 MSTORE PUSH1 0x4 ADD PUSH2 0x836 SWAP1 PUSH2 0x1C3E JUMP JUMPDEST PUSH1 0x40 MLOAD DUP1 SWAP2 SUB SWAP1 REVERT JUMPDEST PUSH2 0x847 PUSH2 0xDCE JUMP JUMPDEST PUSH20 0xFFFFFFFFFFFFFFFFFFFFFFFFFFFFFFFFFFFFFFFF AND PUSH32 0x884EDAD9CE6FA2440D8A54CC123490EB96D2768479D49FF9C7366125A9424364 DUP4 PUSH1 0x40 MLOAD PUSH2 0x88C SWAP2 SWAP1 PUSH2 0x1609 JUMP JUMPDEST PUSH1 0x40 MLOAD DUP1 SWAP2 SUB SWAP1 LOG2 POP POP JUMP JUMPDEST PUSH1 0x5 SLOAD DUP2 JUMP JUMPDEST PUSH1 0x2 SLOAD DUP2 JUMP JUMPDEST PUSH0 PUSH1 0x6 PUSH0 CALLER PUSH20 0xFFFFFFFFFFFFFFFFFFFFFFFFFFFFFFFFFFFFFFFF AND PUSH20 0xFFFFFFFFFFFFFFFFFFFFFFFFFFFFFFFFFFFFFFFF AND DUP2 MSTORE PUSH1 0x20 ADD SWAP1 DUP2 MSTORE PUSH1 0x20 ADD PUSH0 KECCAK256 SLOAD SWAP1 POP PUSH1 0x5 SLOAD TIMESTAMP LT PUSH2 0x929 JUMPI PUSH1 0x40 MLOAD PUSH32 0x8C379A000000000000000000000000000000000000000000000000000000000 DUP2 MSTORE PUSH1 0x4 ADD PUSH2 0x920 SWAP1 PUSH2 0x1CA6 JUMP JUMPDEST PUSH1 0x40 MLOAD DUP1 SWAP2 SUB SWAP1 REVERT JUMPDEST PUSH0 DUP2 GT PUSH2 0x96B JUMPI PUSH1 0x40 MLOAD PUSH32 0x8C379A000000000000000000000000000000000000000000000000000000000 DUP2 MSTORE PUSH1 0x4 ADD PUSH2 0x962 SWAP1 PUSH2 0x1D0E JUMP JUMPDEST PUSH1 0x40 MLOAD DUP1 SWAP2 SUB SWAP1 REVERT JUMPDEST PUSH0 PUSH1 0x6 PUSH0 CALLER PUSH20 0xFFFFFFFFFFFFFFFFFFFFFFFFFFFFFFFFFFFFFFFF AND PUSH20 0xFFFFFFFFFFFFFFFFFFFFFFFFFFFFFFFFFFFFFFFF AND DUP2 MSTORE PUSH1 0x20 ADD SWAP1 DUP2 MSTORE PUSH1 0x20 ADD PUSH0 KECCAK256 DUP2 SWAP1 SSTORE POP PUSH1 0x1 PUSH1 0x3 PUSH0 DUP3 DUP3 SLOAD PUSH2 0x9BF SWAP2 SWAP1 PUSH2 0x1D2C JUMP JUMPDEST SWAP3 POP POP DUP2 SWAP1 SSTORE POP PUSH0 CALLER PUSH20 0xFFFFFFFFFFFFFFFFFFFFFFFFFFFFFFFFFFFFFFFF AND PUSH1 0x1 SLOAD PUSH1 0x40 MLOAD PUSH2 0x9ED SWAP1 PUSH2 0x1BE0 JUMP JUMPDEST PUSH0 PUSH1 0x40 MLOAD DUP1 DUP4 SUB DUP2 DUP6 DUP8 GAS CALL SWAP3 POP POP POP RETURNDATASIZE DUP1 PUSH0 DUP2 EQ PUSH2 0xA27 JUMPI PUSH1 0x40 MLOAD SWAP2 POP PUSH1 0x1F NOT PUSH1 0x3F RETURNDATASIZE ADD AND DUP3 ADD PUSH1 0x40 MSTORE RETURNDATASIZE DUP3 MSTORE RETURNDATASIZE PUSH0 PUSH1 0x20 DUP5 ADD RETURNDATACOPY PUSH2 0xA2C JUMP JUMPDEST PUSH1 0x60 SWAP2 POP JUMPDEST POP POP SWAP1 POP DUP1 PUSH2 0xA70 JUMPI PUSH1 0x40 MLOAD PUSH32 0x8C379A000000000000000000000000000000000000000000000000000000000 DUP2 MSTORE PUSH1 0x4 ADD PUSH2 0xA67 SWAP1 PUSH2 0x1DA9 JUMP JUMPDEST PUSH1 0x40 MLOAD DUP1 SWAP2 SUB SWAP1 REVERT JUMPDEST CALLER PUSH20 0xFFFFFFFFFFFFFFFFFFFFFFFFFFFFFFFFFFFFFFFF AND PUSH32 0x73F04AF9DCC582A923EC15D3EEA990FE34ADABFFF2879E28D44572E01A54ABB6 DUP4 PUSH1 0x1 SLOAD PUSH1 0x40 MLOAD PUSH2 0xABA SWAP3 SWAP2 SWAP1 PUSH2 0x1B8C JUMP JUMPDEST PUSH1 0x40 MLOAD DUP1 SWAP2 SUB SWAP1 LOG2 POP POP JUMP JUMPDEST PUSH0 PUSH1 0x7 PUSH0 CALLER PUSH20 0xFFFFFFFFFFFFFFFFFFFFFFFFFFFFFFFFFFFFFFFF AND PUSH20 0xFFFFFFFFFFFFFFFFFFFFFFFFFFFFFFFFFFFFFFFF AND DUP2 MSTORE PUSH1 0x20 ADD SWAP1 DUP2 MSTORE PUSH1 0x20 ADD PUSH0 KECCAK256 SLOAD SWAP1 POP PUSH1 0x5 SLOAD TIMESTAMP LT PUSH2 0xB4B JUMPI PUSH1 0x40 MLOAD PUSH32 0x8C379A000000000000000000000000000000000000000000000000000000000 DUP2 MSTORE PUSH1 0x4 ADD PUSH2 0xB42 SWAP1 PUSH2 0x1CA6 JUMP JUMPDEST PUSH1 0x40 MLOAD DUP1 SWAP2 SUB SWAP1 REVERT JUMPDEST PUSH0 DUP2 GT PUSH2 0xB8D JUMPI PUSH1 0x40 MLOAD PUSH32 0x8C379A000000000000000000000000000000000000000000000000000000000 DUP2 MSTORE PUSH1 0x4 ADD PUSH2 0xB84 SWAP1 PUSH2 0x1D0E JUMP JUMPDEST PUSH1 0x40 MLOAD DUP1 SWAP2 SUB SWAP1 REVERT JUMPDEST PUSH0 PUSH1 0x7 PUSH0 CALLER PUSH20 0xFFFFFFFFFFFFFFFFFFFFFFFFFFFFFFFFFFFFFFFF AND PUSH20 0xFFFFFFFFFFFFFFFFFFFFFFFFFFFFFFFFFFFFFFFF AND DUP2 MSTORE PUSH1 0x20 ADD SWAP1 DUP2 MSTORE PUSH1 0x20 ADD PUSH0 KECCAK256 DUP2 SWAP1 SSTORE POP PUSH1 0x1 PUSH1 0x4 PUSH0 DUP3 DUP3 SLOAD PUSH2 0xBE1 SWAP2 SWAP1 PUSH2 0x1D2C JUMP JUMPDEST SWAP3 POP POP DUP2 SWAP1 SSTORE POP PUSH0 CALLER PUSH20 0xFFFFFFFFFFFFFFFFFFFFFFFFFFFFFFFFFFFFFFFF AND PUSH1 0x2 SLOAD PUSH1 0x40 MLOAD PUSH2 0xC0F SWAP1 PUSH2 0x1BE0 JUMP JUMPDEST PUSH0 PUSH1 0x40 MLOAD DUP1 DUP4 SUB DUP2 DUP6 DUP8 GAS CALL SWAP3 POP POP POP RETURNDATASIZE DUP1 PUSH0 DUP2 EQ PUSH2 0xC49 JUMPI PUSH1 0x40 MLOAD SWAP2 POP PUSH1 0x1F NOT PUSH1 0x3F RETURNDATASIZE ADD AND DUP3 ADD PUSH1 0x40 MSTORE RETURNDATASIZE DUP3 MSTORE RETURNDATASIZE PUSH0 PUSH1 0x20 DUP5 ADD RETURNDATACOPY PUSH2 0xC4E JUMP JUMPDEST PUSH1 0x60 SWAP2 POP JUMPDEST POP POP SWAP1 POP DUP1 PUSH2 0xC92 JUMPI PUSH1 0x40 MLOAD PUSH32 0x8C379A000000000000000000000000000000000000000000000000000000000 DUP2 MSTORE PUSH1 0x4 ADD PUSH2 0xC89 SWAP1 PUSH2 0x1DA9 JUMP JUMPDEST PUSH1 0x40 MLOAD DUP1 SWAP2 SUB SWAP1 REVERT JUMPDEST CALLER PUSH20 0xFFFFFFFFFFFFFFFFFFFFFFFFFFFFFFFFFFFFFFFF AND PUSH32 0x73F04AF9DCC582A923EC15D3EEA990FE34ADABFFF2879E28D44572E01A54ABB6 DUP4 PUSH1 0x2 SLOAD PUSH1 0x40 MLOAD PUSH2 0xCDC SWAP3 SWAP2 SWAP1 PUSH2 0x1B8C JUMP JUMPDEST PUSH1 0x40 MLOAD DUP1 SWAP2 SUB SWAP1 LOG2 POP POP JUMP JUMPDEST PUSH2 0xCF0 PUSH2 0xDF5 JUMP JUMPDEST PUSH2 0xCF8 JUMPI PUSH0 PUSH0 REVERT JUMPDEST PUSH0 PUSH20 0xFFFFFFFFFFFFFFFFFFFFFFFFFFFFFFFFFFFFFFFF AND PUSH0 PUSH0 SWAP1 SLOAD SWAP1 PUSH2 0x100 EXP SWAP1 DIV PUSH20 0xFFFFFFFFFFFFFFFFFFFFFFFFFFFFFFFFFFFFFFFF AND PUSH20 0xFFFFFFFFFFFFFFFFFFFFFFFFFFFFFFFFFFFFFFFF AND PUSH32 0x8BE0079C531659141344CD1FD0A4F28419497F9722A3DAAFE3B4186F6B6457E0 PUSH1 0x40 MLOAD PUSH1 0x40 MLOAD DUP1 SWAP2 SUB SWAP1 LOG3 PUSH0 PUSH0 PUSH0 PUSH2 0x100 EXP DUP2 SLOAD DUP2 PUSH20 0xFFFFFFFFFFFFFFFFFFFFFFFFFFFFFFFFFFFFFFFF MUL NOT AND SWAP1 DUP4 PUSH20 0xFFFFFFFFFFFFFFFFFFFFFFFFFFFFFFFFFFFFFFFF AND MUL OR SWAP1 SSTORE POP JUMP JUMPDEST PUSH1 0x7 PUSH1 0x20 MSTORE DUP1 PUSH0 MSTORE PUSH1 0x40 PUSH0 KECCAK256 PUSH0 SWAP2 POP SWAP1 POP SLOAD DUP2 JUMP JUMPDEST PUSH1 0x1 SLOAD DUP2 JUMP JUMPDEST PUSH0 PUSH0 PUSH0 SWAP1 SLOAD SWAP1 PUSH2 0x100 EXP SWAP1 DIV PUSH20 0xFFFFFFFFFFFFFFFFFFFFFFFFFFFFFFFFFFFFFFFF AND SWAP1 POP SWAP1 JUMP JUMPDEST PUSH0 PUSH0 PUSH0 SWAP1 SLOAD SWAP1 PUSH2 0x100 EXP SWAP1 DIV PUSH20 0xFFFFFFFFFFFFFFFFFFFFFFFFFFFFFFFFFFFFFFFF AND PUSH20 0xFFFFFFFFFFFFFFFFFFFFFFFFFFFFFFFFFFFFFFFF AND CALLER PUSH20 0xFFFFFFFFFFFFFFFFFFFFFFFFFFFFFFFFFFFFFFFF AND EQ SWAP1 POP SWAP1 JUMP JUMPDEST PUSH1 0x3 SLOAD DUP2 JUMP JUMPDEST PUSH1 0x8 DUP2 DUP2 SLOAD DUP2 LT PUSH2 0xE5F JUMPI PUSH0 DUP1 REVERT JUMPDEST SWAP1 PUSH0 MSTORE PUSH1 0x20 PUSH0 KECCAK256 SWAP1 PUSH1 0x4 MUL ADD PUSH0 SWAP2 POP SWAP1 POP DUP1 PUSH0 ADD DUP1 SLOAD PUSH2 0xE7E SWAP1 PUSH2 0x172F JUMP JUMPDEST DUP1 PUSH1 0x1F ADD PUSH1 0x20 DUP1 SWAP2 DIV MUL PUSH1 0x20 ADD PUSH1 0x40 MLOAD SWAP1 DUP2 ADD PUSH1 0x40 MSTORE DUP1 SWAP3 SWAP2 SWAP1 DUP2 DUP2 MSTORE PUSH1 0x20 ADD DUP3 DUP1 SLOAD PUSH2 0xEAA SWAP1 PUSH2 0x172F JUMP JUMPDEST DUP1 ISZERO PUSH2 0xEF5 JUMPI DUP1 PUSH1 0x1F LT PUSH2 0xECC JUMPI PUSH2 0x100 DUP1 DUP4 SLOAD DIV MUL DUP4 MSTORE SWAP2 PUSH1 0x20 ADD SWAP2 PUSH2 0xEF5 JUMP JUMPDEST DUP3 ADD SWAP2 SWAP1 PUSH0 MSTORE PUSH1 0x20 PUSH0 KECCAK256 SWAP1 JUMPDEST DUP2 SLOAD DUP2 MSTORE SWAP1 PUSH1 0x1 ADD SWAP1 PUSH1 0x20 ADD DUP1 DUP4 GT PUSH2 0xED8 JUMPI DUP3 SWAP1 SUB PUSH1 0x1F AND DUP3 ADD SWAP2 JUMPDEST POP POP POP POP POP SWAP1 DUP1 PUSH1 0x1 ADD DUP1 SLOAD PUSH2 0xF0A SWAP1 PUSH2 0x172F JUMP JUMPDEST DUP1 PUSH1 0x1F ADD PUSH1 0x20 DUP1 SWAP2 DIV MUL PUSH1 0x20 ADD PUSH1 0x40 MLOAD SWAP1 DUP2 ADD PUSH1 0x40 MSTORE DUP1 SWAP3 SWAP2 SWAP1 DUP2 DUP2 MSTORE PUSH1 0x20 ADD DUP3 DUP1 SLOAD PUSH2 0xF36 SWAP1 PUSH2 0x172F JUMP JUMPDEST DUP1 ISZERO PUSH2 0xF81 JUMPI DUP1 PUSH1 0x1F LT PUSH2 0xF58 JUMPI PUSH2 0x100 DUP1 DUP4 SLOAD DIV MUL DUP4 MSTORE SWAP2 PUSH1 0x20 ADD SWAP2 PUSH2 0xF81 JUMP JUMPDEST DUP3 ADD SWAP2 SWAP1 PUSH0 MSTORE PUSH1 0x20 PUSH0 KECCAK256 SWAP1 JUMPDEST DUP2 SLOAD DUP2 MSTORE SWAP1 PUSH1 0x1 ADD SWAP1 PUSH1 0x20 ADD DUP1 DUP4 GT PUSH2 0xF64 JUMPI DUP3 SWAP1 SUB PUSH1 0x1F AND DUP3 ADD SWAP2 JUMPDEST POP POP POP POP POP SWAP1 DUP1 PUSH1 0x2 ADD SLOAD SWAP1 DUP1 PUSH1 0x3 ADD SLOAD SWAP1 POP DUP5 JUMP JUMPDEST PUSH1 0x4 SLOAD DUP2 JUMP JUMPDEST PUSH1 0x6 PUSH1 0x20 MSTORE DUP1 PUSH0 MSTORE PUSH1 0x40 PUSH0 KECCAK256 PUSH0 SWAP2 POP SWAP1 POP SLOAD DUP2 JUMP JUMPDEST PUSH1 0x2 SLOAD CALLVALUE EQ PUSH2 0xFF6 JUMPI PUSH1 0x40 MLOAD PUSH32 0x8C379A000000000000000000000000000000000000000000000000000000000 DUP2 MSTORE PUSH1 0x4 ADD PUSH2 0xFED SWAP1 PUSH2 0x17CF JUMP JUMPDEST PUSH1 0x40 MLOAD DUP1 SWAP2 SUB SWAP1 REVERT JUMPDEST PUSH0 PUSH1 0x4 SLOAD GT PUSH2 0x103A JUMPI PUSH1 0x40 MLOAD PUSH32 0x8C379A000000000000000000000000000000000000000000000000000000000 DUP2 MSTORE PUSH1 0x4 ADD PUSH2 0x1031 SWAP1 PUSH2 0x1837 JUMP JUMPDEST PUSH1 0x40 MLOAD DUP1 SWAP2 SUB SWAP1 REVERT JUMPDEST PUSH0 PUSH1 0x7 PUSH0 CALLER PUSH20 0xFFFFFFFFFFFFFFFFFFFFFFFFFFFFFFFFFFFFFFFF AND PUSH20 0xFFFFFFFFFFFFFFFFFFFFFFFFFFFFFFFFFFFFFFFF AND DUP2 MSTORE PUSH1 0x20 ADD SWAP1 DUP2 MSTORE PUSH1 0x20 ADD PUSH0 KECCAK256 SLOAD EQ PUSH2 0x10B9 JUMPI PUSH1 0x40 MLOAD PUSH32 0x8C379A000000000000000000000000000000000000000000000000000000000 DUP2 MSTORE PUSH1 0x4 ADD PUSH2 0x10B0 SWAP1 PUSH2 0x1E11 JUMP JUMPDEST PUSH1 0x40 MLOAD DUP1 SWAP2 SUB SWAP1 REVERT JUMPDEST PUSH1 0x1 PUSH1 0x4 PUSH0 DUP3 DUP3 SLOAD PUSH2 0x10CB SWAP2 SWAP1 PUSH2 0x18EA JUMP JUMPDEST SWAP3 POP POP DUP2 SWAP1 SSTORE POP PUSH0 PUSH1 0x4 SLOAD PUSH1 0x32 PUSH2 0x10E2 SWAP2 SWAP1 PUSH2 0x18EA JUMP JUMPDEST SWAP1 POP PUSH1 0x9 PUSH1 0x40 MLOAD DUP1 PUSH1 0x80 ADD PUSH1 0x40 MSTORE DUP1 DUP7 DUP2 MSTORE PUSH1 0x20 ADD DUP6 DUP2 MSTORE PUSH1 0x20 ADD DUP5 DUP2 MSTORE PUSH1 0x20 ADD DUP4 DUP2 MSTORE POP SWAP1 DUP1 PUSH1 0x1 DUP2 SLOAD ADD DUP1 DUP3 SSTORE DUP1 SWAP2 POP POP PUSH1 0x1 SWAP1 SUB SWAP1 PUSH0 MSTORE PUSH1 0x20 PUSH0 KECCAK256 SWAP1 PUSH1 0x4 MUL ADD PUSH0 SWAP1 SWAP2 SWAP1 SWAP2 SWAP1 SWAP2 POP PUSH0 DUP3 ADD MLOAD DUP2 PUSH0 ADD SWAP1 DUP2 PUSH2 0x1140 SWAP2 SWAP1 PUSH2 0x1ABD JUMP JUMPDEST POP PUSH1 0x20 DUP3 ADD MLOAD DUP2 PUSH1 0x1 ADD SWAP1 DUP2 PUSH2 0x1156 SWAP2 SWAP1 PUSH2 0x1ABD JUMP JUMPDEST POP PUSH1 0x40 DUP3 ADD MLOAD DUP2 PUSH1 0x2 ADD SSTORE PUSH1 0x60 DUP3 ADD MLOAD DUP2 PUSH1 0x3 ADD SSTORE POP POP DUP1 PUSH1 0x7 PUSH0 CALLER PUSH20 0xFFFFFFFFFFFFFFFFFFFFFFFFFFFFFFFFFFFFFFFF AND PUSH20 0xFFFFFFFFFFFFFFFFFFFFFFFFFFFFFFFFFFFFFFFF AND DUP2 MSTORE PUSH1 0x20 ADD SWAP1 DUP2 MSTORE PUSH1 0x20 ADD PUSH0 KECCAK256 DUP2 SWAP1 SSTORE POP CALLER PUSH20 0xFFFFFFFFFFFFFFFFFFFFFFFFFFFFFFFFFFFFFFFF AND PUSH32 0x7D1CD329A11D8807F0374627923B6CD32942B74B38B1ACCF931D70A507FF739E DUP3 PUSH1 0x2 SLOAD PUSH1 0x40 MLOAD PUSH2 0x11F9 SWAP3 SWAP2 SWAP1 PUSH2 0x1B8C JUMP JUMPDEST PUSH1 0x40 MLOAD DUP1 SWAP2 SUB SWAP1 LOG2 POP POP POP POP JUMP JUMPDEST PUSH2 0x120F PUSH2 0xDF5 JUMP JUMPDEST PUSH2 0x1217 JUMPI PUSH0 PUSH0 REVERT JUMPDEST PUSH2 0x1220 DUP2 PUSH2 0x1223 JUMP JUMPDEST POP JUMP JUMPDEST PUSH0 PUSH20 0xFFFFFFFFFFFFFFFFFFFFFFFFFFFFFFFFFFFFFFFF AND DUP2 PUSH20 0xFFFFFFFFFFFFFFFFFFFFFFFFFFFFFFFFFFFFFFFF AND SUB PUSH2 0x125A JUMPI PUSH0 PUSH0 REVERT JUMPDEST DUP1 PUSH20 0xFFFFFFFFFFFFFFFFFFFFFFFFFFFFFFFFFFFFFFFF AND PUSH0 PUSH0 SWAP1 SLOAD SWAP1 PUSH2 0x100 EXP SWAP1 DIV PUSH20 0xFFFFFFFFFFFFFFFFFFFFFFFFFFFFFFFFFFFFFFFF AND PUSH20 0xFFFFFFFFFFFFFFFFFFFFFFFFFFFFFFFFFFFFFFFF AND PUSH32 0x8BE0079C531659141344CD1FD0A4F28419497F9722A3DAAFE3B4186F6B6457E0 PUSH1 0x40 MLOAD PUSH1 0x40 MLOAD DUP1 SWAP2 SUB SWAP1 LOG3 DUP1 PUSH0 PUSH0 PUSH2 0x100 EXP DUP2 SLOAD DUP2 PUSH20 0xFFFFFFFFFFFFFFFFFFFFFFFFFFFFFFFFFFFFFFFF MUL NOT AND SWAP1 DUP4 PUSH20 0xFFFFFFFFFFFFFFFFFFFFFFFFFFFFFFFFFFFFFFFF AND MUL OR SWAP1 SSTORE POP POP JUMP JUMPDEST PUSH0 PUSH1 0x40 MLOAD SWAP1 POP SWAP1 JUMP JUMPDEST PUSH0 PUSH0 REVERT JUMPDEST PUSH0 PUSH0 REVERT JUMPDEST PUSH0 DUP2 SWAP1 POP SWAP2 SWAP1 POP JUMP JUMPDEST PUSH2 0x1339 DUP2 PUSH2 0x1327 JUMP JUMPDEST DUP2 EQ PUSH2 0x1343 JUMPI PUSH0 PUSH0 REVERT JUMPDEST POP JUMP JUMPDEST PUSH0 DUP2 CALLDATALOAD SWAP1 POP PUSH2 0x1354 DUP2 PUSH2 0x1330 JUMP JUMPDEST SWAP3 SWAP2 POP POP JUMP JUMPDEST PUSH0 PUSH1 0x20 DUP3 DUP5 SUB SLT ISZERO PUSH2 0x136F JUMPI PUSH2 0x136E PUSH2 0x131F JUMP JUMPDEST JUMPDEST PUSH0 PUSH2 0x137C DUP5 DUP3 DUP6 ADD PUSH2 0x1346 JUMP JUMPDEST SWAP2 POP POP SWAP3 SWAP2 POP POP JUMP JUMPDEST PUSH0 DUP2 MLOAD SWAP1 POP SWAP2 SWAP1 POP JUMP JUMPDEST PUSH0 DUP3 DUP3 MSTORE PUSH1 0x20 DUP3 ADD SWAP1 POP SWAP3 SWAP2 POP POP JUMP JUMPDEST DUP3 DUP2 DUP4 MCOPY PUSH0 DUP4 DUP4 ADD MSTORE POP POP POP JUMP JUMPDEST PUSH0 PUSH1 0x1F NOT PUSH1 0x1F DUP4 ADD AND SWAP1 POP SWAP2 SWAP1 POP JUMP JUMPDEST PUSH0 PUSH2 0x13C7 DUP3 PUSH2 0x1385 JUMP JUMPDEST PUSH2 0x13D1 DUP2 DUP6 PUSH2 0x138F JUMP JUMPDEST SWAP4 POP PUSH2 0x13E1 DUP2 DUP6 PUSH1 0x20 DUP7 ADD PUSH2 0x139F JUMP JUMPDEST PUSH2 0x13EA DUP2 PUSH2 0x13AD JUMP JUMPDEST DUP5 ADD SWAP2 POP POP SWAP3 SWAP2 POP POP JUMP JUMPDEST PUSH2 0x13FE DUP2 PUSH2 0x1327 JUMP JUMPDEST DUP3 MSTORE POP POP JUMP JUMPDEST PUSH0 PUSH1 0x80 DUP3 ADD SWAP1 POP DUP2 DUP2 SUB PUSH0 DUP4 ADD MSTORE PUSH2 0x141C DUP2 DUP8 PUSH2 0x13BD JUMP JUMPDEST SWAP1 POP DUP2 DUP2 SUB PUSH1 0x20 DUP4 ADD MSTORE PUSH2 0x1430 DUP2 DUP7 PUSH2 0x13BD JUMP JUMPDEST SWAP1 POP PUSH2 0x143F PUSH1 0x40 DUP4 ADD DUP6 PUSH2 0x13F5 JUMP JUMPDEST PUSH2 0x144C PUSH1 0x60 DUP4 ADD DUP5 PUSH2 0x13F5 JUMP JUMPDEST SWAP6 SWAP5 POP POP POP POP POP JUMP JUMPDEST PUSH0 PUSH0 REVERT JUMPDEST PUSH0 PUSH0 REVERT JUMPDEST PUSH32 0x4E487B7100000000000000000000000000000000000000000000000000000000 PUSH0 MSTORE PUSH1 0x41 PUSH1 0x4 MSTORE PUSH1 0x24 PUSH0 REVERT JUMPDEST PUSH2 0x1493 DUP3 PUSH2 0x13AD JUMP JUMPDEST DUP2 ADD DUP2 DUP2 LT PUSH8 0xFFFFFFFFFFFFFFFF DUP3 GT OR ISZERO PUSH2 0x14B2 JUMPI PUSH2 0x14B1 PUSH2 0x145D JUMP JUMPDEST JUMPDEST DUP1 PUSH1 0x40 MSTORE POP POP POP JUMP JUMPDEST PUSH0 PUSH2 0x14C4 PUSH2 0x1316 JUMP JUMPDEST SWAP1 POP PUSH2 0x14D0 DUP3 DUP3 PUSH2 0x148A JUMP JUMPDEST SWAP2 SWAP1 POP JUMP JUMPDEST PUSH0 PUSH8 0xFFFFFFFFFFFFFFFF DUP3 GT ISZERO PUSH2 0x14EF JUMPI PUSH2 0x14EE PUSH2 0x145D JUMP JUMPDEST JUMPDEST PUSH2 0x14F8 DUP3 PUSH2 0x13AD JUMP JUMPDEST SWAP1 POP PUSH1 0x20 DUP2 ADD SWAP1 POP SWAP2 SWAP1 POP JUMP JUMPDEST DUP3 DUP2 DUP4 CALLDATACOPY PUSH0 DUP4 DUP4 ADD MSTORE POP POP POP JUMP JUMPDEST PUSH0 PUSH2 0x1525 PUSH2 0x1520 DUP5 PUSH2 0x14D5 JUMP JUMPDEST PUSH2 0x14BB JUMP JUMPDEST SWAP1 POP DUP3 DUP2 MSTORE PUSH1 0x20 DUP2 ADD DUP5 DUP5 DUP5 ADD GT ISZERO PUSH2 0x1541 JUMPI PUSH2 0x1540 PUSH2 0x1459 JUMP JUMPDEST JUMPDEST PUSH2 0x154C DUP5 DUP3 DUP6 PUSH2 0x1505 JUMP JUMPDEST POP SWAP4 SWAP3 POP POP POP JUMP JUMPDEST PUSH0 DUP3 PUSH1 0x1F DUP4 ADD SLT PUSH2 0x1568 JUMPI PUSH2 0x1567 PUSH2 0x1455 JUMP JUMPDEST JUMPDEST DUP2 CALLDATALOAD PUSH2 0x1578 DUP5 DUP3 PUSH1 0x20 DUP7 ADD PUSH2 0x1513 JUMP JUMPDEST SWAP2 POP POP SWAP3 SWAP2 POP POP JUMP JUMPDEST PUSH0 PUSH0 PUSH0 PUSH1 0x60 DUP5 DUP7 SUB SLT ISZERO PUSH2 0x1598 JUMPI PUSH2 0x1597 PUSH2 0x131F JUMP JUMPDEST JUMPDEST PUSH0 DUP5 ADD CALLDATALOAD PUSH8 0xFFFFFFFFFFFFFFFF DUP2 GT ISZERO PUSH2 0x15B5 JUMPI PUSH2 0x15B4 PUSH2 0x1323 JUMP JUMPDEST JUMPDEST PUSH2 0x15C1 DUP7 DUP3 DUP8 ADD PUSH2 0x1554 JUMP JUMPDEST SWAP4 POP POP PUSH1 0x20 DUP5 ADD CALLDATALOAD PUSH8 0xFFFFFFFFFFFFFFFF DUP2 GT ISZERO PUSH2 0x15E2 JUMPI PUSH2 0x15E1 PUSH2 0x1323 JUMP JUMPDEST JUMPDEST PUSH2 0x15EE DUP7 DUP3 DUP8 ADD PUSH2 0x1554 JUMP JUMPDEST SWAP3 POP POP PUSH1 0x40 PUSH2 0x15FF DUP7 DUP3 DUP8 ADD PUSH2 0x1346 JUMP JUMPDEST SWAP2 POP POP SWAP3 POP SWAP3 POP SWAP3 JUMP JUMPDEST PUSH0 PUSH1 0x20 DUP3 ADD SWAP1 POP PUSH2 0x161C PUSH0 DUP4 ADD DUP5 PUSH2 0x13F5 JUMP JUMPDEST SWAP3 SWAP2 POP POP JUMP JUMPDEST PUSH0 PUSH20 0xFFFFFFFFFFFFFFFFFFFFFFFFFFFFFFFFFFFFFFFF DUP3 AND SWAP1 POP SWAP2 SWAP1 POP JUMP JUMPDEST PUSH0 PUSH2 0x164B DUP3 PUSH2 0x1622 JUMP JUMPDEST SWAP1 POP SWAP2 SWAP1 POP JUMP JUMPDEST PUSH2 0x165B DUP2 PUSH2 0x1641 JUMP JUMPDEST DUP2 EQ PUSH2 0x1665 JUMPI PUSH0 PUSH0 REVERT JUMPDEST POP JUMP JUMPDEST PUSH0 DUP2 CALLDATALOAD SWAP1 POP PUSH2 0x1676 DUP2 PUSH2 0x1652 JUMP JUMPDEST SWAP3 SWAP2 POP POP JUMP JUMPDEST PUSH0 PUSH1 0x20 DUP3 DUP5 SUB SLT ISZERO PUSH2 0x1691 JUMPI PUSH2 0x1690 PUSH2 0x131F JUMP JUMPDEST JUMPDEST PUSH0 PUSH2 0x169E DUP5 DUP3 DUP6 ADD PUSH2 0x1668 JUMP JUMPDEST SWAP2 POP POP SWAP3 SWAP2 POP POP JUMP JUMPDEST PUSH2 0x16B0 DUP2 PUSH2 0x1641 JUMP JUMPDEST DUP3 MSTORE POP POP JUMP JUMPDEST PUSH0 PUSH1 0x20 DUP3 ADD SWAP1 POP PUSH2 0x16C9 PUSH0 DUP4 ADD DUP5 PUSH2 0x16A7 JUMP JUMPDEST SWAP3 SWAP2 POP POP JUMP JUMPDEST PUSH0 DUP2 ISZERO ISZERO SWAP1 POP SWAP2 SWAP1 POP JUMP JUMPDEST PUSH2 0x16E3 DUP2 PUSH2 0x16CF JUMP JUMPDEST DUP3 MSTORE POP POP JUMP JUMPDEST PUSH0 PUSH1 0x20 DUP3 ADD SWAP1 POP PUSH2 0x16FC PUSH0 DUP4 ADD DUP5 PUSH2 0x16DA JUMP JUMPDEST SWAP3 SWAP2 POP POP JUMP JUMPDEST PUSH32 0x4E487B7100000000000000000000000000000000000000000000000000000000 PUSH0 MSTORE PUSH1 0x22 PUSH1 0x4 MSTORE PUSH1 0x24 PUSH0 REVERT JUMPDEST PUSH0 PUSH1 0x2 DUP3 DIV SWAP1 POP PUSH1 0x1 DUP3 AND DUP1 PUSH2 0x1746 JUMPI PUSH1 0x7F DUP3 AND SWAP2 POP JUMPDEST PUSH1 0x20 DUP3 LT DUP2 SUB PUSH2 0x1759 JUMPI PUSH2 0x1758 PUSH2 0x1702 JUMP JUMPDEST JUMPDEST POP SWAP2 SWAP1 POP JUMP JUMPDEST PUSH32 0x796F75206861766520746F2070617920657861637420616D6F756E74206F6620 PUSH0 DUP3 ADD MSTORE PUSH32 0x6574680000000000000000000000000000000000000000000000000000000000 PUSH1 0x20 DUP3 ADD MSTORE POP JUMP JUMPDEST PUSH0 PUSH2 0x17B9 PUSH1 0x23 DUP4 PUSH2 0x138F JUMP JUMPDEST SWAP2 POP PUSH2 0x17C4 DUP3 PUSH2 0x175F JUMP JUMPDEST PUSH1 0x40 DUP3 ADD SWAP1 POP SWAP2 SWAP1 POP JUMP JUMPDEST PUSH0 PUSH1 0x20 DUP3 ADD SWAP1 POP DUP2 DUP2 SUB PUSH0 DUP4 ADD MSTORE PUSH2 0x17E6 DUP2 PUSH2 0x17AD JUMP JUMPDEST SWAP1 POP SWAP2 SWAP1 POP JUMP JUMPDEST PUSH32 0x7365617473206172652066756C6C000000000000000000000000000000000000 PUSH0 DUP3 ADD MSTORE POP JUMP JUMPDEST PUSH0 PUSH2 0x1821 PUSH1 0xE DUP4 PUSH2 0x138F JUMP JUMPDEST SWAP2 POP PUSH2 0x182C DUP3 PUSH2 0x17ED JUMP JUMPDEST PUSH1 0x20 DUP3 ADD SWAP1 POP SWAP2 SWAP1 POP JUMP JUMPDEST PUSH0 PUSH1 0x20 DUP3 ADD SWAP1 POP DUP2 DUP2 SUB PUSH0 DUP4 ADD MSTORE PUSH2 0x184E DUP2 PUSH2 0x1815 JUMP JUMPDEST SWAP1 POP SWAP2 SWAP1 POP JUMP JUMPDEST PUSH32 0x796F7520616C7265616479206F776E2061207469636B65740000000000000000 PUSH0 DUP3 ADD MSTORE POP JUMP JUMPDEST PUSH0 PUSH2 0x1889 PUSH1 0x18 DUP4 PUSH2 0x138F JUMP JUMPDEST SWAP2 POP PUSH2 0x1894 DUP3 PUSH2 0x1855 JUMP JUMPDEST PUSH1 0x20 DUP3 ADD SWAP1 POP SWAP2 SWAP1 POP JUMP JUMPDEST PUSH0 PUSH1 0x20 DUP3 ADD SWAP1 POP DUP2 DUP2 SUB PUSH0 DUP4 ADD MSTORE PUSH2 0x18B6 DUP2 PUSH2 0x187D JUMP JUMPDEST SWAP1 POP SWAP2 SWAP1 POP JUMP JUMPDEST PUSH32 0x4E487B7100000000000000000000000000000000000000000000000000000000 PUSH0 MSTORE PUSH1 0x11 PUSH1 0x4 MSTORE PUSH1 0x24 PUSH0 REVERT JUMPDEST PUSH0 PUSH2 0x18F4 DUP3 PUSH2 0x1327 JUMP JUMPDEST SWAP2 POP PUSH2 0x18FF DUP4 PUSH2 0x1327 JUMP JUMPDEST SWAP3 POP DUP3 DUP3 SUB SWAP1 POP DUP2 DUP2 GT ISZERO PUSH2 0x1917 JUMPI PUSH2 0x1916 PUSH2 0x18BD JUMP JUMPDEST JUMPDEST SWAP3 SWAP2 POP POP JUMP JUMPDEST PUSH0 DUP2 SWAP1 POP DUP2 PUSH0 MSTORE PUSH1 0x20 PUSH0 KECCAK256 SWAP1 POP SWAP2 SWAP1 POP JUMP JUMPDEST PUSH0 PUSH1 0x20 PUSH1 0x1F DUP4 ADD DIV SWAP1 POP SWAP2 SWAP1 POP JUMP JUMPDEST PUSH0 DUP3 DUP3 SHL SWAP1 POP SWAP3 SWAP2 POP POP JUMP JUMPDEST PUSH0 PUSH1 0x8 DUP4 MUL PUSH2 0x1979 PUSH32 0xFFFFFFFFFFFFFFFFFFFFFFFFFFFFFFFFFFFFFFFFFFFFFFFFFFFFFFFFFFFFFFFF DUP3 PUSH2 0x193E JUMP JUMPDEST PUSH2 0x1983 DUP7 DUP4 PUSH2 0x193E JUMP JUMPDEST SWAP6 POP DUP1 NOT DUP5 AND SWAP4 POP DUP1 DUP7 AND DUP5 OR SWAP3 POP POP POP SWAP4 SWAP3 POP POP POP JUMP JUMPDEST PUSH0 DUP2 SWAP1 POP SWAP2 SWAP1 POP JUMP JUMPDEST PUSH0 PUSH2 0x19BE PUSH2 0x19B9 PUSH2 0x19B4 DUP5 PUSH2 0x1327 JUMP JUMPDEST PUSH2 0x199B JUMP JUMPDEST PUSH2 0x1327 JUMP JUMPDEST SWAP1 POP SWAP2 SWAP1 POP JUMP JUMPDEST PUSH0 DUP2 SWAP1 POP SWAP2 SWAP1 POP JUMP JUMPDEST PUSH2 0x19D7 DUP4 PUSH2 0x19A4 JUMP JUMPDEST PUSH2 0x19EB PUSH2 0x19E3 DUP3 PUSH2 0x19C5 JUMP JUMPDEST DUP5 DUP5 SLOAD PUSH2 0x194A JUMP JUMPDEST DUP3 SSTORE POP POP POP POP JUMP JUMPDEST PUSH0 PUSH0 SWAP1 POP SWAP1 JUMP JUMPDEST PUSH2 0x1A02 PUSH2 0x19F3 JUMP JUMPDEST PUSH2 0x1A0D DUP2 DUP5 DUP5 PUSH2 0x19CE JUMP JUMPDEST POP POP POP JUMP JUMPDEST JUMPDEST DUP2 DUP2 LT ISZERO PUSH2 0x1A30 JUMPI PUSH2 0x1A25 PUSH0 DUP3 PUSH2 0x19FA JUMP JUMPDEST PUSH1 0x1 DUP2 ADD SWAP1 POP PUSH2 0x1A13 JUMP JUMPDEST POP POP JUMP JUMPDEST PUSH1 0x1F DUP3 GT ISZERO PUSH2 0x1A75 JUMPI PUSH2 0x1A46 DUP2 PUSH2 0x191D JUMP JUMPDEST PUSH2 0x1A4F DUP5 PUSH2 0x192F JUMP JUMPDEST DUP2 ADD PUSH1 0x20 DUP6 LT ISZERO PUSH2 0x1A5E JUMPI DUP2 SWAP1 POP JUMPDEST PUSH2 0x1A72 PUSH2 0x1A6A DUP6 PUSH2 0x192F JUMP JUMPDEST DUP4 ADD DUP3 PUSH2 0x1A12 JUMP JUMPDEST POP POP JUMPDEST POP POP POP JUMP JUMPDEST PUSH0 DUP3 DUP3 SHR SWAP1 POP SWAP3 SWAP2 POP POP JUMP JUMPDEST PUSH0 PUSH2 0x1A95 PUSH0 NOT DUP5 PUSH1 0x8 MUL PUSH2 0x1A7A JUMP JUMPDEST NOT DUP1 DUP4 AND SWAP2 POP POP SWAP3 SWAP2 POP POP JUMP JUMPDEST PUSH0 PUSH2 0x1AAD DUP4 DUP4 PUSH2 0x1A86 JUMP JUMPDEST SWAP2 POP DUP3 PUSH1 0x2 MUL DUP3 OR SWAP1 POP SWAP3 SWAP2 POP POP JUMP JUMPDEST PUSH2 0x1AC6 DUP3 PUSH2 0x1385 JUMP JUMPDEST PUSH8 0xFFFFFFFFFFFFFFFF DUP2 GT ISZERO PUSH2 0x1ADF JUMPI PUSH2 0x1ADE PUSH2 0x145D JUMP JUMPDEST JUMPDEST PUSH2 0x1AE9 DUP3 SLOAD PUSH2 0x172F JUMP JUMPDEST PUSH2 0x1AF4 DUP3 DUP3 DUP6 PUSH2 0x1A34 JUMP JUMPDEST PUSH0 PUSH1 0x20 SWAP1 POP PUSH1 0x1F DUP4 GT PUSH1 0x1 DUP2 EQ PUSH2 0x1B25 JUMPI PUSH0 DUP5 ISZERO PUSH2 0x1B13 JUMPI DUP3 DUP8 ADD MLOAD SWAP1 POP JUMPDEST PUSH2 0x1B1D DUP6 DUP3 PUSH2 0x1AA2 JUMP JUMPDEST DUP7 SSTORE POP PUSH2 0x1B84 JUMP JUMPDEST PUSH1 0x1F NOT DUP5 AND PUSH2 0x1B33 DUP7 PUSH2 0x191D JUMP JUMPDEST PUSH0 JUMPDEST DUP3 DUP2 LT ISZERO PUSH2 0x1B5A JUMPI DUP5 DUP10 ADD MLOAD DUP3 SSTORE PUSH1 0x1 DUP3 ADD SWAP2 POP PUSH1 0x20 DUP6 ADD SWAP5 POP PUSH1 0x20 DUP2 ADD SWAP1 POP PUSH2 0x1B35 JUMP JUMPDEST DUP7 DUP4 LT ISZERO PUSH2 0x1B77 JUMPI DUP5 DUP10 ADD MLOAD PUSH2 0x1B73 PUSH1 0x1F DUP10 AND DUP3 PUSH2 0x1A86 JUMP JUMPDEST DUP4 SSTORE POP JUMPDEST PUSH1 0x1 PUSH1 0x2 DUP9 MUL ADD DUP9 SSTORE POP POP POP JUMPDEST POP POP POP POP POP POP JUMP JUMPDEST PUSH0 PUSH1 0x40 DUP3 ADD SWAP1 POP PUSH2 0x1B9F PUSH0 DUP4 ADD DUP6 PUSH2 0x13F5 JUMP JUMPDEST PUSH2 0x1BAC PUSH1 0x20 DUP4 ADD DUP5 PUSH2 0x13F5 JUMP JUMPDEST SWAP4 SWAP3 POP POP POP JUMP JUMPDEST PUSH0 DUP2 SWAP1 POP SWAP3 SWAP2 POP POP JUMP JUMPDEST POP JUMP JUMPDEST PUSH0 PUSH2 0x1BCB PUSH0 DUP4 PUSH2 0x1BB3 JUMP JUMPDEST SWAP2 POP PUSH2 0x1BD6 DUP3 PUSH2 0x1BBD JUMP JUMPDEST PUSH0 DUP3 ADD SWAP1 POP SWAP2 SWAP1 POP JUMP JUMPDEST PUSH0 PUSH2 0x1BEA DUP3 PUSH2 0x1BC0 JUMP JUMPDEST SWAP2 POP DUP2 SWAP1 POP SWAP2 SWAP1 POP JUMP JUMPDEST PUSH32 0x6572726F723A6661696C20746F20776974686472617720657468657200000000 PUSH0 DUP3 ADD MSTORE POP JUMP JUMPDEST PUSH0 PUSH2 0x1C28 PUSH1 0x1C DUP4 PUSH2 0x138F JUMP JUMPDEST SWAP2 POP PUSH2 0x1C33 DUP3 PUSH2 0x1BF4 JUMP JUMPDEST PUSH1 0x20 DUP3 ADD SWAP1 POP SWAP2 SWAP1 POP JUMP JUMPDEST PUSH0 PUSH1 0x20 DUP3 ADD SWAP1 POP DUP2 DUP2 SUB PUSH0 DUP4 ADD MSTORE PUSH2 0x1C55 DUP2 PUSH2 0x1C1C JUMP JUMPDEST SWAP1 POP SWAP2 SWAP1 POP JUMP JUMPDEST PUSH32 0x726566756E6420706572696F64206973206F7665720000000000000000000000 PUSH0 DUP3 ADD MSTORE POP JUMP JUMPDEST PUSH0 PUSH2 0x1C90 PUSH1 0x15 DUP4 PUSH2 0x138F JUMP JUMPDEST SWAP2 POP PUSH2 0x1C9B DUP3 PUSH2 0x1C5C JUMP JUMPDEST PUSH1 0x20 DUP3 ADD SWAP1 POP SWAP2 SWAP1 POP JUMP JUMPDEST PUSH0 PUSH1 0x20 DUP3 ADD SWAP1 POP DUP2 DUP2 SUB PUSH0 DUP4 ADD MSTORE PUSH2 0x1CBD DUP2 PUSH2 0x1C84 JUMP JUMPDEST SWAP1 POP SWAP2 SWAP1 POP JUMP JUMPDEST PUSH32 0x796F7520646F6E74206F776E205469636B657400000000000000000000000000 PUSH0 DUP3 ADD MSTORE POP JUMP JUMPDEST PUSH0 PUSH2 0x1CF8 PUSH1 0x13 DUP4 PUSH2 0x138F JUMP JUMPDEST SWAP2 POP PUSH2 0x1D03 DUP3 PUSH2 0x1CC4 JUMP JUMPDEST PUSH1 0x20 DUP3 ADD SWAP1 POP SWAP2 SWAP1 POP JUMP JUMPDEST PUSH0 PUSH1 0x20 DUP3 ADD SWAP1 POP DUP2 DUP2 SUB PUSH0 DUP4 ADD MSTORE PUSH2 0x1D25 DUP2 PUSH2 0x1CEC JUMP JUMPDEST SWAP1 POP SWAP2 SWAP1 POP JUMP JUMPDEST PUSH0 PUSH2 0x1D36 DUP3 PUSH2 0x1327 JUMP JUMPDEST SWAP2 POP PUSH2 0x1D41 DUP4 PUSH2 0x1327 JUMP JUMPDEST SWAP3 POP DUP3 DUP3 ADD SWAP1 POP DUP1 DUP3 GT ISZERO PUSH2 0x1D59 JUMPI PUSH2 0x1D58 PUSH2 0x18BD JUMP JUMPDEST JUMPDEST SWAP3 SWAP2 POP POP JUMP JUMPDEST PUSH32 0x6572726F723A6973737565207769746820726566756E64000000000000000000 PUSH0 DUP3 ADD MSTORE POP JUMP JUMPDEST PUSH0 PUSH2 0x1D93 PUSH1 0x17 DUP4 PUSH2 0x138F JUMP JUMPDEST SWAP2 POP PUSH2 0x1D9E DUP3 PUSH2 0x1D5F JUMP JUMPDEST PUSH1 0x20 DUP3 ADD SWAP1 POP SWAP2 SWAP1 POP JUMP JUMPDEST PUSH0 PUSH1 0x20 DUP3 ADD SWAP1 POP DUP2 DUP2 SUB PUSH0 DUP4 ADD MSTORE PUSH2 0x1DC0 DUP2 PUSH2 0x1D87 JUMP JUMPDEST SWAP1 POP SWAP2 SWAP1 POP JUMP JUMPDEST PUSH32 0x796F7520616C72656479206F776E207469636B65740000000000000000000000 PUSH0 DUP3 ADD MSTORE POP JUMP JUMPDEST PUSH0 PUSH2 0x1DFB PUSH1 0x15 DUP4 PUSH2 0x138F JUMP JUMPDEST SWAP2 POP PUSH2 0x1E06 DUP3 PUSH2 0x1DC7 JUMP JUMPDEST PUSH1 0x20 DUP3 ADD SWAP1 POP SWAP2 SWAP1 POP JUMP JUMPDEST PUSH0 PUSH1 0x20 DUP3 ADD SWAP1 POP DUP2 DUP2 SUB PUSH0 DUP4 ADD MSTORE PUSH2 0x1E28 DUP2 PUSH2 0x1DEF JUMP JUMPDEST SWAP1 POP SWAP2 SWAP1 POP JUMP INVALID LOG2 PUSH5 0x6970667358 0x22 SLT KECCAK256 0xCF 0xB2 EQ 0xBF EXTSTATICCALL EXTCALL CALLER 0x2C CALLF 0xB26F PUSH7 0x76285534F4E58 PUSH24 0xC224447F5D2D5DA54E11FE7864736F6C634300081E003300 "
				},
				"gasEstimates": {
					"creation": {
						"codeDepositCost": "1556200",
						"executionCost": "infinite",
						"totalCost": "infinite"
					},
					"external": {
						"Buyvipseats(string,string,uint256)": "infinite",
						"details(uint256)": "infinite",
						"eth()": "2448",
						"ethforvip()": "2448",
						"eventDate()": "2515",
						"isOwner()": "2556",
						"owner()": "2559",
						"payforticket(string,string,uint256)": "infinite",
						"refund()": "infinite",
						"refundforvip()": "infinite",
						"renounceOwnership()": "30376",
						"seats()": "2514",
						"transferOwnership(address)": "30768",
						"usertoTicket(address)": "2868",
						"usertoVipTicket(address)": "2913",
						"vipdetails(uint256)": "infinite",
						"vipseats()": "2469",
						"withdraw()": "infinite"
					}
				},
				"methodIdentifiers": {
					"Buyvipseats(string,string,uint256)": "ad90cf8d",
					"details(uint256)": "a005ec7a",
					"eth()": "8c7c9e0c",
					"ethforvip()": "53ab3648",
					"eventDate()": "4bfbe5df",
					"isOwner()": "8f32d59b",
					"owner()": "8da5cb5b",
					"payforticket(string,string,uint256)": "352371fe",
					"refund()": "590e1ae3",
					"refundforvip()": "609af3a7",
					"renounceOwnership()": "715018a6",
					"seats()": "9c5655d6",
					"transferOwnership(address)": "f2fde38b",
					"usertoTicket(address)": "acae79bb",
					"usertoVipTicket(address)": "7ab05004",
					"vipdetails(uint256)": "332c4fde",
					"vipseats()": "a5567197",
					"withdraw()": "3ccfd60b"
				}
			},
			"storageLayout": {
				"storage": [
					{
						"astId": 384,
						"contract": "contracts/new.sol:wallet",
						"label": "_owner",
						"offset": 0,
						"slot": "0",
						"type": "t_address"
					},
					{
						"astId": 7,
						"contract": "contracts/new.sol:wallet",
						"label": "eth",
						"offset": 0,
						"slot": "1",
						"type": "t_uint256"
					},
					{
						"astId": 10,
						"contract": "contracts/new.sol:wallet",
						"label": "ethforvip",
						"offset": 0,
						"slot": "2",
						"type": "t_uint256"
					},
					{
						"astId": 13,
						"contract": "contracts/new.sol:wallet",
						"label": "seats",
						"offset": 0,
						"slot": "3",
						"type": "t_uint256"
					},
					{
						"astId": 16,
						"contract": "contracts/new.sol:wallet",
						"label": "vipseats",
						"offset": 0,
						"slot": "4",
						"type": "t_uint256"
					},
					{
						"astId": 18,
						"contract": "contracts/new.sol:wallet",
						"label": "eventDate",
						"offset": 0,
						"slot": "5",
						"type": "t_uint256"
					},
					{
						"astId": 22,
						"contract": "contracts/new.sol:wallet",
						"label": "usertoTicket",
						"offset": 0,
						"slot": "6",
						"type": "t_mapping(t_address,t_uint256)"
					},
					{
						"astId": 26,
						"contract": "contracts/new.sol:wallet",
						"label": "usertoVipTicket",
						"offset": 0,
						"slot": "7",
						"type": "t_mapping(t_address,t_uint256)"
					},
					{
						"astId": 61,
						"contract": "contracts/new.sol:wallet",
						"label": "details",
						"offset": 0,
						"slot": "8",
						"type": "t_array(t_struct(Ticket)57_storage)dyn_storage"
					},
					{
						"astId": 65,
						"contract": "contracts/new.sol:wallet",
						"label": "vipdetails",
						"offset": 0,
						"slot": "9",
						"type": "t_array(t_struct(Ticket)57_storage)dyn_storage"
					}
				],
				"types": {
					"t_address": {
						"encoding": "inplace",
						"label": "address",
						"numberOfBytes": "20"
					},
					"t_array(t_struct(Ticket)57_storage)dyn_storage": {
						"base": "t_struct(Ticket)57_storage",
						"encoding": "dynamic_array",
						"label": "struct wallet.Ticket[]",
						"numberOfBytes": "32"
					},
					"t_mapping(t_address,t_uint256)": {
						"encoding": "mapping",
						"key": "t_address",
						"label": "mapping(address => uint256)",
						"numberOfBytes": "32",
						"value": "t_uint256"
					},
					"t_string_storage": {
						"encoding": "bytes",
						"label": "string",
						"numberOfBytes": "32"
					},
					"t_struct(Ticket)57_storage": {
						"encoding": "inplace",
						"label": "struct wallet.Ticket",
						"members": [
							{
								"astId": 50,
								"contract": "contracts/new.sol:wallet",
								"label": "name",
								"offset": 0,
								"slot": "0",
								"type": "t_string_storage"
							},
							{
								"astId": 52,
								"contract": "contracts/new.sol:wallet",
								"label": "email",
								"offset": 0,
								"slot": "1",
								"type": "t_string_storage"
							},
							{
								"astId": 54,
								"contract": "contracts/new.sol:wallet",
								"label": "phoneNo",
								"offset": 0,
								"slot": "2",
								"type": "t_uint256"
							},
							{
								"astId": 56,
								"contract": "contracts/new.sol:wallet",
								"label": "ticketNo",
								"offset": 0,
								"slot": "3",
								"type": "t_uint256"
							}
						],
						"numberOfBytes": "128"
					},
					"t_uint256": {
						"encoding": "inplace",
						"label": "uint256",
						"numberOfBytes": "32"
					}
				}
			},
			"userdoc": {
				"kind": "user",
				"methods": {
					"renounceOwnership()": {
						"notice": "Renouncing to ownership will leave the contract without an owner. It will not be possible to call the functions with the `onlyOwner` modifier anymore."
					}
				},
				"version": 1
			}
		}
	}
}